:100000000C9426020C944E020C944E020C944E0258
:100010000C944E020C944E020C944E020C944E0220
:100020000C944E020C944E020C944E020C944E0210
:100030000C944E020C944E020C944E020C944E0200
:100040000C94A50B0C944E020C94150C0C94EF0B15
:100050000C944E020C944E020C944E020C944E02E0
:100060000C94470C0C944E024E414E494E49545943
:10007000494E46CDCCCC3D0AD7233C17B7D1387773
:10008000CC2B329595E6241FB14F0A000020410089
:1000900000C84200401C4620BCBE4CCA1B0E5AAED3
:1000A000C59D7444616E67206B686F6920646F6ED4
:1000B000672E2E2E00496F542050726F6A6563744C
:1000C000203230323500536D61727420506C616E95
:1000D0007420547261636B657200532E502E522E41
:1000E0004F2E552E542076322E31005350524F55FC
:1000F000545F52454144592C532E502E522E4F2EB0
:10010000552E542076322E312053616E2073616E4D
:1001100067004552522C4C454E485F4C41004552B9
:10012000522C44414E475F4155544F5F4B484F4E10
:10013000475F4E48414E5F434D440041434B2C00C6
:100140004552522C4C454E485F4C41004552522C72
:10015000424F4D5F42495F4B484F412C4E554F43F4
:100160005F4845540041434B2C41495F545556412B
:100170004E0041434B2C5345545F4C494748542C47
:10018000002C0041434B2C5345545F48554D492C9E
:10019000002C0041434B2C5345545F534F494C2C8A
:1001A000002C0041434B2C5345545F54454D502C7B
:1001B000004D414E55414C004155544F0041434B79
:1001C0002C5345545F4D4F44452C007461005441FD
:1001D00000202020202020202000686100484100CD
:1001E000646E00444E00737500535500626D00420A
:1001F0004D007174005154004D414E552000415541
:10020000544F20003E3E3E204355412042554F4E24
:1002100047204D4F21202020003E3E3E20424F4EA1
:10022000204E554F432043414E2120202000424F75
:100230004E2043414E2120435541204D4F21202047
:1002400020200025202000253E00444154204E4718
:1002500041503A002520202000253C0044415420F4
:100260004B484F3A0025202000253C0051554120A5
:100270004B484F3A0025202000253E005155412093
:10028000414D3A0025202000253E00444154204E97
:100290004741503A002520202000253C004441548D
:1002A000204B484F3A0025202000253C0051554165
:1002B000204B484F3A0025202000253E0051554153
:1002C00020414D3A0043202020202000433C004C98
:1002D000414E483A0043202020202000433E004E5B
:1002E0004F4E473A00202020202020202020202090
:1002F000202020202020202020002020202020201E
:10030000202020202020202020202020202000210C
:10031000212043414E482042414F20434159202152
:1003200021202000204355413A44470020435541B5
:100330003A4D4F007461005441006861004841002B
:10034000646E00444E00737500535500626D0042A8
:100350004D007174005154004D414E5520004155DF
:10036000544F2000252020002520204E756F633A31
:10037000004461743A0025202020202020200043E2
:100380002020483A00543A003D3D3D20532E502E47
:10039000522E4F2E552E54203D3D3D004D414E5581
:1003A000414C004155544F002C002C002C002C00D7
:1003B0002C002C002C002C002C002C002C002C00DD
:1003C0002C002C002C002C002C002C002C00444174
:1003D00054412C00414C4552542C4355415F4D4FE4
:1003E00000414C4552542C4E554F435F43414E0003
:1003F00000000000240027002A0000000000250063
:1004000028002B0000000008000201000003040780
:100410000000000000000000000000002300260093
:100420002900040404040404040402020202020277
:1004300003030303030301020408102040800102A8
:1004400004081020010204081020660D11241FBEAC
:10045000CFEFD8E0DEBFCDBF11E0A0E0B1E0E8E72C
:10046000F1E402C005900D92A63EB107D9F723E052
:10047000A6EEB1E001C01D92A13CB207E1F712E087
:10048000C6E2D2E004C02197FE010E94891EC53257
:10049000D107C9F70E94D30D0C94BA200C94000028
:1004A000CF92DF92EF92FF92CF93DF93B091A303AD
:1004B000A0E08111AB2F8091A40390E0880F991FD9
:1004C000AC01485E5B4FC090A903D090AA03E090B6
:1004D000AB03F090AC0330E020E0FA01C591D49179
:1004E000E881B90190E080E0EB23EA130AC02F5FB6
:1004F0003F4F6C157D058E059F0578F36FEF7FEFFD
:10050000CB01DF91CF91FF90EF90DF90CF900895D6
:10051000833081F028F4813099F08230A9F0089579
:100520008730A9F08830C9F08430B1F48091800020
:100530008F7D03C0809180008F7780938000089525
:1005400084B58F7784BD089584B58F7DFBCF80916E
:10055000B0008F778093B00008958091B0008F7DB8
:10056000F9CF1F93CF93DF93282F30E0F901EC5F91
:10057000FB4F8491F901EA5CFB4FD491F901EE5DE8
:10058000FB4FC491CC23A9F0162F81110E94880241
:10059000EC2FF0E0EE0FFF1FE650FC4FA591B49159
:1005A0008FB7F894EC91111108C0D095DE23DC933D
:1005B0008FBFDF91CF911F910895DE2BF8CFCF939E
:1005C000DF9390E0FC01EA5CFB4F24918E5D9B4F32
:1005D000FC0184918823D1F090E0880F991FFC01E1
:1005E000E051FC4FA591B491FC01E650FC4FC59140
:1005F000D491623071F49FB7F8943C91822F80952A
:1006000083238C93E8812E2B28839FBFDF91CF918A
:1006100008958FB7F894EC912E2B2C938FBFF6CFC3
:100620008E50806480937C0080917A0080648093F7
:100630007A0080917A0086FDFCCF809178009091BD
:10064000790008953FB7F8948091EE029091EF02FF
:10065000A091F002B091F10226B5A89B05C02F3FF2
:1006600019F00196A11DB11D3FBFBA2FA92F982FD8
:100670008827BC01CD01620F711D811D911D42E0D3
:10068000660F771F881F991F4A95D1F708958F929B
:100690009F92AF92BF92CF92DF92EF92FF924B0167
:1006A0005C010E9422036B017C010E9422036C19F1
:1006B0007D098E099F09683E734081059105A8F365
:1006C00021E0821A9108A108B10888EEC80E83E0E3
:1006D000D81EE11CF11C81149104A104B10429F776
:1006E000FF90EF90DF90CF90BF90AF909F908F9052
:1006F00008952FB7F8946091EA027091EB0280910F
:10070000EC029091ED022FBF0895CF92DF92EF920D
:10071000FF920F931F93CF93DF93CDB7DEB7C054F3
:10072000D1400FB6F894DEBF0FBECDBF0E94790353
:100730000091A5031091A6032091A7033091A8036F
:100740006B017C01C01AD10AE20AF30A9701860103
:10075000003D17402105310590F48091AD03C05C48
:10076000DE4F0FB6F894DEBF0FBECDBFDF91CF9145
:100770001F910F91FF90EF90DF90CF9008956093BD
:10078000A5037093A6038093A7039093A8031092E8
:10079000A00310929F0310929E0310929D0310924B
:1007A0009C0362E08091A1030E94DF0261E070E09F
:1007B00080E090E00E94470361E08091A1030E94E5
:1007C000DF0260E08091A1030E94B1028091A20348
:1007D0008551823020F58BE291E10197F1F762E0DB
:1007E0008091A1030E94DF028091AE0390E08230ED
:1007F000910538F0880F991F880F991F0597019769
:10080000F1F7F89480E00E9450026F3F7F4F8F4FC6
:100810009F4F61F41092AD03789480E0A0CF64E123
:1008200070E080E090E00E944703D9CF81E00E9411
:1008300050026F3F7F4F8F4F9F4F61F38E010F5FCD
:100840001F4F6E012FEBC21A2EEFD20A780180E003
:100850000E945002F701608371838283938381E059
:100860000E945002F7016483758386839783F8E0C2
:10087000EF0EF11CEC14FD0451F7789430E020E009
:10088000F801C080D180E280F38044815581668187
:100890007781FFEFCF16DF06EF06FF0631F04F3FFF
:1008A0008FEF58076807780719F41092AD03B5CF9A
:1008B000F90183E0F595E7958A95E1F7E456FC4F59
:1008C0008081880FC416D506E606F70610F18083EE
:1008D0002F5F3F4F085F1F4F2832310589F6409147
:1008E000A00320919C0380919D03280F3327331F81
:1008F00080919E03280F311D80919F03820F932FBB
:10090000911D99274817190681F681E08093AD0360
:1009100026CF8160DCCF08950895EF92FF920F9368
:100920001F93CF93DF938C017B01D0E0C0E0F701F0
:10093000EC0FFD1F6491662361F0D801ED91FC91ED
:100940000190F081E02DC8010995892B11F02196C5
:10095000EECFCE01DF91CF911F910F91FF90EF90DD
:100960000895AF92BF92CF92DF92EF92FF920F93D2
:100970001F93CF93DF936C017B018B01040F151F35
:10098000EB015E01AE18BF08C017D10759F069919D
:10099000D601ED91FC910190F081E02DC601099501
:1009A000892B79F7C501DF91CF911F910F91FF90AE
:1009B000EF90DF90CF90BF90AF900895FC01538DE2
:1009C000448D252F30E0842F90E0821B930B541729
:1009D00010F0CF96089501970895FC01918D828DB6
:1009E000981761F0A28DAE0FBF2FB11D5D968C914F
:1009F000928D9F5F9F73928F90E008958FEF9FEF8E
:100A000008950F931F930E9479036093FA027093E5
:100A1000FB028093FC029093FD0282EF92E00E9421
:100A2000ED0497FF1DC00E9479030091FA02109116
:100A3000FB022091FC023091FD02601B710B820BC6
:100A4000930B0091F6021091F7022091F802309179
:100A5000F9026017710782079307F8F28FEF9FEF93
:100A60001F910F910895FC01918D828D981731F09F
:100A7000828DE80FF11D858D90E008958FEF9FEF37
:100A80000895FC01918D228D892F90E0805C9F4F0D
:100A9000821B91098F739927089582EF92E00E943B
:100AA000410521E0892B09F420E0822F089580E0A0
:100AB00090E0892B29F00E944D0581110C940000D3
:100AC0000895FC01A48DA80FB92FB11DA35ABF4FE3
:100AD0002C91848D90E001968F739927848FA6893D
:100AE000B7892C93A089B1898C91837080648C9391
:100AF000938D848D981306C00288F389E02D808140
:100B00008F7D80830895EF92FF920F931F93CF9371
:100B1000DF93EC0181E0888F9B8D8C8D98131AC038
:100B2000E889F989808185FF15C09FB7F894EE891F
:100B3000FF896083E889F98980818370806480837C
:100B40009FBF81E090E0DF91CF911F910F91FF90C7
:100B5000EF900895F62E0B8D10E00F5F1F4F0F736F
:100B60001127E02E8C8D8E110CC00FB607FCFACF2A
:100B7000E889F989808185FFF5CFCE010E94610562
:100B8000F1CFEB8DEC0FFD2FF11DE35AFF4FF082FB
:100B90009FB7F8940B8FEA89FB8980818062CFCF61
:100BA000CF93DF93EC01888D8823B9F0AA89BB89A4
:100BB000E889F9898C9185FD03C0808186FD0DC08F
:100BC0000FB607FCF7CF8C9185FFF2CF808185FFB0
:100BD000EDCFCE010E946105E9CFDF91CF9108955D
:100BE000089520912702260F3327331F2132310524
:100BF000ECF420917002FC0190E080E0243069F078
:100C000082E00895A09127022191AC01495F5D4FD8
:100C1000A40FB52FB11D2C930196861798F38091E0
:100C20002702680F6093270280E0089581E008950D
:100C30001092700281E080936F0210924A0261E08C
:100C400082E10E94B10261E083E10E94B102E9EB1E
:100C5000F0E080818E7F808380818D7F808388E437
:100C60008093B80085E48093BC000895CF93DF9310
:100C700091E0909306028823B9F0C091B800D0911A
:100C8000BA008091BC008A7B8093BC0060E082E166
:100C90000E94B10260E083E10E94B1020E94180646
:100CA000D093BA00C093B800DF91CF910895089512
:100CB000E0919F0280919E02E81730F4F0E0EA5143
:100CC000FE4F808190E008958FEF9FEF08959091FF
:100CD0009F0280919E022FEF3FEF981748F4E92F73
:100CE000F0E0EA51FE4F208130E09F5F90939F0239
:100CF000C901089580919E0290919F02891B990BD2
:100D00000895CF92DF92EF92FF920F931F93CF93AC
:100D1000DF937C01CB018A0120917602222389F0A6
:100D2000EB016B01C40ED51ECC15DD0569F0699190
:100D3000D701ED91FC910190F081E02DC70109955B
:100D4000F3CF642F0E94F105C801DF91CF911F916D
:100D50000F91FF90EF90DF90CF900895CF93DF93A6
:100D60001F92CDB7DEB76983209176022223F9F076
:100D700020919C02203258F021E030E0FC013383C6
:100D8000228390E080E00F90DF91CF9108958091D1
:100D90009D02E82FF0E0E958FD4F998190838F5F25
:100DA00080939D0280939C0281E090E0ECCF61E013
:100DB000CE0101960E94F105F7CFCF92DF92EF921C
:100DC000FF920F931F93CF93DF93FC01C48121E027
:100DD00020937602C093970210929D0210929C027B
:100DE0008385682B8FE893E00E94AE06D0919C0229
:100DF000D13208F092C00E9422036B017C018091E5
:100E00007002811165C082E08093700281E080935E
:100E10006F028FEF80936E0210926D02D0936C027E
:100E2000A7E7B2E0ECE4F2E080E0D81385C01092CE
:100E30004B0280914B02CC0FC82BC0934B02809188
:100E40004A02813009F07CC010924A020E942203BB
:100E50006B017C0180914B028093BB0080917202F8
:100E600090917302A0917402B0917502892B8A2B24
:100E70008B2B99F00E942203009172021091730251
:100E800020917402309175026C197D098E099F09B9
:100E90000617170728073907E0F18091BC0083FD8A
:100EA000D9CF85EC8093BC000E9422036B017C01AA
:100EB00080917002823009F445C080916E028F3FAC
:100EC00061F180916E02803241F180916E0225C005
:100ED0008091720290917302A0917402B091750298
:100EE000892B8A2B8B2B09F48ACF0E942203009135
:100EF00072021091730220917402309175026C1984
:100F00007D098E099F09061717072807390708F07A
:100F100076CF809171020E94360610929D02109247
:100F20009C0210927602DF91CF911F910F91FF905A
:100F3000EF90DF90CF9008959D9191938F5F75CF43
:100F400085EEB0CF8091720290917302A0917402ED
:100F5000B0917502892B8A2B8B2B09F4A9CF0E94A3
:100F60002203009172021091730220917402309159
:100F700075026C197D098E099F0906171707280746
:100F8000390708F095CFC5CF90E080E008956091D3
:100F9000CF0285E00E94B1026091E70286E00E94E4
:100FA000B1026091CE0287E00E94B1026091CD0251
:100FB00088E00E94B1026091CC028AE00E94B102F6
:100FC0006091CB0289E00C94B1021092CE02109293
:100FD000E7021092CF021092CB021092CC02109234
:100FE000CD020C94C7070F931F93CF938C01C62F8C
:100FF0000E94DD066C2F6460C8010E94DD066C2F24
:101000006B7FC8010E94DD0683EC90E00197F1F749
:10101000CF911F910F9108950F931F93CF93DF935B
:101020008C01D62FC42F607F642B0E94F30780E1D0
:10103000D89FB00111246C2BC801DF91CF911F9173
:101040000F910C94F307CF93DF93CDB7DEB72897BA
:101050000FB6F894DEBF0FBECDBF98E0E5E2F1E039
:10106000DE01119601900D929A95E1F79091B703E8
:10107000961710F46FEF690F262F30E0220F331F01
:1010800041E050E04C0F5D1F240F351FF9016081D6
:10109000680F606840E08FEA93E028960FB6F894F6
:1010A000DEBF0FBECDBFDF91CF910C940C0840E0A6
:1010B00061E08FEA93E00E940C088BE39FE10197C7
:1010C000F1F7089541E00E940C0881E090E0089556
:1010D000CF93DF93FC01248135816217730788F475
:1010E0009B01C081D1816CE270E0CE01820F931F21
:1010F0000E948220009729F08C1B9D0BDF91CF91DD
:1011000008958FEF9FEFFACFFB0101900020E9F7E0
:101110003197AF01461B570BDC01ED91FC9102802A
:10112000F381E02D0994CF93DF93BC0182EF92E02D
:101130000E948D04EC016DE571E082EF92E00E9467
:1011400084088C0F9D1FDF91CF9108958F929F92FD
:10115000AF92BF92EF92FF920F931F93CF93DF93C3
:10116000CDB7DEB7A1970FB6F894DEBF0FBECDBFE7
:101170007C01FA01CB0119A2223008F42AE08E0189
:101180000F5D1F4F822E912CB12CA12CBF01A50108
:1011900094010E94321DF901CA016A300CF5605DAC
:1011A000D8016E938D01232B242B252B79F790E00A
:1011B00080E0109721F0BD01C7010E948408A1962C
:1011C0000FB6F894DEBF0FBECDBFDF91CF911F9158
:1011D0000F91FF90EF90BF90AF909F908F900895E8
:1011E000695CDECFCF92DF92EF92FF920F931F9355
:1011F000CF93DF936B01770FEE08FF08F7FE1FC058
:10120000EC01E881F9810190F081E02D6DE2099512
:101210008C0144275527BA014C195D096E097F09D5
:101220002AE0CE010E94A608800F911FDF91CF9186
:101230001F910F91FF90EF90DF90CF9008952AE0DB
:10124000B701A601DF91CF911F910F91FF90EF9011
:10125000DF90CF900C94A6084F925F926F927F928E
:101260008F929F92AF92BF92CF92DF92EF92FF92B6
:101270000F931F93CF936B017C01742EAC019B01E4
:101280000E947D1E60E671E0811126C04601570173
:10129000E894B7F82FEF3FEF4FE75FE7C501B401E0
:1012A0000E947D1E81110CC02FEF3FEF4FE75FE7DB
:1012B000C501B4010E94AA1B64E671E0181664F02F
:1012C0002FEF3FEF4FE75FE4C701B6010E94781EA2
:1012D0001816ACF468E671E082EF92E0CF911F91AE
:1012E0000F91FF90EF90DF90CF90BF90AF909F90C5
:1012F0008F907F906F905F904F900C9484082FEFA9
:101300003FEF4FE75FECC701B6010E94AA1B87FDC4
:10131000E1CF20E030E0A901C701B6010E94AA1B7D
:1013200010E000E087FF0AC06DE282EF92E00E94C9
:1013300083058C01F7FAF094F7F8F094C0E060E0D0
:1013400070E080E09FE37C1641F020E030E040E276
:1013500051E40E94D01DCF5FF6CFA70196010E94F5
:10136000641D2B013C010E94491E4B015C012AE0D7
:10137000BC01A40182EF92E00E94A6087C01E00E6D
:10138000F11ECC23D1F1C501B4010E94AF1B9B011A
:10139000AC01C301B2010E94631D4B015C016EE20E
:1013A00082EF92E00E948305E80EF91EC15028F1F9
:1013B00020E030E040E251E4C501B4010E94101C7D
:1013C0002B013C010E94491E4B01B12CA12C2AE0AB
:1013D000B501A40182EF92E00E94A608E80EF91E72
:1013E000C501B4010E94AF1B9B01AC01C301B20156
:1013F0000E94631D4B015C01D9CFC701CF911F91A2
:101400000F91FF90EF90DF90CF90BF90AF909F90A3
:101410008F907F906F905F904F900895CF93DF9360
:10142000FC01C081D181209761F08991882349F026
:10143000082E000C990B0E947120FE0131978083C9
:10144000F4CFDF91CF910895FC01808191810097C5
:1014500011F00C942B1F0895FC0124813581232B5E
:1014600039F421E0FB018081882349F020E007C0A6
:10147000808191810E948D2021E0892BB9F7822FF4
:1014800008950F931F93CF93DF93EC018881998187
:10149000009759F02A813B812617370730F081E009
:1014A000DF91CF911F910F9108958B016F5F7F4F57
:1014B0000E94B41F009759F0998388831B830A8385
:1014C0002C813D81232B59F7FC011082E8CF80E06D
:1014D000E7CFEF92FF920F931F93CF93DF93EC012F
:1014E0007B018A01BA010E94410A28813981811158
:1014F00014C02115310519F0C9010E942B1F198252
:1015000018821D821C821B821A82CE01DF91CF912C
:101510001F910F91FF90EF9008951D830C83B701E9
:10152000C9010E949620F1CFFB0101900020E9F74C
:101530003197AF01461B570B0C94690AAF92BF92CB
:10154000CF92DF92EF92FF920F931F93CF93DF938F
:10155000EC016B015A0179012417350720F48B2D1A
:101560005901E42EF82E198218821B821A821D82DC
:101570001C826FE571E0CE010E94940AD601149698
:101580000D911C91A016B10628F5E016F10608F49D
:101590008701D601ED91FC911197E00FF11FF080CA
:1015A00010826D917C916A0D7B1D61157105F1F0C2
:1015B000FB0101900020E9F73197AF01461B570B63
:1015C000CE010E94690AF60180819181080F191FDE
:1015D000D801FC92CE01DF91CF911F910F91FF9026
:1015E000EF90DF90CF90BF90AF9008958881998160
:1015F000009711F00E942B1F198218821D821C82F5
:101600001B821A82E0CFFB01DC0111961C921E9214
:1016100013961C921E92129715961C921E92149766
:101620008617970749F0608171816115710521F076
:10163000448155810C94690A089585ED8093BC001E
:101640008091720290917302A0917402B091750220
:101650000796A11DB11D23E0B695A795979587958F
:101660002A95D1F72091BC0024FD03C0109270028E
:1016700008954091720250917302609174027091CA
:101680007502452B462B472B69F30097A105B10541
:1016900041F02AE22A95F1F700C00197A109B109AA
:1016A000E1CF809171020C943606CF92DF92EF92D7
:1016B000FF920F931F93CF93DF9300D000D000D001
:1016C000CDB7DEB78C017B0170E060E00E94680856
:1016D000E114F10451F0C12CD12C76018F3F980711
:1016E00019F17C01EFEFEE1AFE0AB701C8010E9462
:1016F00068089C01019619F4F80124813581A7013D
:10170000B801CE0101960E949E0A89819A81C12C5E
:10171000D12C7601009721F00E94351A6B017C01D3
:10172000CE0101960E94240AC701B60126960FB683
:10173000F894DEBF0FBECDBFDF91CF911F910F9107
:10174000FF90EF90DF90CF9008951F920F920FB609
:101750000F9211242F933F938F939F93AF93BF9337
:101760008091EA029091EB02A091EC02B091ED021F
:101770003091E90223E0230F2D3758F50196A11D82
:10178000B11D2093E9028093EA029093EB02A093AB
:10179000EC02B093ED028091EE029091EF02A091E5
:1017A000F002B091F1020196A11DB11D8093EE02ED
:1017B0009093EF02A093F002B093F102BF91AF912A
:1017C0009F918F913F912F910F900FBE0F901F907F
:1017D000189526E8230F0296A11DB11DD2CF1F92A6
:1017E0000F920FB60F9211242F933F934F935F9355
:1017F0006F937F938F939F93AF93BF93EF93FF93D9
:1018000082EF92E00E946105FF91EF91BF91AF914D
:101810009F918F917F916F915F914F913F912F9108
:101820000F900FBE0F901F9018951F920F920FB63A
:101830000F9211242F938F939F93EF93FF93E09137
:101840000203F09103038081E0910803F091090302
:1018500082FD1BC0908180910B038F5F8F7320915D
:101860000C03821741F0E0910B03F0E0EE50FD4FC6
:10187000958F80930B03FF91EF919F918F912F9103
:101880000F900FBE0F901F9018958081F4CF1F927C
:101890000F920FB60F9211242F933F934F935F93A4
:1018A0006F937F938F939F93AF93BF93EF93FF9328
:1018B0008091B900887F803609F44AC0F0F58832FB
:1018C00009F4A7C018F5803109F49BC0B8F4882347
:1018D00009F4F9C0883009F494C0FF91EF91BF91E9
:1018E000AF919F918F917F916F915F914F913F91B8
:1018F0002F910F900FBE0F901F901895883109F40B
:1019000088C0803251F780936E0214C0803409F48D
:101910009DC040F48033B9F38833F9F680936E02AA
:1019200085ECB0C0803509F485C0883509F496C0CF
:10193000883499F60E941D0BD0CF883909F48CC0E9
:1019400038F5883729F050F4883611F0803729F6B9
:1019500083E0809370021092490257C0883809F4DE
:101960007BC0803919F0803809F0B7CF80914902E7
:10197000803208F071C0E091490281E08E0F8093BF
:1019800049028091BB00F0E0E75DFD4F80833DC0E0
:10199000803B39F0E0F4803A09F479C0883A09F0E4
:1019A0009CCF84E08093700210922802109227024C
:1019B000E0919A02F0919B02099580912702811192
:1019C0000FC081E0809327021092070209C0803C7B
:1019D00009F4A6CF883C09F4A3CF883B09F07DCF5A
:1019E000E091280281E08E0F80932802F0E0E95F09
:1019F000FD4F80818093BB00909128028091270247
:101A000029C080914B028093BB0085EC8093BC0081
:101A100064CF90916D0280916C02981758F5E09117
:101A20006D0281E08E0F80936D02F0E0E45BFD4F6C
:101A30008081E9CFE0916D0281E08E0F80936D028D
:101A40008091BB00F0E0E45BFD4F808390916D02DC
:101A500080916C029817C8F285E8D8CFE0916D02AA
:101A600081E08E0F80936D028091BB00F0E0E45B1B
:101A7000FD4F808380916F0281115CCF81E0809364
:101A80004A0284EA8093BC001092700226CF85EC53
:101A90008093BC001092700280914902803230F431
:101AA000E0914902F0E0E75DFD4F1082609149024C
:101AB00070E0E0919802F091990289E292E0099534
:101AC000109249020ACF10926E0234CFE2EFF2E098
:101AD0001382128288EE93E0A0E0B0E084839583C5
:101AE000A683B78321E331E03183208325EC30E006
:101AF0003587248724EC30E03787268720EC30E0D8
:101B0000318B208B21EC30E0338B228B22EC30E0C8
:101B1000358B248B26EC30E0378B268B118E128E82
:101B2000138E148EEFE8F3E0138212828483958380
:101B3000A683B78383E491E091838083EFEAF3E0A7
:101B40001382128285E591E0918380838FE3848301
:101B500084E1818784E082871386ACE9B3E015963F
:101B60008C9315978BE016968C931697EAE3F4E026
:101B7000E4911796EC931797E6E2F4E0E491189657
:101B8000EC93189740E85EE360E070E01D964D939B
:101B90005D936D937C93509780911E0191E089270E
:101BA00080939B030895CF93DF93CDB7DEB76897FB
:101BB0000FB6F894DEBF0FBECDBF789484B58260B7
:101BC00084BD84B5816084BD85B5826085BD85B5E1
:101BD000816085BD80916E00816080936E0010925F
:101BE00081008091810082608093810080918100DA
:101BF000816080938100809180008160809380006B
:101C00008091B10084608093B1008091B0008160C8
:101C10008093B00080917A00846080937A008091F4
:101C20007A00826080937A0080917A00816080934C
:101C30007A0080917A00806880937A001092C100C7
:101C4000E0910203F091030382E08083E091FE02C1
:101C5000F091FF021082E0910003F09101038FECFC
:101C6000808310920A03E0910603F091070386E057
:101C70008083E0910403F09105038081806180837B
:101C8000E0910403F0910503808188608083E091F6
:101C90000403F0910503808180688083E091040350
:101CA000F091050380818F7D808362E08091A103A4
:101CB0000E94DF020E947903605D774081099109EB
:101CC0006093A5037093A6038093A7039093A80342
:101CD00087E38093AE0310929F0210929E021092AF
:101CE0009D0210929C020E9418068BE894E090934B
:101CF0009B0280939A028CE894E0909399028093DF
:101D000098021092B4038091B903823018F098E0E1
:101D10009093B4038093B70362E370E080E090E0B7
:101D20000E9447036091BA038FEA93E00E94DD06A8
:101D300068EE73E080E090E00E94470360E38FEA82
:101D400093E00E94F3070BE416E4C8010197F1F752
:101D500060E38FEA93E00E94F307C8010197F1F76F
:101D600060E38FEA93E00E94F30783E592E0019736
:101D7000F1F760E28FEA93E00E94F3076091B40309
:101D8000606240E08FEA93E00E940C0884E0809358
:101D9000B50340E06CE08FEA93E00E940C080E94DB
:101DA000570882E08093B60340E066E08FEA93E054
:101DB0000E940C0840E062E08FEA93E00E940C0869
:101DC0008BE39FE10197F1F788E08093BA0360E02D
:101DD0008FEA93E00E94DD0662E082E00E94DF026B
:101DE00061E085E00E94DF0261E086E00E94DF02A0
:101DF00061E087E00E94DF0261E088E00E94DF028C
:101E000061E089E00E94DF0261E08AE00E94DF0277
:101E10000E94E5070E94570860E083E00E942308C3
:101E20006AED70E08FEA93E00E948D0461E080E04B
:101E30000E94230866EC70E08FEA93E00E948D0414
:101E400062E082E00E94230865EB70E08FEA93E095
:101E50000E948D0463E084E00E94230863EA70E03E
:101E60008FEA93E00E948D0460ED77E080E090E0DF
:101E70000E9447030E9457088BEE90E00E9493084F
:101E800044244A9453E0552E612C712C0E94850302
:101E9000882341F08091A2038C3009F464C048F497
:101EA0008B3001F1C12CD12C30ECE32E3FE7F32E27
:101EB00043C085518230B0F710919E03612F70E0CE
:101EC000762F662766277F7780919F03682B90E0A7
:101ED00080E00E94AF1B2DEC3CEC4CEC5DE30E94DB
:101EE000101C5DC060919E0370E090E080E00E9455
:101EF000AF1B6B017C0110919F0317FF0AC0AC015F
:101F00009B0160E070E080E89FEB0E94631D6B0125
:101F10007C011F70612F70E090E080E00E94B11B97
:101F20002DEC3CEC4CEC5DE30E94101CA7019601EB
:101F30000E94641D6B017C010E948503882311F4BB
:101F40000C94F1198091A2038B3030F08D3080F128
:101F50008551823008F4F5C0812C912C20ECA22E02
:101F60002FE7B22E43C010919E03612F70E090E0E6
:101F700080E00E94AF1B6B017C0160919F036F703A
:101F800070E090E080E00E94B11B2DEC3CEC4CEC4A
:101F90005DE30E94101CA70196010E94641D6B0165
:101FA0007C0117FFC9CFF7FAF094F7F8F094C4CF8B
:101FB00060919D0370E090E080E00E94B11B2DECE9
:101FC0003CEC4CEC5DE30E94101C4B015C01609109
:101FD0009C0370E090E080E00E94B11B9B01AC018B
:101FE000C501B4010E94641D4B015C01A70196016B
:101FF000C701B6010E947D1E882311F40C94001ABB
:10200000A5019401C501B4010E947D1E811108C083
:102010008092D6029092D702A092D802B092D902B2
:102020008FE00E94100324E630E0DC010E94821E53
:10203000A30192010E94D11C3093D5022093D402B7
:1020400080E10E94100324E630E0DC010E94821E41
:10205000A30192010E94D11C89013093D3022093E5
:10206000D2028EE00E94100324E630E0DC010E94E0
:10207000821EA30192010E94D11C3093D1022093B1
:10208000D002E6E0F4E08491E8E3F4E0F490E4E2E6
:10209000F4E0E490EE2009F466C081110E94880209
:1020A000EE2DF0E0EE0FFF1FE85EFB4FA591B4911F
:1020B0008C91F82231E020E009F430E0832F922F58
:1020C000F1E08F2781708093DE0281E00A301105F4
:1020D0000CF080E08093E80282EF92E00E944105DC
:1020E000892B09F4AEC01C8A1B8A1E8A1D8A188E91
:1020F0001F8A6FE571E0CE0143960E94940A0E9408
:1021000001050F89188D97FD31C08A30910571F155
:1021100089831A820F5F1F4FB801CE0143960E9438
:10212000410A882361F32B893C898F89988DBE01F0
:102130006F5F7F4F820F931F0E949620188F0F8B27
:10214000DECF60919C0370919D03762767277627E9
:1021500090E080E00E94AF1B2DEC3CEC4CEC5DE38A
:102160000E94101C41CF90E080E0AACFCB88DC8891
:10217000C114D10429F076010115110509F086C0BA
:102180008F89988D892B09F458C070E060E0CE01EA
:1021900043960E9468088C018F3F980709F0ACC0F5
:1021A000BE016D5E7F4FCE010D960E94030B188617
:1021B0001F821A8619861C861B866FE571E0CE0188
:1021C00007960E94940ACE010D960E940E0A6CE6B4
:1021D00071E0CE010D960E942C0A882309F4A6C056
:1021E000CE0107960E940E0A65E771E0CE010796C0
:1021F0000E942C0A91E0811101C090E090931E0191
:10220000811102C00E94E5076DEB71E082EF92E060
:102210000E948D0480911E01882309F484C088EBFC
:1022200091E00E9493080E945708CE0107960E94F1
:10223000240ACE010D960E94240ACE0143960E94E4
:10224000240A80911E010091E802882309F4EAC261
:10225000C090DA02D090DB02E090DC02F090DD0268
:1022600020911601309117014091180150911901E8
:10227000C701B6010E94781E18160CF075C281E0E5
:102280008093CF021092CE0282C2750157012FEFC8
:10229000A21AB20AF7018081082E000C990B0E9445
:1022A000891B892B91F7015011090C0D1D1DF80197
:1022B0008081082E000C990B0E94891B892B31F01C
:1022C0000E151F0518F001501109F1CF0F5F1F4FB8
:1022D000A8014E195F09588F4F8BCE14DF0420F4EC
:1022E000B701C6010E947920EB89FC898F89988DFE
:1022F000E80FF91F108244CF9C0150E040E0BE017E
:102300006D5E7F4FCE010D960E949E0A2F89388DFB
:10231000A8014F5F5F4FBE016D5E7F4FCE010796F4
:102320000E949E0A50CF81EB91E07BCF6AE771E07B
:10233000CE010D960E942C0A882309F461C0BE01CB
:10234000695F7F4FCE0101960E94030B70E060E051
:10235000CE0101960E94550B4B015C01CE01019606
:102360000E94240ABE01695F7F4FCE0101960E9440
:10237000030B61E070E0CE0101960E94550B6B01EA
:102380007C01CE0101960E94240AA7019601C50195
:10239000B4010E94AA1B87FF10C080921A0190927C
:1023A0001B01A0921C01B0921D01C0921601D09297
:1023B0001701E0921801F092190163EA71E082EFCF
:1023C00092E00E948D0460911A0170911B0180912E
:1023D0001C0190911D0142E00E942C0961EA71E00C
:1023E00082EF92E00E948D046091160170911701B6
:1023F000809118019091190142E00E942C0958C067
:1024000063E871E0CE010D960E942C0A882309F43E
:1024100056C0BE01695F7F4FCE0101960E94030B3B
:1024200070E060E0CE0101960E94550B0E94421EB2
:102430004B01CE0101960E94240ABE01695F7F4FC5
:10244000CE0101960E94030B61E070E0CE0101967F
:102450000E94550B0E94421E6B01CE0101960E9404
:10246000240A8C149D0444F490920D0180920C0176
:10247000D0920B01C0920A0163E971E082EF92E011
:102480000E948D0460910C0170910D0182EF92E029
:102490000E94F20861E971E082EF92E00E948D04EF
:1024A00060910A0170910B0182EF92E00E94F208A4
:1024B0006DE571E082EF92E00E948408B6CE6CE890
:1024C00071E0CE010D960E942C0A882309F45EC0AB
:1024D000BE01695F7F4FCE0101960E94030B70E041
:1024E00060E0CE0101960E94550B4B015C01CE01CC
:1024F00001960E94240ABE01695F7F4FCE010196BA
:102500000E94030B61E070E0CE0101960E94550B22
:102510006B017C01CE0101960E94240AA70196015D
:10252000C501B4010E94AA1B87FF10C0809212014E
:1025300090921301A0921401B0921501C0920E0165
:10254000D0920F01E0921001F092110163E871E066
:1025500082EF92E00E948D0460911201709113014C
:10256000809114019091150142E00E942C0961E8CC
:1025700071E082EF92E00E948D0460910E017091F3
:102580000F01809110019091110136CF65E971E042
:10259000CE010D960E942C0A882341F1BE01695F8D
:1025A0007F4FCE0101960E94030B70E060E0CE01E8
:1025B00001960E94550B0E94421E6B01CE010196AE
:1025C0000E94240AC60101978336910520F4D09217
:1025D0000901C092080162E771E082EF92E00E9477
:1025E0008D0460910801709109015ECF6FE971E07F
:1025F000CE010D960E942C0A182F8823E9F00B8536
:102600001C850115110539F41092A00285E691E0B0
:102610000E9493080ACE0932110510F009E210E079
:102620006F817885A80180EA92E00E94AB20F801D2
:10263000E056FD4F1082EACF80911E01811167C0E4
:1026400068EA71E0CE0107960E942C0A082F11E07B
:10265000811101C010E06AEA71E0CE010D960E947E
:102660002C0A882389F01093CF026BE371E082EF8C
:1026700092E00E948D0449895A896D857E8582EF9A
:1026800092E00E94B10414CF63EB71E0CE010D968D
:102690000E942C0A882319F01093CE02E6CF6CEB2F
:1026A00071E0CE010D960E942C0A882319F0109338
:1026B000CD02DBCF64EC71E0CE010D960E942C0AB6
:1026C000882319F01093CC02D0CF6EEC71E0CE01CC
:1026D0000D960E942C0A882319F01093CB02C5CFC7
:1026E00069ED71E0CE010D960E942C0A882361F0FD
:1026F000002339F08091E802882319F08CE491E0FE
:1027000087CF1093E702B1CF80E491E081CF1A82A6
:1027100019821C821B821E821D8261EE71E0CE0135
:1027200001960E94940A4D815E8189899A89841755
:10273000950778F08D859E85009759F069817A819B
:102740006115710531F00E949D2011E0892B09F07F
:1027500010E0CE0101960E94240A8EE191E0111151
:1027600057CF82E191E054CF20911A0130911B01A3
:1027700040911C0150911D01C701B6010E94AA1B86
:1027800087FF29C381E08093CE021092CF02C090D0
:10279000D602D090D702E090D802F090D90211E092
:1027A00020910E0130910F014091100150911101C3
:1027B000C701B6010E94781E18160CF010E01093A5
:1027C000CC022091120130911301409114015091DB
:1027D0001501C701B6010E94AA1B881F8827881F00
:1027E0008093CB028091D4029091D50220910C016C
:1027F00030910D01821793070CF0F0C20111EEC267
:1028000081E08093E70281E04091D0025091D102B3
:102810002091080130910901421753070CF080E024
:102820008093CD02102F01111092E7020E94C7077A
:102830000E947903C090E302D090E402E090E502A8
:10284000F090E6026C197D098E099F09613D774081
:102850008105910508F460C1C090DA02D090DB02D6
:10286000E090DC02F090DD0220911601309117011A
:102870004091180150911901C701B6010E94781EBC
:1028800018160CF4B6C220911A0130911B01409128
:102890001C0150911D01C701B6010E94AA1B87FDB2
:1028A000A8C2C090D602D090D702E090D802F09093
:1028B000D90220910E0130910F01409110015091E9
:1028C0001101C701B6010E94781E18160CF491C2BE
:1028D0002091120130911301409114015091150182
:1028E000C701B6010E94AA1B87FD83C28091D40252
:1028F0009091D50220910C0130910D018217930720
:102900000CF477C220910A0130910B012817390786
:102910000CF46FC2011102C01091DE028091CA0254
:10292000811721F00E9457081093CA0260E080E0EE
:10293000112309F420C40E9423086FE073E08FEA9A
:1029400093E00E948D0461E080E00E9423086AEF1A
:1029500072E08FEA93E00E948D0462E080E00E94C2
:10296000230865EE72E08FEA93E00E948D0461E037
:1029700080E00E942308C090DA02D090DB02E09051
:10298000DC02F090DD022091160130911701409198
:10299000180150911901C701B6010E94781E18163E
:1029A0000CF029C26FED72E08FEA93E00E948D0473
:1029B0006091DA027091DB028091DC029091DD027D
:1029C0000E94421E8FEA93E00E94F2086CED72E0D2
:1029D0008FEA93E00E948D046091160170911701B7
:1029E00080911801909119010E94421E8FEA93E094
:1029F0000E94F20865ED72E08FEA93E00E948D0478
:102A000062E080E00E942308C090DA02D090DB02EE
:102A1000E090DC02F090DD02209116013091170168
:102A20004091180150911901C701B6010E94781E0A
:102A3000181674F020911A0130911B0140911C016D
:102A400050911D01C701B6010E94AA1B87FF45C016
:102A5000C090D602D090D702E090D802F090D90270
:102A600020910E0130910F01409110015091110100
:102A7000C701B6010E94781E18160CF0C0C26CE7A0
:102A800072E08FEA93E00E948D046091D60270910B
:102A9000D7028091D8029091D9020E94421E8FEAFB
:102AA00093E00E94F20869E772E08FEA93E00E94E7
:102AB0008D0460910E0170910F0180911001909131
:102AC00011010E94421E8FEA93E00E94F20865E71E
:102AD00072E08FEA93E00E948D0463E080E00E9440
:102AE00023089091E8028091DE02992309F4E7C25D
:102AF0006EE272E0811102C069E172E08FEA93E058
:102B00000E948D040E9479036093E3027093E402B3
:102B10008093E5029093E6020E9479030091DF0220
:102B20001091E0022091E1023091E202601B710BF2
:102B3000820B930B613D77408105910508F43EC1FE
:102B40008091E802882321F081EE93E00E949308AF
:102B50008091DE02882321F084ED93E00E949308A7
:102B60006EEC73E082EF92E00E948D046091DA02D5
:102B70007091DB028091DC029091DD0241E00E94C5
:102B80002C096CEC73E082EF92E00E948D0460915E
:102B9000D6027091D7028091D8029091D90241E07B
:102BA0000E942C096AEC73E082EF92E00E948D048F
:102BB0006091D4027091D50282EF92E00E94F208F7
:102BC00068EC73E082EF92E00E948D046091D20283
:102BD0007091D30282EF92E00E94F20866EC73E0FB
:102BE00082EF92E00E948D046091D0027091D10238
:102BF00082EF92E00E94F20864EC73E082EF92E0D0
:102C00000E948D046091DE0270E082EF92E00E94EB
:102C1000F20862EC73E082EF92E00E948D04609112
:102C2000CF0270E082EF92E00E94F20860EC73E065
:102C300082EF92E00E948D046091E70270E082EFE3
:102C400092E00E94F2086EEB73E082EF92E00E9445
:102C50008D046091CE0270E082EF92E00E94F20853
:102C60006CEB73E082EF92E00E948D046091CD02E4
:102C700070E082EF92E00E94F2086AEB73E082EF6C
:102C800092E00E948D046091CC0270E082EF92E0AD
:102C90000E94F20868EB73E082EF92E00E948D04DC
:102CA0006091CB0270E082EF92E00E94F20866EB46
:102CB00073E082EF92E00E948D0460911A0170919E
:102CC0001B0180911C0190911D0141E00E942C0983
:102CD00064EB73E082EF92E00E948D046091160134
:102CE00070911701809118019091190141E00E94A3
:102CF0002C0962EB73E082EF92E00E948D046091F8
:102D0000120170911301809114019091150141E01D
:102D10000E942C0960EB73E082EF92E00E948D0428
:102D200060910E0170910F0180911001909111013D
:102D300041E00E942C096EEA73E082EF92E00E946B
:102D40008D0460910C0170910D0182EF92E00E9460
:102D5000F2086CEA73E082EF92E00E948D046091C9
:102D60000A0170910B0182EF92E00E94F2086AEA78
:102D700073E082EF92E00E948D04609108017091EF
:102D8000090182EF92E00E94F20868EA73E082EFA4
:102D900092E00E948D0480911E01882309F41EC3D5
:102DA00083EA93E00E9493080E9479036093DF0214
:102DB0007093E0028093E1029093E20280E090E061
:102DC000892B09F463C80E944D05882309F45EC865
:102DD0000E9400005BC81092CF0254CA20910A01E1
:102DE00030910B01281739070CF00DCD1092E70236
:102DF0000ACD11E093CD20911A0130911B01409131
:102E00001C0150911D01C701B6010E94AA1B87FF3A
:102E10002BC06FEC72E08FEA93E00E948D0460910A
:102E2000DA027091DB028091DC029091DD020E9457
:102E3000421E8FEA93E00E94F2086CEC72E08FEA87
:102E400093E00E948D0460911A0170911B018091A2
:102E50001C0190911D010E94421E8FEA93E00E9486
:102E6000F20865EC72E0C8CDC090D602D090D702CF
:102E7000E090D802F090D90220910E0130910F011C
:102E80004091100150911101C701B6010E94781EB6
:102E900018165CF56DEB72E08FEA93E00E948D04EA
:102EA0006091D6027091D7028091D8029091D90298
:102EB0000E94421E8FEA93E00E94F2086AEB72E0E1
:102EC0008FEA93E00E948D0460910E0170910F01D2
:102ED00080911001909111010E94421E8FEA93E0AF
:102EE0000E94F20866EB72E087CD209112013091CA
:102EF00013014091140150911501C701B6010E94C0
:102F0000AA1B87FF2BC06DEA72E08FEA93E00E9454
:102F10008D046091D6027091D7028091D802909171
:102F2000D9020E94421E8FEA93E00E94F2086AEAE8
:102F300072E08FEA93E00E948D046091120170911B
:102F4000130180911401909115010E94421E8FEA95
:102F500093E00E94F20866EA72E04ECD8091D402BE
:102F60009091D50220910C0130910D0182179307A9
:102F7000FCF46DE972E08FEA93E00E948D046091A9
:102F8000D4027091D5028FEA93E00E94F2086AE9B8
:102F900072E08FEA93E00E948D0460910C017091C1
:102FA0000D018FEA93E00E94F20865E972E024CDFA
:102FB00020910A0130910B01281739070CF020CD20
:102FC0006BE872E08FEA93E00E948D046091D40276
:102FD0007091D5028FEA93E00E94F20868E872E0EF
:102FE0008FEA93E00E948D0460910A0170910B01B9
:102FF0008FEA93E00E94F20864E872E0FDCC209131
:103000001201309113014091140150911501C70133
:10301000B6010E94AA1B87FFFDC16CE672E08FEA31
:1030200093E00E948D046091D6027091D702809146
:10303000D8029091D9020E94421E8FEA93E00E942A
:10304000F20869E672E08FEA93E00E948D046091D5
:1030500012017091130180911401909115010E9449
:10306000421E8FEA93E00E94F20865E672E031CDDD
:1030700020910A0130910B01281739070CF02DCD52
:103080006AE472E08FEA93E00E948D046091D402BA
:103090007091D5028FEA93E00E94F20867E472E033
:1030A0008FEA93E00E948D0460910A0170910B01F8
:1030B0008FEA93E00E94F20863E472E00ACD88236D
:1030C00019F064E072E01ACD80911E016EEF71E09C
:1030D000811102C068EF71E08FEA93E00E948D04D5
:1030E0008091CF0265EF71E0811102C062EF71E063
:1030F0008FEA93E00E948D048091E7026FEE71E009
:10310000811102C06CEE71E08FEA93E00E948D04A1
:103110008091CE0269EE71E0811102C066EE71E02D
:103120008FEA93E00E948D048091CD0263EE71E0FE
:10313000811102C060EE71E08FEA93E00E948D047D
:103140008091CC026DED71E0811102C06AED71E0F9
:103150008FEA93E00E948D048091CB026EEC71E0C7
:10316000811102C06BEC71E08FEA93E00E948D0444
:1031700061ED71E0C3CC0E94230868E873E08FEA38
:1031800093E00E948D046091DA027091DB028091DD
:10319000DC029091DD020E94421E209106013091D6
:1031A00007012617370791F46091D6027091D70274
:1031B0008091D8029091D9020E94421E2091040170
:1031C000309105012617370709F44EC061E080E011
:1031D0000E94230865E873E08FEA93E00E948D0463
:1031E0006091DA027091DB028091DC029091DD0245
:1031F0000E94421E8FEA93E00E94F2086FE773E09C
:103200008FEA93E00E948D046091D6027091D702FC
:103210008091D8029091D9020E94421E8FEA93E0D9
:103220000E94F20866E773E08FEA93E00E948D0443
:103230006091DA027091DB028091DC029091DD02F4
:103240000E94421E70930701609306016091D602AE
:103250007091D7028091D8029091D9020E94421EAB
:1032600070930501609304012091D4023091D5023E
:1032700080910201909103012817390759F4209198
:10328000D2023091D3028091000190910101281760
:103290003907B1F162E080E00E94230861E773E042
:1032A0008FEA93E00E948D046091D4027091D50260
:1032B0008FEA93E00E94F20868E673E08FEA93E0F9
:1032C0000E948D046091D2027091D3028FEA93E044
:1032D0000E94F20864E673E08FEA93E00E948D0496
:1032E0008091D4029091D5029093030180930201C2
:1032F0008091D2029091D3029093010180930001BA
:1033000010911E0180919B03181709F4FBCB63E019
:1033100080E00E9423086EE573E0111102C068E5A9
:1033200073E08FEA93E00E948D048091CF0265E5FF
:1033300073E0811102C062E573E08FEA93E00E94BE
:103340008D048091E7026FE473E0811102C06CE4A8
:1033500073E08FEA93E00E948D048091CE0269E4CD
:1033600073E0811102C066E473E08FEA93E00E948B
:103370008D048091CD0263E473E0811102C060E4AA
:1033800073E08FEA93E00E948D048091CC026DE39C
:1033900073E0811102C06AE373E08FEA93E00E9458
:1033A0008D048091CB0267E373E0811102C064E376
:1033B00073E08FEA93E00E948D048091DE026CE25C
:1033C00073E0811102C064E273E08FEA93E00E942F
:1033D0008D0480911E0180939B0394CB8CE993E034
:1033E000E1CCA7019601C701B6010E947D1E812C88
:1033F000912C90ECA92E9FE7B92E81110C941010FE
:10340000C092DA02D092DB02E092DC02F092DD029E
:103410000C9400108091D4029091D50220910C015F
:1034200030910D01821793070CF022CE6CE572E00B
:103430008FEA93E00E948D046091D4027091D502CE
:103440008FEA93E00E94F20869E572E08FEA93E068
:103450000E948D0460910C0170910D018FEA93E040
:103460000E94F20864E572E034CB662777270C945B
:10347000391AB0E0A0E0EFE3FAE10C94011D5C0121
:103480007B016115710519F0DB018D939C9385011A
:103490000F5F1F4FF501D0818D2F90E00E94891B97
:1034A0006C01892BB9F5DD32B9F50F5F1F4FD501DE
:1034B0001196DC91C1E05801F1E0AF1AB10843E088
:1034C00050E060E770E0C5010E94921B892B69F50E
:1034D000680182E0C80ED11C45E050E06BE670E068
:1034E000C6010E94921B892B21F4680197E0C90E46
:1034F000D11CE114F10419F0D701CD92DC9260E007
:1035000070E080E89FEFC111FFC060E070E080E8EC
:103510009FE7FAC05801BBCFDB3229F485010E5F6B
:103520001F4FF501D181C0E0C6CF43E050E068E60F
:1035300070E0C5010E94921B892BE9F0F80110E0B0
:1035400000E020E030E0A9015F01B0ED8B2E8D0E90
:1035500089E08815C8F19C2E689491F88C2F8870AA
:10356000C2FF16C0811102C00F5F1F4F3196D501F7
:10357000DC91C92DE9CFE114F10429F00E5F1F4F52
:10358000F7011183008360E070E080EC9FE7BCC02E
:10359000882311F001501109A5E0B0E00E94F01C51
:1035A0009B01AC01220F331F441F551F280D311DF5
:1035B000411D511D283999E93907490799E15907F2
:1035C000A8F2C6609C2ED2CFAEEF8A1206C0C3FD11
:1035D0003CC09C2E689493F8C9CFDF7DD534A9F503
:1035E00080818D3239F4C061DF011296818162E001
:1035F00070E006C0DF018B32C1F3119661E070E02C
:1036000080535D01A61AB70A8A30F8F4E0E8CE16B6
:10361000ECE0DE065CF4B601660F771F660F771FDD
:10362000C60ED71ECC0CDD1CC80ED11C5D01FFEFF1
:10363000AF1ABF0A8C9180538A30A8F1C4FF03C02F
:10364000D194C194D1080C0D1D1DC1FF09C0E11416
:10365000F10431F081E0A81AB108D701AD92BC9213
:10366000CA01B9010E94AF1BC370C33009F490585E
:103670004B015C0120E030E0A9010E94AA1B8823D5
:1036800009F440C0CFE9D0E017FF05C011950195BE
:103690001109C7E8D0E06E01B8E1CB1AD10880E289
:1036A000E82EF12C0FC0D501B1CFFE012591359147
:1036B000459154910E191F09C501B4010E94101CB7
:1036C0004B015C01D501C4010E151F0574F7249749
:1036D000F594E794CC16DD06A9F78A2F880F8B2F77
:1036E000881F8F3F49F020E030E0A901C501B401F7
:1036F0000E94AA1B811106C082E290E09093BC0355
:103700008093BB03C501B401CDB7DEB7ECE00C94E8
:103710001D1D91110C947D1C803219F0895085502B
:10372000C8F70895FB01DC014150504088F08D91AD
:1037300081341CF08B350CF4805E659161341CF093
:103740006B350CF4605E861B611171F3990B089563
:10375000881BFCCF0E94EC1B08F481E00895E894DC
:1037600009C097FB3EF490958095709561957F4FC9
:103770008F4F9F4F9923A9F0F92F96E9BB27939577
:10378000F695879577956795B795F111F8CFFAF487
:10379000BB0F11F460FF1BC06F5F7F4F8F4F9F4FB8
:1037A00016C0882311F096E911C0772321F09EE816
:1037B000872F762F05C0662371F096E8862F70E07C
:1037C00060E02AF09A95660F771F881FDAF7880F56
:1037D0009695879597F90895990F0008550FAA0BAC
:1037E000E0E8FEEF16161706E807F907C0F0121614
:1037F0001306E407F50798F0621B730B840B950B17
:1038000039F40A2661F0232B242B252B21F408956B
:103810000A2609F4A140A6958FEF811D811D089508
:103820000E94231C0C94971C0E94891C38F00E9453
:10383000901C20F0952311F00C94801C0C94861C95
:1038400011240C94CB1C0E94A81C70F3959FC1F30B
:10385000950F50E0551F629FF001729FBB27F00D3E
:10386000B11D639FAA27F00DB11DAA1F649F662793
:10387000B00DA11D661F829F2227B00DA11D621FE2
:10388000739FB00DA11D621F839FA00D611D221F9C
:10389000749F3327A00D611D231F849F600D211D80
:1038A000822F762F6A2F11249F5750409AF0F1F003
:1038B00088234AF0EE0FFF1FBB1F661F771F881F6C
:1038C00091505040A9F79E3F510580F00C94801C08
:1038D0000C94CB1C5F3FE4F3983ED4F38695779528
:1038E0006795B795F795E7959F5FC1F7FE2B880F12
:1038F000911D9695879597F908959927882708959A
:1039000097F99F6780E870E060E008959FEF80EC92
:10391000089500240A941616170618060906089535
:1039200000240A9412161306140605060895092E9B
:103930000394000C11F4882352F0BB0F40F4BF2B0A
:1039400011F460FF04C06F5F7F4F8F4F9F4F08954A
:1039500057FD9058440F551F59F05F3F71F0479540
:10396000880F97FB991F61F09F3F79F08795089525
:10397000121613061406551FF2CF4695F1DF08C044
:10398000161617061806991FF1CF86957105610561
:1039900008940895E894BB2766277727CB0197F909
:1039A0000895052E97FB1EF400940E94E81C57FD15
:1039B00007D00E94321D07FC03D04EF40C94E81C83
:1039C00050954095309521953F4F4F4F5F4F08954B
:1039D00090958095709561957F4F8F4F9F4F08957B
:1039E0000E94541DA59F900DB49F900DA49F800D23
:1039F000911D112408952F923F924F925F926F92E2
:103A00007F928F929F92AF92BF92CF92DF92EF926E
:103A1000FF920F931F93CF93DF93CDB7DEB7CA1BEF
:103A2000DB0B0FB6F894DEBF0FBECDBF09942A881A
:103A3000398848885F846E847D848C849B84AA84C2
:103A4000B984C884DF80EE80FD800C811B81AA814F
:103A5000B981CE0FD11D0FB6F894DEBF0FBECDBF1A
:103A6000ED010895A1E21A2EAA1BBB1BFD010DC09A
:103A7000AA1FBB1FEE1FFF1FA217B307E407F5071E
:103A800020F0A21BB30BE40BF50B661F771F881FFA
:103A9000991F1A9469F760957095809590959B0190
:103AA000AC01BD01CF010895A29FB001B39FC00139
:103AB000A39F700D811D1124911DB29F700D811D5A
:103AC0001124911D08955058BB27AA270E947B1DE1
:103AD0000C94971C0E94891C38F00E94901C20F0C6
:103AE00039F49F3F19F426F40C94861C0EF4E095EB
:103AF000E7FB0C94801CE92F0E94A81C58F3BA170E
:103B0000620773078407950720F079F4A6F50C94F3
:103B1000CA1C0EF4E0950B2EBA2FA02D0B01B90193
:103B200090010C01CA01A0011124FF27591B99F033
:103B3000593F50F4503E68F11A16F040A22F232F3F
:103B4000342F4427585FF3CF469537952795A7958F
:103B5000F0405395C9F77EF41F16BA0B620B730B36
:103B6000840BBAF09150A1F0FF0FBB1F661F771FA7
:103B7000881FC2F70EC0BA0F621F731F841F48F45C
:103B8000879577956795B795F7959E3F08F0B0CFE5
:103B90009395880F08F09927EE0F979587950895CC
:103BA0000E94E41D0C94971C0E94901C58F00E94E7
:103BB000891C40F029F45F3F29F00C94801C5111BE
:103BC0000C94CB1C0C94861C0E94A81C68F39923AF
:103BD000B1F3552391F3951B550BBB27AA27621709
:103BE0007307840738F09F5F5F4F220F331F441F16
:103BF000AA1FA9F335D00E2E3AF0E0E832D091504A
:103C00005040E695001CCAF72BD0FE2F29D0660F36
:103C1000771F881FBB1F261737074807AB07B0E879
:103C200009F0BB0B802DBF01FF2793585F4F3AF07F
:103C30009E3F510578F00C94801C0C94CB1C5F3F88
:103C4000E4F3983ED4F3869577956795B795F79505
:103C50009F5FC9F7880F911D9695879597F90895ED
:103C6000E1E0660F771F881FBB1F62177307840789
:103C7000BA0720F0621B730B840BBA0BEE1F88F798
:103C8000E09508950E94491E6894B1110C94CB1CD4
:103C900008950E94B01C88F09F5798F0B92F99277B
:103CA000B751B0F0E1F0660F771F881F991F1AF027
:103CB000BA95C9F714C0B13091F00E94CA1CB1E0A6
:103CC00008950C94CA1C672F782F8827B85F39F0A5
:103CD000B93FCCF3869577956795B395D9F73EF4C0
:103CE00090958095709561957F4F8F4F9F4F089568
:103CF0000E94EC1B08F48FEF08950E94EC1B880BC8
:103D0000990B08950E94541DB7FF0895821B930BD1
:103D10000895EE0FFF1F0590F491E02D09940F9385
:103D20001F93CF93DF938230910510F482E090E0EF
:103D3000E091BF03F091C00330E020E0B0E0A0E0EC
:103D4000309799F42115310509F44AC0281B390B25
:103D500024303105D8F58A819B816115710589F17F
:103D6000FB0193838283FE0111C040815181028156
:103D7000138148175907E0F04817590799F410972D
:103D800061F012960C93129713961C933296CF0102
:103D9000DF91CF911F910F9108950093BF0310936E
:103DA000C003F4CF2115310551F04217530738F005
:103DB000A901DB019A01BD01DF01F801C1CFEF01CB
:103DC000F9CF9093C0038093BF03CDCFFE01E20FE4
:103DD000F31F819391932250310939832883D7CFE0
:103DE0002091BD033091BE03232B41F4209121018A
:103DF000309122013093BE032093BD0320911F0117
:103E0000309120012115310541F42DB73EB7409185
:103E1000230150912401241B350BE091BD03F09147
:103E2000BE03E217F307A0F42E1B3F0B2817390738
:103E300078F0AC014E5F5F4F2417350748F04E0F06
:103E40005F1F5093BE034093BD03819391939FCF17
:103E5000F0E0E0E09CCFCF93DF930097E9F0FC0126
:103E6000329713821282A091BF03B091C003ED017B
:103E700030E020E01097A1F420813181820F931F60
:103E80002091BD033091BE032817390709F061C0A6
:103E9000F093BE03E093BD03DF91CF910895EA0153
:103EA000CE17DF07E8F54A815B819E014115510578
:103EB000B1F7E901FB83EA8349915991C40FD51FFA
:103EC000EC17FD0761F4808191810296840F951FA4
:103ED000E90199838883828193819B838A83F0E0BF
:103EE000E0E012968D919C9113970097B9F52D9172
:103EF0003C911197CD010296820F931F2091BD0333
:103F00003091BE032817390739F6309751F51092D2
:103F1000C0031092BF03B093BE03A093BD03BCCFF8
:103F2000D383C28340815181840F951FC817D9075D
:103F300061F44E5F5F4F88819981480F591F51830B
:103F400040838A819B81938382832115310509F007
:103F5000B0CFF093C003E093BF039ECFFD01DC011F
:103F6000C0CF13821282D7CFB0E0A0E0EAEBFFE12E
:103F70000C94FD1C8C01009751F4CB010E948F1E04
:103F80008C01C801CDB7DEB7E0E10C94191DFC012E
:103F9000E60FF71F9C0122503109E217F30708F4DE
:103FA0009DC0D901CD91DC911197C617D70798F024
:103FB000C530D10530F3CE0104978617970708F373
:103FC000C61BD70B2297C193D1936D937C93CF01DE
:103FD0000E942B1FD6CF5B01AC1ABD0A4C018C0E80
:103FE0009D1EA091BF03B091C003512C412CF12C18
:103FF000E12C109731F58091BD039091BE03881597
:10400000990509F05CC04616570608F058C0809123
:104010001F0190912001009741F48DB79EB7409108
:10402000230150912401841B950BE817F90708F030
:1040300055C0F093BE03E093BD03F9017183608323
:10404000A0CF8D919C91119712966C901297139618
:104050007C901397A815B90559F56C0142E0C40E80
:10406000D11CCA14DB0420F1AC014A195B09DA0146
:104070001296159780F06282738251834083D90132
:104080006D937C93E114F10471F0D7011396FC93C6
:10409000EE93129776CF22968C0F9D1FF901918394
:1040A0008083F301EFCFF093C003E093BF0369CFA8
:1040B0004816590608F42C017D01D3019ACFCB0193
:1040C0000E948F1E7C01009749F0AE01B8010E944A
:1040D0007920C8010E942B1F870153CF10E000E018
:1040E00050CF9111089581568A5108F48052855815
:1040F0000895FB01DC0102C001900D924150504037
:10410000D8F70895FC018191861721F08823D9F70B
:10411000992708953197CF010895FB01DC018D9116
:10412000019080190110D9F3990B0895FB01DC016E
:1041300001900D920020E1F70895FB01DC01415050
:10414000504030F08D910190801919F40020B9F79A
:10415000881B990B0895FB01DC014150504048F049
:1041600001900D920020C9F701C01D9241505040AE
:08417000E0F70895F894FFCF79
:104178009DFF9DFF9DFF9DFF280046001E0000003B
:10418800AA42000048420000F041000090410100AE
:1041980000C103800000004000140054000000002B
:1041A800008305B104DE04D0054105ED04330500A4
:1041B800000000AE068106C40757067A066706584F
:1041C80006000000006208B104C407F0050D0A00EB
:1041D8006E616E00696E66006F7666005345545FC7
:1041E8004D4F4445004155544F005345545F544585
:1041F8004D50005345545F534F494C005345545F4D
:1042080048554D49005345545F4C4947485400416F
:10421800495F545556414E003100434D445F515556
:10422800415400434D445F53554F4900434D445F4B
:1042380044454E00434D445F485554414D00434D5D
:10424800445F54414E47414D00434D445F424F4DFA
:0642580000434D445F002D
:00000001FF
