:100000000C94BA010C94E2010C94E2010C94E2010C
:100010000C94E2010C94E2010C94E2010C94E201D4
:100020000C94E2010C94E2010C94E2010C94E201C4
:100030000C94E2010C94E2010C94E2010C94E201B4
:100040000C9472100C94E2010C94E2100C94BC100D
:100050000C94E2010C94E2010C94E2010C94E20194
:100060000C9414110C94E20107634236B79BD8A795
:100070001A39685618AEBAAB558C1D3CB7CC5763CD
:10008000BD6DEDFD753EF6177231BF000000803F7B
:1000900008000000BE922449123EABAAAA2ABECD97
:1000A000CCCC4C3E00000080BEABAAAAAA3E000009
:1000B0000000BF000000803F000000000008417801
:1000C000D3BB4387D1133D190E3CC3BD4282AD2B38
:1000D0003E68EC8276BED98FE1A93E4C80EFFFBE30
:1000E00001C4FF7F3F00000000004E414E494E49D1
:1000F0005459494E46CDCCCC3D0AD7233C17B7D1F5
:100100003877CC2B329595E6241FB14F0A0000209A
:10011000410000C84200401C4620BCBE4CCA1B0E19
:100120005AAEC59D7444616E67206B686F69206428
:100130006F6E672E2E2E00496F542050726F6A65C5
:100140006374203230323500536D61727420506C0C
:10015000616E7420547261636B657200532E502E71
:10016000522E4F2E552E542076322E35005350529B
:100170004F55545F52454144592C532E502E522E08
:100180004F2E552E542076322E362053616E20731A
:10019000616E67004552522C4C454E485F4C410001
:1001A0004552522C44414E475F4155544F5F4B4896
:1001B0004F4E475F4E48414E5F434D440041434BD5
:1001C0002C004552522C4C454E485F4C4100455244
:1001D000522C424F4D5F42495F4B484F412C4E5588
:1001E0004F435F4845540041434B2C5345545F54A3
:1001F000454E4341590041434B2C41495F545556AC
:10020000414E004552522C5345545F4C4947485487
:100210002C4749415F5452495F504841495F54520D
:100220004F4E475F305F3130303030305F56415F86
:100230004D41585F4C4F4E5F484F4E5F4D494E0009
:100240002C0041434B2C5345545F4C494748542C98
:10025000002C0041434B2C5345545F48554D492CCD
:10026000002C0041434B2C5345545F534F494C2CB9
:10027000002C0041434B2C5345545F54454D502CAA
:10028000004D414E55414C004155544F0041434BA8
:100290002C5345545F4D4F44452C004D414E554124
:1002A0004C004155544F002C002C002C002C002CED
:1002B000002C002C002C002C002C002C002C002CDE
:1002C000002C002C002C002C002C002C002C0044B6
:1002D0004154412C00414C4552542C414E485F53EF
:1002E000414E475F4D414E4800414C4552542C41D0
:1002F0004E485F53414E475F59455500414C45526A
:10030000542C4355415F4D4F00414C4552542C4EA7
:10031000554F435F43414E0000000000240027007A
:100320002A0000000000250028002B000000000823
:1003300000020100000304070000000000000000AC
:100340000000000023002600290004040404040423
:100350000404020202020202030303030303010274
:100360000408102040800102040810200102040843
:100370001020331211241FBECFEFD8E0DEBFCDBF57
:1003800012E0A0E0B1E0E2E2FBE402C005900D92D1
:10039000AA3DB107D9F724E0AAEDB2E001C01D9251
:1003A000A63BB207E1F711E0CAEBD1E004C0219708
:1003B000FE010E945E23C93BD107C9F70E949A1231
:1003C0000C948F250C940000CF92DF92EF92FF9255
:1003D000CF93DF93B0919804A0E08111AB2F80916F
:1003E000990490E0880F991FAC01405C5C4FC0906D
:1003F0009E04D0909F04E090A004F090A10430E00F
:1004000020E0FA01C591D491E881B90190E080E043
:10041000EB23EA130AC02F5F3F4F6C157D058E0555
:100420009F0578F36FEF7FEFCB01DF91CF91FF90C6
:10043000EF90DF90CF900895833081F028F48130E1
:1004400099F08230A9F008958730A9F08830C9F07A
:100450008430B1F4809180008F7D03C08091800052
:100460008F7780938000089584B58F7784BD089539
:1004700084B58F7DFBCF8091B0008F778093B000E3
:1004800008958091B0008F7DF9CF1F93CF93DF93B4
:10049000282F30E0F901E45DFC4F8491F901E25A24
:1004A000FC4FD491F901E65BFC4FC491CC23A9F039
:1004B000162F81110E941C02EC2FF0E0EE0FFF1F9F
:1004C000EE5DFC4FA591B4918FB7F894EC911111AA
:1004D00008C0D095DE23DC938FBFDF91CF911F91B1
:1004E0000895DE2BF8CFCF93DF9390E0FC01E25A22
:1004F000FC4F2491865B9C4FFC0184918823D1F0B2
:1005000090E0880F991FFC01E85EFC4FA591B49123
:10051000FC01EE5DFC4FC591D491623071F49FB740
:10052000F8943C91822F809583238C93E8812E2B25
:1005300028839FBFDF91CF9108958FB7F894EC91F6
:100540002E2B2C938FBFF6CF8E50806480937C002F
:1005500080917A00806480937A0080917A0086FD91
:10056000FCCF809178009091790008953FB7F8947E
:100570008091E4039091E503A091E603B091E70335
:1005800026B5A89B05C02F3F19F00196A11DB11DEE
:100590003FBFBA2FA92F982F8827BC01CD01620F2A
:1005A000711D811D911D42E0660F771F881F991FE5
:1005B0004A95D1F708958F929F92AF92BF92CF92B2
:1005C000DF92EF92FF924B015C010E94B6026B0139
:1005D0007C010E94B6026C197D098E099F09683E54
:1005E000734081059105A8F321E0821A9108A108C2
:1005F000B10888EEC80E83E0D81EE11CF11C8114FE
:100600009104A104B10429F7FF90EF90DF90CF90FF
:10061000BF90AF909F908F9008952FB7F8946091FE
:10062000E0037091E1038091E2039091E3032FBF17
:100630000895CF92DF92EF92FF920F931F93CF9383
:10064000DF93CDB7DEB7C054D1400FB6F894DEBF0C
:100650000FBECDBF0E940D0300919A0410919B0420
:1006600020919C0430919D046B017C01C01AD10A39
:10067000E20AF30A97018601003D17402105310582
:1006800090F48091A204C05CDE4F0FB6F894DEBFF8
:100690000FBECDBFDF91CF911F910F91FF90EF90D3
:1006A000DF90CF90089560939A0470939B04809399
:1006B0009C0490939D0410929504109294041092BF
:1006C0009304109292041092910462E08091960437
:1006D0000E94730261E070E080E090E00E94DB0223
:1006E00061E0809196040E94730260E0809196041C
:1006F0000E944502809197048551823020F58BE25B
:1007000091E10197F1F762E0809196040E947302F3
:100710008091A30490E08230910538F0880F991FF2
:10072000880F991F05970197F1F7F89480E00E94D0
:10073000E4016F3F7F4F8F4F9F4F61F41092A204EF
:10074000789480E0A0CF64E170E080E090E00E94C7
:10075000DB02D9CF81E00E94E4016F3F7F4F8F4FD2
:100760009F4F61F38E010F5F1F4F6E012FEBC21A77
:100770002EEFD20A780180E00E94E401F701608345
:1007800071838283938381E00E94E401F701648393
:10079000758386839783F8E0EF0EF11CEC14FD045B
:1007A00051F7789430E020E0F801C080D180E280F9
:1007B000F3804481558166817781FFEFCF16DF0694
:1007C000EF06FF0631F04F3F8FEF580768077807B5
:1007D00019F41092A204B5CFF90183E0F595E795DD
:1007E0008A95E1F7EF56FB4F8081880FC416D50636
:1007F000E606F70610F180832F5F3F4F085F1F4F1B
:100800002832310589F64091950420919104809118
:100810009204280F3327331F80919304280F311D32
:1008200080919404820F932F911D992748171906E0
:1008300081F681E08093A20426CF8160DCCF089509
:1008400008950895EF92FF920F931F93CF93DF9334
:100850008C017B01D0E0C0E0F701EC0FFD1F64913B
:10086000662361F0D801ED91FC910190F081E02DBB
:10087000C8010995892B11F02196EECFCE01DF91A9
:10088000CF911F910F91FF90EF900895AF92BF927B
:10089000CF92DF92EF92FF920F931F93CF93DF934C
:1008A0006C017B018B01040F151FEB015E01AE187B
:1008B000BF08C017D10759F06991D601ED91FC919D
:1008C0000190F081E02DC6010995892B79F7C501CA
:1008D000DF91CF911F910F91FF90EF90DF90CF901C
:1008E000BF90AF900895FC01538D448D252F30E0CB
:1008F000842F90E0821B930B541710F0CF9608952D
:1009000001970895FC01918D828D981761F0A28D59
:10091000AE0FBF2FB11D5D968C91928D9F5F9F731F
:10092000928F90E008958FEF9FEF08950F931F939C
:100930000E940D036093F0037093F1038093F20320
:100940009093F30388EE93E00E94820497FF1DC00A
:100950000E940D030091F0031091F1032091F20326
:100960003091F303601B710B820B930B0091EC032E
:100970001091ED032091EE033091EF0360177107A2
:1009800082079307F8F28FEF9FEF1F910F91089561
:10099000FC01918D828D981731F0828DE80FF11D49
:1009A000858D90E008958FEF9FEF0895FC01918D64
:1009B000228D892F90E0805C9F4F821B91098F735D
:1009C0009927089588EE93E00E94D60421E0892BB0
:1009D00009F420E0822F089580E090E0892B29F02F
:1009E0000E94E20481110C9400000895FC01A48D82
:1009F000A80FB92FB11DA35ABF4F2C91848D90E041
:100A000001968F739927848FA689B7892C93A08923
:100A1000B1898C91837080648C93938D848D9813AD
:100A200006C00288F389E02D80818F7D8083089540
:100A3000EF92FF920F931F93CF93DF93EC0181E02E
:100A4000888F9B8D8C8D98131AC0E889F9898081D5
:100A500085FF15C09FB7F894EE89FF896083E88908
:100A6000F98980818370806480839FBF81E090E0FA
:100A7000DF91CF911F910F91FF90EF900895F62E87
:100A80000B8D10E00F5F1F4F0F731127E02E8C8D21
:100A90008E110CC00FB607FCFACFE889F989808166
:100AA00085FFF5CFCE010E94F604F1CFEB8DEC0F60
:100AB000FD2FF11DE35AFF4FF0829FB7F8940B8F83
:100AC000EA89FB8980818062CFCFCF93DF93EC01ED
:100AD000888D8823B9F0AA89BB89E889F9898C9126
:100AE00085FD03C0808186FD0DC00FB607FCF7CFE2
:100AF0008C9185FFF2CF808185FFEDCFCE010E94E2
:100B0000F604E9CFDF91CF91089520911B03260FC2
:100B10003327331F21323105ECF420916403FC01AB
:100B200090E080E0243069F082E00895A0911B03FA
:100B30002191AC0145505D4FA40FB52FB11D2C93F1
:100B40000196861798F380911B03680F60931B032F
:100B500080E0089581E008951092640381E080931D
:100B6000630310923E0361E082E10E94450261E06E
:100B700083E10E944502E9EBF0E080818E7F808373
:100B800080818D7F808388E48093B80085E48093A2
:100B9000BC000895CF93DF9391E09093FA028823ED
:100BA000B9F0C091B800D091BA008091BC008A7BA6
:100BB0008093BC0060E082E10E94450260E083E136
:100BC0000E9445020E94AC05D093BA00C093B800C1
:100BD000DF91CF9108950895E0919303809192035E
:100BE000E81730F4F0E0E652FD4F808190E0089580
:100BF0008FEF9FEF089590919303809192032FEFD1
:100C00003FEF981748F4E92FF0E0E652FD4F2081BE
:100C100030E09F5F90939303C90108958091920300
:100C200090919303891B990B0895CF92DF92EF92D5
:100C3000FF920F931F93CF93DF937C01CB018A0127
:100C400020916A03222389F0EB016B01C40ED51EAB
:100C5000CC15DD0569F06991D701ED91FC9101900A
:100C6000F081E02DC7010995F3CF642F0E9485051F
:100C7000C801DF91CF911F910F91FF90EF90DF900E
:100C8000CF900895CF93DF931F92CDB7DEB76983DE
:100C900020916A032223F9F020919003203258F02A
:100CA00021E030E0FC013383228390E080E00F906C
:100CB000DF91CF91089580919103E82FF0E0E559FD
:100CC000FC4F998190838F5F809391038093900371
:100CD00081E090E0ECCF61E0CE0101960E948505B5
:100CE000F7CFCF92DF92EF92FF920F931F93CF93A4
:100CF000DF93FC01C48121E020936A03C0938B033E
:100D000010929103109290038385682B85E894E0FC
:100D10000E944206D0919003D13208F092C00E9406
:100D2000B6026B017C0180916403811165C082E091
:100D30008093640381E0809363038FEF8093620369
:100D400010926103D0936003ABE6B3E0E0E4F3E01C
:100D500080E0D81385C010923F0380913F03CC0FF1
:100D6000C82BC0933F0380913E03813009F07CC0C3
:100D700010923E030E94B6026B017C0180913F03FA
:100D80008093BB008091660390916703A0916803F4
:100D9000B0916903892B8A2B8B2B99F00E94B602A4
:100DA00000916603109167032091680330916903F5
:100DB0006C197D098E099F0906171707280739073F
:100DC000E0F18091BC0083FDD9CF85EC8093BC001D
:100DD0000E94B6026B017C0180916403823009F4A9
:100DE00045C0809162038F3F61F180916203803240
:100DF00041F18091620325C0809166039091670361
:100E0000A0916803B0916903892B8A2B8B2B09F47D
:100E10008ACF0E94B6020091660310916703209169
:100E20006803309169036C197D098E099F090617C3
:100E300017072807390708F076CF809165030E94CD
:100E4000CA05109291031092900310926A03DF91E9
:100E5000CF911F910F91FF90EF90DF90CF90089569
:100E60009D9191938F5F75CF85EEB0CF8091660392
:100E700090916703A0916803B0916903892B8A2B35
:100E80008B2B09F4A9CF0E94B60200916603109142
:100E9000670320916803309169036C197D098E09FD
:100EA0009F09061717072807390708F095CFC5CF00
:100EB00090E080E008956091C30385E00E944502C0
:100EC0006091DD0386E00E9445026091C20387E0E5
:100ED0000E9445026091C10388E00E944502609132
:100EE000C0038AE00E9445026091BF0389E00E942E
:100EF00045026091D40383E00C9445021092C20332
:100F00001092DD031092C3031092BF031092C0032E
:100F10001092C1030C945B07FC0101900020E9F7DB
:100F20003197AF01481B590BBC0188EE93E00C943C
:100F30004604CF93DF93BC0188EE93E00E94220425
:100F4000EC0188E691E00E948C078C0F9D1FDF91D9
:100F5000CF9108958F929F92AF92BF920F931F935C
:100F6000CF93DF93CDB7DEB7A1970FB6F894DEBF6E
:100F70000FBECDBF19A2423008F44AE08E010F5DCA
:100F80001F4F842E912CB12CA12CA50194010E94FD
:100F90008220E62FB901CA01EA30F4F4E05DD801FD
:100FA000EE938D01232B242B252B79F790E080E005
:100FB000109719F0CD010E948C07A1960FB6F894F6
:100FC000DEBF0FBECDBFDF91CF911F910F91BF90BC
:100FD000AF909F908F900895E95CE1CFCF92DF9220
:100FE000EF92FF92CF93DF936C01990FEE08FF0809
:100FF000F7FE19C06DE288EE93E00E941805EC013F
:1010000066277727CB016C197D098E099F094AE075
:101010000E94AA078C0F9D1FDF91CF91FF90EF9048
:10102000DF90CF9008954AE0C701B601DF91CF91DC
:10103000FF90EF90DF90CF900C94AA074F925F92B1
:101040006F927F928F929F92AF92BF92CF92DF92D8
:10105000EF92FF920F931F93CF936B017C01742E3D
:10106000AC019B010E941D22882399F08BE691E040
:10107000CF911F910F91FF90EF90DF90CF90BF9095
:10108000AF909F908F907F906F905F904F900C9457
:101090008C0746015701E894B7F82FEF3FEF4FE771
:1010A0005FE7C501B4010E941D2281110DC02FEF21
:1010B0003FEF4FE75FE7C501B4010E94FA1E181623
:1010C0001CF48FE691E0D4CF2FEF3FEF4FE75FE4C2
:1010D000C701B6010E94C82118161CF483E791E0ED
:1010E000C7CF2FEF3FEF4FE75FECC701B6010E947C
:1010F000FA1E87FDF3CF20E030E0A901C701B60159
:101100000E94FA1E10E000E087FF0AC06DE288EE40
:1011100093E00E9418058C01F7FAF094F7F8F09428
:10112000C0E060E070E080E09FE37C1641F020E0EA
:1011300030E040E251E40E942021CF5FF6CFA701CA
:1011400096010E94B4202B013C010E9499214B0181
:101150005C014AE00E94AA077C01E00EF11ECC234C
:10116000C1F1C501B4010E94FF1E9B01AC01C30186
:10117000B2010E94B3204B015C016EE288EE93E065
:101180000E941805E80EF91EC15018F120E030E069
:1011900040E251E4C501B4010E94601F2B013C01F3
:1011A0000E9499214B01B12CA12C4AE0C501B40148
:1011B0000E94AA07E80EF91EC501B4010E94FF1E95
:1011C0009B01AC01C301B2010E94B3204B015C0141
:1011D000DBCFC701CF911F910F91FF90EF90DF9070
:1011E000CF90BF90AF909F908F907F906F905F90C7
:1011F0004F9008950F931F93CF938C01C62F0E9499
:1012000071066C2F6460C8010E9471066C2F6B7FA1
:10121000C8010E94710683EC90E00197F1F7CF912D
:101220001F910F9108950F931F93CF93DF938C011C
:10123000D62FC42F607F642B0E94FA0880E1D89FCC
:10124000B00111246C2BC801DF91CF911F910F9138
:101250000C94FA08CF93DF93CDB7DEB728970FB67B
:10126000F894DEBF0FBECDBF98E0E0E3F1E0DE0111
:10127000119601900D929A95E1F79091AC04961712
:1012800010F46FEF690F262F30E0220F331F41E07B
:1012900050E04C0F5D1F240F351FF9016081680F6E
:1012A000606840E084EA94E028960FB6F894DEBFC8
:1012B0000FBECDBFDF91CF910C94130940E061E0E8
:1012C00084EA94E00E9413098BE39FE10197F1F710
:1012D000089541E00E94130981E090E00895CF93C2
:1012E000DF93FC01248135816217730788F49B0129
:1012F000C081D1816CE270E0CE01820F931F0E9409
:101300005725009729F08C1B9D0BDF91CF910895F5
:101310008FEF9FEFFACFCF93DF93FC01C081D18194
:10132000209761F08991882349F0082E000C990BD1
:101330000E944625FE0131978083F4CFDF91CF9143
:101340000895FC0124813581232B39F421E0FB0130
:101350008081882349F020E007C0808191810E942C
:10136000622521E0892BB9F7822F08950F931F93EF
:10137000CF93DF938C01EB01FC0180819181009779
:10138000E1F06881798161157105A9F0428153818D
:101390002C813D814217530770F00E946B258C8190
:1013A0009D81F801958384831D821C82DF91CF91FA
:1013B0001F910F9108950E94002488819981F8015E
:1013C000918380838A819B81938382838C819D8199
:1013D00095838483198218821B821A82E5CFCF936A
:1013E000DF93EC0188819981009711F00E9400241D
:1013F000198218821D821C821B821A82DF91CF9172
:101400000895FC0180819181009711F00C940024D3
:1014100008950F931F93CF93DF93EC0188819981F7
:10142000009759F02A813B812617370730F081E079
:10143000DF91CF911F910F9108958B016F5F7F4FC7
:101440000E948924009759F0998388831B830A831B
:101450002C813D81232B59F7FC011082E8CF80E0DD
:10146000E7CFEF92FF920F931F93CF93DF93611516
:10147000710541F480E0DF91CF911F910F91FF90B2
:10148000EF90089541155105B1F07B01EC010C81FD
:101490001D81040F151FB8010E94090A882351F30A
:1014A000288139818C819D81B701820F931F0E9411
:1014B0006B251D830C8381E0DECFCF93DF93EC019E
:1014C000FB0101900020E9F73197AF01461B570B54
:1014D0000E94310A811103C0CE010E94EF09CE01A2
:1014E000DF91CF910895CF93DF93EC01FB0144810D
:1014F0005581608171810E94310A811103C0CE0142
:101500000E94EF09CE01DF91CF910895FB01019078
:101510000020E9F73197AF01461B570B0C94310AB5
:10152000EF92FF920F931F93CF93DF93EC017B0118
:101530008A01BA010E94090A81110BC0CE010E94E2
:10154000EF09CE01DF91CF911F910F91FF90EF90A6
:1015500008951D830C83B701888199810E946B25B2
:10156000F0CFFB0101900020E9F73197AF01461B56
:10157000570B0C94900A0F931F93CF93DF93CDB723
:10158000DEB762970FB6F894DEBF0FBECDBF8C01F9
:10159000CB01F8011182108213821282158214820B
:1015A0004AE0BE016F5F7F4F0E94541DBE016F5F16
:1015B0007F4FC8010E94B10A62960FB6F894DEBF51
:1015C0000FBECDBFDF91CF911F910F910895CF93A3
:1015D000DF93EC01FB018617970749F06081718169
:1015E0006115710541F0448155810E94900ACE0138
:1015F000DF91CF9108950E94EF09F9CFFC0111828C
:10160000108213821282158214820C94E70AFC0164
:10161000118210821382128215821482FB010190C2
:101620000020E9F73197AF01461B570B0C94900A45
:10163000AF92BF92CF92DF92EF92FF920F931F93E0
:10164000CF93DF936C015B017A0189012417350781
:1016500020F48F2D7901042F182F6AE671E0C6015E
:101660000E94070BD5011496CD91DC91EC16FD0676
:10167000E0F40C171D0708F4E801D501ED91FC9189
:101680001197EC0FFD1F108110826D917C916E0DF2
:101690007F1DC60161157105A1F00E94B10AF50117
:1016A00080819181C80FD91F1883C601DF91CF9126
:1016B0001F910F91FF90EF90DF90CF90BF90AF9070
:1016C00008950E94EF09EBCFEF92FF920F931F93C3
:1016D000CF93DF9300D000D000D0CDB7DEB7F82E87
:1016E0008B01FB0184819581459790F024E130E0E6
:1016F00050E040E0CE0101960E94180BBE016F5FE2
:101700007F4FC8010E94B609CE0101960E94010ACE
:1017100080E2E82EF80184819581449758F4E982AB
:101720001A8241E050E0BE016F5F7F4FC8010E9406
:10173000310AF0CF6F2D80E00E942A09F801448120
:1017400055816081718184EA94E00E944604269666
:101750000FB6F894DEBF0FBECDBFDF91CF911F91C2
:101760000F91FF90EF9008958F929F92AF92BF924A
:10177000CF92DF92EF92FF920F931F93CF93DF935D
:10178000CDB7DEB76E970FB6F894DEBF0FBECDBFF4
:1017900060E071E0CE0101960E94070BBE016F5F11
:1017A0007F4FCE0107960E94FE0A67EA71E0CE01E4
:1017B00007960E945D0ABC01CE010D960E94FE0AAA
:1017C000BE01635F7F4F90E080E00E94640BCE011A
:1017D0000D960E94010ACE0107960E94010ACE01D1
:1017E00001960E94010A6AE671E0CE0143960E94CA
:1017F000070B8090CC039090CD03A090CE03B090C7
:10180000CF03C0901D01D0901E01E0901F01F09009
:101810002001A7019601C501B4010E94C821181634
:101820000CF0C2C0C701B6010E949221CE010D96F4
:101830000E94BB0A6091CC037091CD038091CE03CE
:101840009091CF030E949221CE0107960E94BB0A7D
:101850006BEA71E0CE0101960E94070BBE01695F41
:101860007F4FCE0101960E94730A61EB71E00E94E6
:101870005D0ABE01635F7F4F0E94730A64EB71E0F3
:101880000E945D0ABC01CE0143960E94E70ACE0188
:1018900001960E94010ACE0107960E94010ACE011C
:1018A0000D960E94010ABE016D5E7F4FCE0101962A
:1018B0000E94FE0ABE016F5F7F4F81E090E00E94B0
:1018C000640BCE0101960E94010AC090CC03D09017
:1018D000CD03E090CE03F090CF0320911D01309115
:1018E0001E0140911F0150912001C701B6010E94C5
:1018F000C82111E0181684F02091210130912201B5
:101900004091230150912401C701B6010E94FA1EA3
:10191000182F111F1127111F6AE671E0CE01499699
:101920000E94070B112309F4EDC18090C803909029
:10193000C903A090CA03B090CB03C0901501D0900A
:101940001601E0901701F0901801A7019601C5015A
:10195000B4010E94C82118160CF083C1C701B6015A
:101960000E949221CE010D960E94BB0A6091C8038D
:101970007091C9038091CA039091CB030E94922178
:10198000CE0107960E94BB0A6FEB71E0CE01019673
:101990000E94070BBE01695F7F4FCE0101960E9436
:1019A000730A67EC71E092C1C0902101D0902201CE
:1019B000E0902301F0902401A7019601C501B40134
:1019C0000E94FA1E87FF26C0C701B6010E9492211D
:1019D000CE010D960E94BB0A6091CC037091CD039D
:1019E0008091CE039091CF030E949221CE01079661
:1019F0000E94BB0A66EB71E0CE0101960E94070BC4
:101A0000BE01695F7F4FCE0101960E94730A6CEBA5
:101A100071E02DCF8090C8039090C903A090CA03B5
:101A2000B090CB03C0901501D0901601E090170143
:101A3000F0901801A7019601C501B4010E94C821C8
:101A4000181634F5C701B6010E949221CE010D96F9
:101A50000E94BB0A6091C8037091C9038091CA03B8
:101A60009091CB030E949221CE0107960E94BB0A5F
:101A70006FEB71E0CE0101960E94070BBE01695F1A
:101A80007F4FCE0101960E94730A67EC71E035C06A
:101A9000C0901901D0901A01E0901B01F0901C0138
:101AA000A7019601C501B4010E94FA1E87FF2FC04D
:101AB000C701B6010E949221CE010D960E94BB0A79
:101AC0006091C8037091C9038091CA039091CB03C0
:101AD0000E949221CE0107960E94BB0A6CEC71E035
:101AE000CE0101960E94070BBE01695F7F4FCE01B8
:101AF00001960E94730A65ED71E00E945D0ABE01C5
:101B0000635F7F4F0E94730A6AEC71E0B9CE8091E7
:101B1000C6039091C7036091130170911401861759
:101B200097077CF4CE010D960E94BB0A6091C60314
:101B30007091C703CE0107960E94BB0A68ED71E061
:101B4000CFCF6091110170911201681779077CF471
:101B5000CE010D960E94BB0A6091C6037091C70327
:101B6000CE0107960E94BB0A61EE71E083CF00911F
:101B7000270110912801C090D003D090D103E090AC
:101B8000D203F090D303B801012E000C880B990BFF
:101B90000E94011FA70196010E94C821181654F542
:101BA000B801CE010D960E94BB0A6091D0037091DE
:101BB000D1038091D2039091D3030E949221CE0150
:101BC00007960E94BB0A6BEE71E0CE0101960E945F
:101BD000070BBE01695F7F4FCE0101960E94730A19
:101BE00060EF71E00E945D0ABE01635F7F4F0E945B
:101BF000730A48CE0091250110912601B801012EEB
:101C0000000C880B990B0E94011F9B01AC01C701BE
:101C1000B6010E94C82118160CF045CEB801CE01BD
:101C20000D960E94BB0A6091D0037091D103809100
:101C3000D2039091D3030E949221CE0107960E9475
:101C4000BB0A65EF71E0CE0101960E94070BBE0151
:101C5000695F7F4FCE0101960E94730A6FEF71E0BA
:101C6000C1CFC0901901D0901A01E0901B01F090F3
:101C70001C01A7019601C501B4010E94FA1E87FF4D
:101C80009BC0C701B6010E949221CE010D960E9411
:101C9000BB0A6091C8037091C9038091CA039091F7
:101CA000CB030E949221CE0107960E94BB0A6CECE6
:101CB00071E0CE0101960E94070BBE01695F7F4F64
:101CC000CE0101960E94730A65ED71E00E945D0AE3
:101CD000BE01635F7F4F0E94730A6AEC71E00E944D
:101CE0005D0ABC01CE0149960E94E70ACE01019629
:101CF0000E94010ACE0107960E94010ACE010D96AC
:101D00000E94010ABE01675E7F4FCE0101960E94CC
:101D1000FE0ABE016F5F7F4F82E090E00E94640B7D
:101D2000CE0101960E94010A6AE671E0CE01079693
:101D30000E94070B9091DE038091D403992309F44C
:101D4000E5C064E072E0811102C065E172E0CE019D
:101D500007960E94B10ABE01695F7F4FCE010196CE
:101D60000E94FE0ABE016F5F7F4F83E090E00E94F9
:101D7000640BCE0101960E94010ACE0107960E94D3
:101D8000010ACE0149960E94010ACE0143960E94A3
:101D9000010A6E960FB6F894DEBF0FBECDBFDF917D
:101DA000CF911F910F91FF90EF90DF90CF90BF9058
:101DB000AF909F908F9008958091C6039091C70334
:101DC0006091130170911401861797077CF4CE017E
:101DD0000D960E94BB0A6091C6037091C703CE01A5
:101DE00007960E94BB0A68ED71E063CF6091110114
:101DF00070911201681779077CF4CE010D960E944C
:101E0000BB0A6091C6037091C703CE0107960E947A
:101E1000BB0A61EE71E0BACD009127011091280153
:101E2000C090D003D090D103E090D203F090D303C0
:101E3000B801012E000C880B990B0E94011FA7010D
:101E400096010E94C821181654F5B801CE010D96CE
:101E50000E94BB0A6091D0037091D1038091D2039C
:101E60009091D3030E949221CE0107960E94BB0A53
:101E70006BEE71E0CE0101960E94070BBE01695F17
:101E80007F4FCE0101960E94730A60EF71E00E94BD
:101E90005D0ABE01635F7F4F0E94730A22CF0091EB
:101EA000250110912601B801012E000C880B990B19
:101EB0000E94011F9B01AC01C701B6010E94C8210D
:101EC00018160CF01FCFB801CE010D960E94BB0A68
:101ED0006091D0037091D1038091D2039091D3038C
:101EE0000E949221CE0107960E94BB0A65EF71E025
:101EF000CE0101960E94070BBE01695F7F4FCE01A4
:101F000001960E94730A6FEF71E0C1CF67E272E041
:101F100081111DCF809129016DE771E0882311F0B7
:101F200067E771E0CE0101960E94070BBE016F5F6B
:101F30007F4FCE0107960E94B609CE0101960E94FE
:101F4000010A8091C30366E871E0882311F063E819
:101F500071E0CE0107960E94860A8091DD036CE84D
:101F600071E0882311F069E871E0CE0107960E94C4
:101F7000860A8091C20362E971E0882311F06FE85C
:101F800071E0CE0107960E94860A8091C10368E93C
:101F900071E0882311F065E971E0CE0107960E9497
:101FA000860A8091C0036EE971E0882311F06BE925
:101FB00071E0CE0107960E94860A8091BF0364EA11
:101FC00071E0882311F061EA71E0CE0107960E946A
:101FD000860AC1CE85ED8093BC0080916603909106
:101FE0006703A0916803B09169030796A11DB11D15
:101FF00023E0B695A795979587952A95D1F72091D7
:10200000BC0024FD03C01092640308954091660350
:10201000509167036091680370916903452B462BCB
:10202000472B69F30097A105B10541F02AE22A95F3
:10203000F1F700C00197A109B109E1CF80916503D3
:102040000C94CA05CF92DF92EF92FF920F931F93E9
:10205000CF93DF9300D000D000D0CDB7DEB78C0196
:102060007B0170E060E00E946F09E114F10451F01F
:10207000C12CD12C76018F3F980719F17C01EFEF2D
:10208000EE1AFE0AB701C8010E946F099C01019671
:1020900019F4F80124813581A701B801CE01019618
:1020A0000E94180B89819A81C12CD12C760100974E
:1020B00021F00E94501D6B017C01CE0101960E940F
:1020C000010AC701B60126960FB6F894DEBF0FBE0F
:1020D000CDBFDF91CF911F910F91FF90EF90DF90D7
:1020E000CF9008951F920F920FB60F9211242F9345
:1020F0003F938F939F93AF93BF938091E003909111
:10210000E103A091E203B091E3033091DF0323E008
:10211000230F2D3758F50196A11DB11D2093DF0324
:102120008093E0039093E103A093E203B093E30371
:102130008091E4039091E503A091E603B091E70359
:102140000196A11DB11D8093E4039093E503A09334
:10215000E603B093E703BF91AF919F918F913F91B9
:102160002F910F900FBE0F901F90189526E8230F08
:102170000296A11DB11DD2CF1F920F920FB60F92E2
:1021800011242F933F934F935F936F937F938F937C
:102190009F93AF93BF93EF93FF9388EE93E00E94DA
:1021A000F604FF91EF91BF91AF919F918F917F9135
:1021B0006F915F914F913F912F910F900FBE0F90B4
:1021C0001F9018951F920F920FB60F9211242F9304
:1021D0008F939F93EF93FF93E091F803F091F903AE
:1021E0008081E091FE03F091FF0382FD1BC090818E
:1021F000809101048F5F8F7320910204821741F058
:10220000E0910104F0E0E851FC4F958F80930104C8
:10221000FF91EF919F918F912F910F900FBE0F9093
:102220001F9018958081F4CF1F920F920FB60F92D6
:1022300011242F933F934F935F936F937F938F93CB
:102240009F93AF93BF93EF93FF938091B900887FE3
:10225000803609F44AC0F0F5883209F4A7C018F5B1
:10226000803109F49BC0B8F4882309F4F9C08830A0
:1022700009F494C0FF91EF91BF91AF919F918F911D
:102280007F916F915F914F913F912F910F900FBE72
:102290000F901F901895883109F488C0803251F74B
:1022A0008093620314C0803409F49DC040F48033ED
:1022B000B9F38833F9F68093620385ECB0C08035BA
:1022C00009F485C0883509F496C0883499F60E94CF
:1022D000EA0FD0CF883909F48CC038F5883729F057
:1022E00050F4883611F0803729F683E08093640338
:1022F00010923D0357C0883809F47BC0803919F02B
:10230000803809F0B7CF80913D03803208F071C06A
:10231000E0913D0381E08E0F80933D038091BB00EF
:10232000F0E0E35EFC4F80833DC0803B39F0E0F499
:10233000803A09F479C0883A09F09CCF84E0809310
:10234000640310921C0310921B03E0918E03F09122
:102350008F03099580911B0381110FC081E0809349
:102360001B031092FB0209C0803C09F4A6CF883CF5
:1023700009F4A3CF883B09F07DCFE0911C0381E0F5
:102380008E0F80931C03F0E0E550FD4F8081809319
:10239000BB0090911C0380911B0329C080913F03D7
:1023A0008093BB0085EC8093BC0064CF9091610367
:1023B00080916003981758F5E091610381E08E0FDA
:1023C00080936103F0E0E05CFC4F8081E9CFE09115
:1023D000610381E08E0F809361038091BB00F0E088
:1023E000E05CFC4F808390916103809160039817BB
:1023F000C8F285E8D8CFE091610381E08E0F809329
:1024000061038091BB00F0E0E05CFC4F8083809131
:10241000630381115CCF81E080933E0384EA809363
:10242000BC001092640326CF85EC8093BC00109210
:10243000640380913D03803230F4E0913D03F0E08D
:10244000E35EFC4F108260913D0370E0E0918C03ED
:10245000F0918D038DE193E0099510923D030ACF31
:102460001092620334CFE8EEF3E01382128288EE1A
:1024700093E0A0E0B0E084839583A683B7832CE348
:1024800031E03183208325EC30E03587248724EC4C
:1024900030E03787268720EC30E0318B208B21EC31
:1024A00030E0338B228B22EC30E0358B248B26EC12
:1024B00030E0378B268B118E128E138E148EE5E84A
:1024C000F4E01382128284839583A683B7838EE41B
:1024D00091E091838083E4EAF4E01382128280E643
:1024E00091E0918380838FE3848384E1818784E01A
:1024F00082871386A1E9B4E015968C9315978BE03B
:1025000016968C931697E2E6F3E0E4911796EC9317
:102510001797EEE4F3E0E4911896EC93189740E8EF
:102520005EE360E070E01D964D935D936D937C9348
:1025300050970895CF93DF93CDB7DEB76E970FB660
:10254000F894DEBF0FBECDBF789484B5826084BDA1
:1025500084B5816084BD85B5826085BD85B58160A7
:1025600085BD80916E00816080936E001092810025
:1025700080918100826080938100809181008160E0
:1025800080938100809180008160809380008091A1
:10259000B10084608093B1008091B000816080932D
:1025A000B00080917A00846080937A0080917A00F4
:1025B000826080937A0080917A00816080937A00B3
:1025C00080917A00806880937A001092C100E09137
:1025D000F803F091F90382E08083E091F403F09135
:1025E000F5031082E091F603F091F7038FEC8083FE
:1025F00010920004E091FC03F091FD0386E08083DB
:10260000E091FA03F091FB03808180618083E09187
:10261000FA03F091FB03808188608083E091FA03E4
:10262000F091FB03808180688083E091FA03F09150
:10263000FB0380818F7D808362E0809196040E94FD
:1026400073020E940D03605D7740810991096093D8
:102650009A0470939B0480939C0490939D0487E359
:102660008093A3041092930310929203109291030B
:10267000109290030E94AC058FE194E090938F0339
:1026800080938E0380E294E090938D0380938C037B
:102690001092A9048091AE04823018F098E09093D3
:1026A000A9048093AC0462E370E080E090E00E94B3
:1026B000DB026091AF0484EA94E00E94710668EE48
:1026C00073E080E090E00E94DB0260E384EA94E043
:1026D0000E94FA080BE416E4C8010197F1F760E3E1
:1026E00084EA94E00E94FA08C8010197F1F760E3D8
:1026F00084EA94E00E94FA0883E592E00197F1F7FA
:1027000060E284EA94E00E94FA086091A9046062A1
:1027100040E084EA94E00E94130984E08093AA04D4
:1027200040E06CE084EA94E00E9413090E945E0994
:1027300082E08093AB0440E066E084EA94E00E948B
:10274000130940E062E084EA94E00E9413098BE3FD
:102750009FE10197F1F788E08093AF0460E084EA9D
:1027600094E00E94710662E082E00E94730261E0E0
:1027700083E00E94730261E085E00E94730261E0E1
:1027800086E00E94730261E087E00E94730261E0CC
:1027900088E00E94730261E089E00E94730261E0B8
:1027A0008AE00E9473020E947E070E945E0960E038
:1027B00083E00E942A096CE571E084EA94E00E94BB
:1027C000220461E080E00E942A0968E471E084EA62
:1027D00094E00E94220462E082E00E942A0967E3FA
:1027E00071E084EA94E00E94220463E084E00E94A5
:1027F0002A0965E271E084EA94E00E94220460ED17
:1028000077E080E090E00E94DB020E945E098DE6A6
:1028100091E00E94990744244A94F3E05F2E612CD2
:10282000712C0E941903882341F0809197048C3009
:1028300009F464C048F48B3001F1C12CD12C60EC58
:10284000E62E6FE7F62E43C085518230B0F7109127
:102850009304612F70E0762F662766277F7780913B
:102860009404682B90E080E00E94FF1E2DEC3CEC6D
:102870004CEC5DE30E94601F5DC06091930470E0CA
:1028800090E080E00E94FF1E6B017C011091940497
:1028900017FF0AC0AC019B0160E070E080E89FEB8D
:1028A0000E94B3206B017C011F70612F70E090E0EB
:1028B00080E00E94011F2DEC3CEC4CEC5DE30E949B
:1028C000601FA70196010E94B4206B017C010E9449
:1028D0001903882311F40C94151D809197048B30F3
:1028E00030F08D3080F18551823008F446C1812C62
:1028F000912C50ECA52E5FE7B52E43C010919304A8
:10290000612F70E090E080E00E94FF1E6B017C016F
:10291000609194046F7070E090E080E00E94011F6D
:102920002DEC3CEC4CEC5DE30E94601FA70196018E
:102930000E94B4206B017C0117FFC9CFF7FAF09415
:10294000F7F8F094C4CF6091920470E090E080E0DA
:102950000E94011F2DEC3CEC4CEC5DE30E94601FDB
:102960004B015C016091910470E090E080E00E9476
:10297000011F9B01AC01C501B4010E94B4204B01B1
:102980005C01A7019601C701B6010E941D228823A0
:1029900011F40C94241DA5019401C501B4010E94F9
:1029A0001D22811108C08092C8039092C903A09291
:1029B000CA03B092CB038FE00E94A40224E630E069
:1029C000DC010E945723A30192010E942120309331
:1029D000C7032093C60380E10E94A40224E630E0EE
:1029E000DC010E945723A30192010E94212059017A
:1029F0003093C5032093C4038EE00E94A402BC015F
:102A0000990F880B990B0E94011F2AE038E240EAD7
:102A10005BE30E94601F6B017C012AE037ED43EA13
:102A20005CE30E94FA1E87FF08C03AE0C32E37ED30
:102A3000D32E33EAE32E3CE3F32EA701960160E0A8
:102A400070E080EA90E40E94B32020E030E040E2B1
:102A500051E40E94601FA70196010E9420216B0192
:102A60007C012DEC3CEC4CE45DE30E94FA1E87FFF8
:102A700008C02DECC22E2CECD22E2CE4E22E2DE33D
:102A8000F22E20E030E04AE754E4C701B6010E948C
:102A9000601F28E834EF43EB5FEB0E94CD2123E178
:102AA00036E04FE35BE40E94601F6B017C0120E095
:102AB00030E0A9010E94FA1E87FD71C020E030E5D8
:102AC00043EC57E4C701B6010E94C82118160CF464
:102AD0006AC0C092D003D092D103E092D203F092A8
:102AE000D303EEE2F3E08491E0E6F3E01491ECE44A
:102AF000F3E00491002309F45EC081110E941C02DE
:102B0000E02FF0E0EE0FFF1FE05CFC4FA591B491C9
:102B10008C91182331E020E009F430E0832F922FCC
:102B2000F1E08F2781708093D40381E02AE0A21620
:102B3000B1040CF080E08093DE0388EE93E00E9405
:102B4000D604892B09F4A1C06AE671E0CE01439650
:102B50000E94070B0E94960497FD30C08A309105B1
:102B600069F189831A8241E050E0BE016F5F7F4FB7
:102B7000CE0143960E94310AEDCF6091910470918D
:102B8000920476276727762790E080E00E94FF1E58
:102B90002DEC3CEC4CEC5DE30E94601FF0CEC12CB0
:102BA000D12C760196CFC12C90E5D92E93ECE92E4D
:102BB00097E4F92E8ECF90E080E0B2CFCB88DC880E
:102BC000C114D10439F00F89188D76010115110552
:102BD00009F080C08F89988D892B09F452C070E06C
:102BE00060E0CE0143960E946F098C018F3F9807E9
:102BF00009F0A6C0BE016D5E7F4FCE010D960E940A
:102C0000FE0A6AE671E0CE0107960E94070BCE012C
:102C10000D960E948B0969E372E0CE010D960E9429
:102C2000A109882309F4A6C0CE0107960E948B094A
:102C300062E472E0CE0107960E94A10991E0811141
:102C400001C090E090932901811102C00E947E078B
:102C50006DE872E088EE93E00E94220480912901E1
:102C6000882309F484C088E892E00E9499070E94B2
:102C70005E09CE0107960E94010ACE010D960E94C0
:102C8000010ACE0143960E94010A80912901009118
:102C9000DE03882309F426C3C090CC03D090CD0373
:102CA000E090CE03F090CF0320911D0130911E01E2
:102CB00040911F0150912001C701B6010E94C82117
:102CC00018160CF0A6C281E08093C3031092C203D1
:102CD000B3C2740147018FEF881A980AF701808107
:102CE000082E000C990B0E94C91E892B91F70150E8
:102CF00011090C0D1D1DF8018081082E000C990B87
:102D00000E94C91E892B31F00E151F0518F00150C5
:102D10001109F1CFA8014F5F5F4F4E195F09588F1E
:102D20004F8BCE14DF0420F4B701C6010E944E255C
:102D3000EB89FC898F89988DE80FF91F10824ACFA3
:102D40009C0150E040E0BE016D5E7F4FCE010D96CC
:102D50000E94180B2F89388DA8014F5F5F4FBE016D
:102D60006D5E7F4FCE0107960E94180B50CF81E811
:102D700092E07BCF67E472E0CE010D960E94A1093C
:102D8000882309F465C0BE01695F7F4FCE010196BB
:102D90000E94FE0A70E060E0CE0101960E942210BF
:102DA0004B015C01CE0101960E94010ABE01695FE0
:102DB0007F4FCE0101960E94FE0A61E070E0CE01D5
:102DC00001960E9422106B017C01CE0101960E94A7
:102DD000010AA7019601C501B4010E94FA1E87FFEE
:102DE00010C08092210190922201A0922301B09202
:102DF0002401C0921D01D0921E01E0921F01F092A9
:102E0000200163E772E088EE93E00E942204609163
:102E1000210170912201809123019091240142E0CF
:102E20000E941E0861E772E088EE93E00E9422048F
:102E300060911D0170911E0180911F0190912001F0
:102E400042E00E941E0888E691E00E948C0711CFA4
:102E500060E572E0CE010D960E94A109882309F475
:102E60004CC0BE01695F7F4FCE0101960E94FE0AF1
:102E700070E060E0CE0101960E9422100E94922133
:102E80004B01CE0101960E94010ABE01695F7F4F8E
:102E9000CE0101960E94FE0A61E070E0CE0101962B
:102EA0000E9422100E9492216B01CE0101960E9485
:102EB000010A8C149D0444F4909214018092130131
:102EC000D0921201C092110163E672E088EE93E0A5
:102ED0000E94220480911301909114010E94EE0738
:102EE00061E672E088EE93E00E9422048091110175
:102EF000909112010E94EE07A6CF69E572E0CE0123
:102F00000D960E94A109882309F45EC0BE01695F85
:102F10007F4FCE0101960E94FE0A70E060E0CE0174
:102F200001960E9422104B015C01CE0101960E9485
:102F3000010ABE01695F7F4FCE0101960E94FE0A21
:102F400061E070E0CE0101960E9422106B017C01CD
:102F5000CE0101960E94010AA7019601C501B401A4
:102F60000E94FA1E87FF10C08092190190921A01E8
:102F7000A0921B01B0921C01C0921501D0921601C3
:102F8000E0921701F092180163E572E088EE93E099
:102F90000E9422046091190170911A0180911B0115
:102FA00090911C0142E00E941E0861E572E088EEEB
:102FB00093E00E94220460911501709116018091A6
:102FC0001701909118013CCF62E672E0CE010D9698
:102FD0000E94A109882309F441C0BE01695F7F4FA7
:102FE000CE0101960E94FE0A70E060E0CE010196DB
:102FF0000E9422100E9492216B01CE0101960E9434
:10300000010ABE01695F7F4FCE0101960E94FE0A50
:1030100061E070E0CE0101960E9422100E94922190
:103020004B01CE0101960E94010A97FC32C5D7FCE4
:103030000DC0D0922801C0922701C814D9040CF405
:103040000DC583E092E00E94990713CEC814D904FD
:10305000C4F79092260180922501F3CF6CE672E0CE
:10306000CE010D960E94A1098823D9F00B851C85FD
:103070000115110529F41092940386EF91E0E3CF36
:103080000932110510F009E210E06F817885A8017E
:1030900084E993E00E948025F801EC56FC4F1082F1
:1030A000ECCF65E772E0CE010D960E94A109182FC2
:1030B0008823E9F00B851C850115110539F4109260
:1030C00000011092100187EE91E0CFCD0031110583
:1030D00010F000E110E06F817885A80180E091E0B8
:1030E0000E948025F801E050FF4F1082EACF8091C6
:1030F0002901811167C060E872E0CE0107960E9445
:10310000A109082F11E0811101C010E062E872E00E
:10311000CE010D960E94A109882389F01093C30364
:103120006DEB71E088EE93E00E94220449895A8990
:103130006D857E8588EE93E00E94460484CE6BE820
:1031400072E0CE010D960E94A109882319F0109318
:10315000C203E6CF64E972E0CE010D960E94A10998
:10316000882319F01093C103DBCF6CE972E0CE0124
:103170000D960E94A109882319F01093C003D0CFA7
:1031800066EA72E0CE010D960E94A109882319F02B
:103190001093BF03C5CF61EB72E0CE010D960E9484
:1031A000A109882361F0002339F08EEC91E02AE038
:1031B000A216B1040CF447CF1093DD03B1CF82EC1B
:1031C00091E041CF69EB72E0CE0101960E94070BBE
:1031D0004D815E8189899A898417950778F08D855C
:1031E0009E85009759F069817A816115710531F0EA
:1031F0000E94722511E0892B09F010E0CE010196A2
:103200000E94010A80EA91E011111DCF84E991E04A
:103210001ACF209121013091220140912301509138
:103220002401C701B6010E94FA1E87FFA4C281E0F3
:103230008093C2031092C303C090C803D090C90307
:10324000E090CA03F090CB0311E02091150130917A
:1032500016014091170150911801C701B6010E9453
:10326000C82118160CF010E01093C003209119012A
:1032700030911A0140911B0150911C01C701B60108
:103280000E94FA1E881F8827881F8093BF038091A1
:10329000C6039091C7032091130130911401821746
:1032A00093070CF06BC2011169C281E08093DD03CA
:1032B0006091270170912801072E000C880B990B53
:1032C0000E94011F11E02091D0033091D103409161
:1032D000D2035091D3030E94C82118160CF010E0BD
:1032E0001093C103102F01111092DD030E945B07A0
:1032F0000E940D03C090D903D090DA03E090DB0365
:10330000F090DC036C197D098E099F09613D7740BF
:103310008105910508F4A5C0C090CC03D090CD03E1
:10332000E090CE03F090CF0320911D0130911E015B
:1033300040911F0150912001C701B6010E94C82190
:1033400018160CF428C220912101309122014091DD
:10335000230150912401C701B6010E94FA1E87FD86
:103360001AC2C090C803D090C903E090CA03F0907D
:10337000CB03209115013091160140911701509116
:103380001801C701B6010E94C82118160CF403C227
:103390002091190130911A0140911B0150911C019B
:1033A000C701B6010E94FA1E87FDF5C18091C603D0
:1033B0009091C70320911301309114018217930754
:1033C0000CF4E9C12091110130911201281739073D
:1033D0000CF4E1C1C090D003D090D103E090D203AF
:1033E000F090D3036091270170912801072E000C03
:1033F000880B990B0E94011FA70196010E94C8210A
:1034000018160CF4C8C16091250170912601072E91
:10341000000C880B990B0E94011F9B01AC01C70196
:10342000B6010E94C82118160CF4B5C1011102C0E2
:103430001091D4038091BE03811721F00E945E0990
:103440001093BE03112309F4A8C10E94B40B0E947B
:103450000D036093D9037093DA038093DB03909399
:10346000DC030E940D030091D5031091D603209137
:10347000D7033091D803601B710B820B930B613D16
:1034800077408105910508F469C18091DE038823A6
:1034900021F089E093E00E9499078091D40388236A
:1034A00021F08CEF92E00E949907609127017091C2
:1034B0002801072E000C880B990B0E94011F2091F8
:1034C000D0033091D1034091D2035091D3030E9495
:1034D000C821181624F489EE92E00E9499076091A1
:1034E000250170912601072E000C880B990B0E9474
:1034F000011F2091D0033091D1034091D20350910C
:10350000D3030E94FA1E87FF04C085ED92E00E945B
:1035100099076FEC72E088EE93E00E9422046091BC
:10352000CC037091CD038091CE039091CF0341E005
:103530000E941E086DEC72E088EE93E00E94220467
:103540006091C8037091C9038091CA039091CB0325
:1035500041E00E941E086BEC72E088EE93E00E944E
:1035600022048091C6039091C7030E94EE0769EC84
:1035700072E088EE93E00E9422048091C40390914F
:10358000C5030E94EE0767EC72E088EE93E00E94AC
:1035900022046091D0037091D1038091D203909165
:1035A000D30341E00E941E0865EC72E088EE93E0D0
:1035B0000E9422048091D40390E00E94EE0763EC05
:1035C00072E088EE93E00E9422048091C30390E0B1
:1035D0000E94EE0761EC72E088EE93E00E94220404
:1035E0008091DD0390E00E94EE076FEB72E088EEC1
:1035F00093E00E9422048091C20390E00E94EE07B3
:103600006DEB72E088EE93E00E9422048091C1038A
:1036100090E00E94EE076BEB72E088EE93E00E9470
:1036200022048091C00390E00E94EE0769EB72E0F3
:1036300088EE93E00E9422048091BF0390E00E94F4
:10364000EE0767EB72E088EE93E00E94220460913F
:10365000210170912201809123019091240141E088
:103660000E941E0865EB72E088EE93E00E9422043F
:1036700060911D0170911E0180911F0190912001A8
:1036800041E00E941E0863EB72E088EE93E00E9426
:1036900022046091190170911A0180911B0190918F
:1036A0001C0141E00E941E0861EB72E088EE93E08D
:1036B0000E942204609115017091160180911701FA
:1036C0009091180141E00E941E086FEA72E088EEB6
:1036D00093E00E94220480911301909114010E94B2
:1036E000EE076DEA72E088EE93E00E94220480917A
:1036F0001101909112010E94EE076BEA72E088EED0
:1037000093E00E94220480912701909128010E9459
:10371000EE0769EA72E088EE93E00E94220480914D
:103720002501909126010E94EE0767EA72E088EE7B
:1037300093E00E94220480912901882309F472C138
:1037400082EA92E00E9499070E940D036093D503DC
:103750007093D6038093D7039093D80380E090E0D2
:10376000892B09F45EC80E94E204882309F459C831
:103770000E94000056C81092C303A8CA20911101EC
:1037800030911201821793071CF4002309F490CDA5
:103790001092DD038DCD11E04DCE60E071E0CE01E1
:1037A00001960E94070BBE016F5F7F4F90E080E0A3
:1037B0000E94640BCE0101960E94010A6091C6032B
:1037C0007091C703CE0101960E94BB0A6091C803A5
:1037D0007091C9038091CA039091CB030E949221FA
:1037E000CE0107960E94BB0A6091CC037091CD0375
:1037F0008091CE039091CF030E949221CE010D962D
:103800000E94BB0A6EEB72E0CE0143960E94070B4A
:10381000BE01635F7F4FCE0143960E94730A61EC45
:1038200072E00E945D0ABE01695F7F4F0E94730AC9
:1038300066EC72E00E945D0ABE016F5F7F4F0E94DE
:10384000730A6AEC71E00E945D0ABC01CE014996E0
:103850000E94FE0ACE0143960E94010ACE010D96F7
:103860000E94010ACE0107960E94010ACE0101962C
:103870000E94010ABE01675E7F4FCE0101960E9441
:10388000FE0ABE016F5F7F4F81E090E00E94640BF3
:10389000CE0101960E94010A6091D0037091D1037C
:1038A0008091D2039091D3030E949221CE01019680
:1038B0000E94BB0A6091C4037091C503CE010796B4
:1038C0000E94BB0A6BEC72E0CE010D960E94070BC2
:1038D000BE01695F7F4FCE010D960E94730A61EDB4
:1038E00072E00E945D0ABE016F5F7F4F0E94730A03
:1038F00066ED72E00E945D0ABC01CE0143960E9413
:10390000FE0ACE010D960E94010ACE0107960E9482
:10391000010ACE0101960E94010ABE016D5E7F4F31
:10392000CE0101960E94FE0ABE016F5F7F4F82E0CA
:1039300090E00E94640BCE0101960E94010A8091E2
:10394000290167E771E0811102C06DE771E0CE01E6
:1039500007960E94070B8091C30363E871E0811111
:1039600002C066E871E0CE0107960E94860A809147
:10397000DD0369E871E0811102C06CE871E0CE01FD
:1039800007960E94860A8091C2036FE871E0811158
:1039900002C062E971E0CE0107960E94860A80911A
:1039A000C10365E971E0811102C068E971E0CE01EF
:1039B00007960E94860A8091C0036BE971E081112D
:1039C00002C06EE971E0CE0107960E94860A8091DE
:1039D000BF0361EA71E0811102C064EA71E0CE01C7
:1039E00007960E94860ABE01695F7F4FCE0101964D
:1039F0000E94FE0ABE016F5F7F4F83E090E00E944D
:103A0000640BCE0101960E94010ACE0107960E9426
:103A1000010ACE0143960E94010ACE0149960E94F6
:103A2000010A15CD8BE992E08DCEA7019601C70161
:103A3000B6010E941D22812C912C40ECA42E4FE750
:103A4000B42E81110C94DB14C092CC03D092CD0320
:103A5000E092CE03F092CF030C94CB149092260107
:103A60008092250162E472E088EE93E00E942204D5
:103A700080912701909128010E94EE0760E472E096
:103A800088EE93E00E942204809125019091260106
:103A900031CAD7FCD6CAD0922801C0922701D1CA18
:103AA000662777270C94791DBB274A3031F4992378
:103AB00022F4BDE2909581959F4F0C94601DBB2729
:103AC000FB015527AA27880F991FAA1FA41710F0DA
:103AD000A41B83955051B9F7A05DAA3308F0A95DE6
:103AE000A193009779F7B111B1931192CB010C9486
:103AF000EA1EB0E0A0E0EFE7FDE10C9451205C018C
:103B00007B016115710519F0DB018D939C93850193
:103B10000F5F1F4FF501D0818D2F90E00E94C91ECD
:103B20006C01892BB9F5DD32B9F50F5F1F4FD50157
:103B30001196DC91C1E05801F1E0AF1AB10843E001
:103B400050E062EF70E0C5010E94D21E892B69F53A
:103B5000680182E0C80ED11C45E050E06DEE70E0D7
:103B6000C6010E94D21E892B21F4680197E0C90E7C
:103B7000D11CE114F10419F0D701CD92DC9260E080
:103B800070E080E89FEFC111FFC060E070E080E866
:103B90009FE7FAC05801BBCFDB3229F485010E5FE5
:103BA0001F4FF501D181C0E0C6CF43E050E06AEE7F
:103BB00070E0C5010E94D21E892BE9F0F80110E0E7
:103BC00000E020E030E0A9015F01B0ED8B2E8D0E0A
:103BD00089E08815C8F19C2E689491F88C2F887024
:103BE000C2FF16C0811102C00F5F1F4F3196D50171
:103BF000DC91C92DE9CFE114F10429F00E5F1F4FCC
:103C0000F7011183008360E070E080EC9FE7BCC0A7
:103C1000882311F001501109A5E0B0E00E94402076
:103C20009B01AC01220F331F441F551F280D311D6E
:103C3000411D511D283999E93907490799E159076B
:103C4000A8F2C6609C2ED2CFAEEF8A1206C0C3FD8A
:103C50003CC09C2E689493F8C9CFDF7DD534A9F57C
:103C600080818D3239F4C061DF011296818162E07A
:103C700070E006C0DF018B32C1F3119661E070E0A5
:103C800080535D01A61AB70A8A30F8F4E0E8CE1630
:103C9000ECE0DE065CF4B601660F771F660F771F57
:103CA000C60ED71ECC0CDD1CC80ED11C5D01FFEF6B
:103CB000AF1ABF0A8C9180538A30A8F1C4FF03C0A9
:103CC000D194C194D1080C0D1D1DC1FF09C0E11490
:103CD000F10431F081E0A81AB108D701AD92BC928D
:103CE000CA01B9010E94FF1EC370C33009F4905885
:103CF0004B015C0120E030E0A9010E94FA1E8823FC
:103D000009F440C0C1E2D1E017FF05C0119501954B
:103D10001109C9E0D1E06E01B8E1CB1AD10880E207
:103D2000E82EF12C0FC0D501B1CFFE0125913591C0
:103D3000459154910E191F09C501B4010E94601FDD
:103D40004B015C01D501C4010E151F0574F72497C2
:103D5000F594E794CC16DD06A9F78A2F880F8B2FF0
:103D6000881F8F3F49F020E030E0A901C501B40170
:103D70000E94FA1E811106C082E290E09093B10485
:103D80008093B004C501B401CDB7DEB7ECE00C946C
:103D90006D2091110C94CD1F803219F089508550FF
:103DA000C8F70895FB01DC014150504088F08D9127
:103DB00081341CF08B350CF4805E659161341CF00D
:103DC0006B350CF4605E861B611171F3990B0895DD
:103DD000881BFCCFDC01FC01672F71917723E1F791
:103DE000329704C07C916D9370836291AE17BF07C8
:103DF000C8F308950E943C1F08F481E00895E894F8
:103E000009C097FB3EF490958095709561957F4F22
:103E10008F4F9F4F9923A9F0F92F96E9BB279395D0
:103E2000F695879577956795B795F111F8CFFAF4E0
:103E3000BB0F11F460FF1BC06F5F7F4F8F4F9F4F11
:103E400016C0882311F096E911C0772321F09EE86F
:103E5000872F762F05C0662371F096E8862F70E0D5
:103E600060E02AF09A95660F771F881FDAF7880FAF
:103E70009695879597F90895990F0008550FAA0B05
:103E8000E0E8FEEF16161706E807F907C0F012166D
:103E90001306E407F50798F0621B730B840B950B70
:103EA00039F40A2661F0232B242B252B21F40895C5
:103EB0000A2609F4A140A6958FEF811D811D089562
:103EC0000E94731F0C94E71F0E94D91F38F00E94B4
:103ED000E01F20F0952311F00C94D01F0C94D61FF6
:103EE00011240C941B200E94F81F70F3959FC1F3BE
:103EF000950F50E0551F629FF001729FBB27F00D98
:103F0000B11D639FAA27F00DB11DAA1F649F6627EC
:103F1000B00DA11D661F829F2227B00DA11D621F3B
:103F2000739FB00DA11D621F839FA00D611D221FF5
:103F3000749F3327A00D611D231F849F600D211DD9
:103F4000822F762F6A2F11249F5750409AF0F1F05C
:103F500088234AF0EE0FFF1FBB1F661F771F881FC5
:103F600091505040A9F79E3F510580F00C94D01F0E
:103F70000C941B205F3FE4F3983ED4F3869577952D
:103F80006795B795F795E7959F5FC1F7FE2B880F6B
:103F9000911D9695879597F90895992788270895F3
:103FA00097F99F6780E870E060E008959FEF80ECEC
:103FB000089500240A94161617061806090608958F
:103FC00000240A9412161306140605060895092EF5
:103FD0000394000C11F4882352F0BB0F40F4BF2B64
:103FE00011F460FF04C06F5F7F4F8F4F9F4F0895A4
:103FF00057FD9058440F551F59F05F3F71F047959A
:10400000880F97FB991F61F09F3F79F0879508957E
:10401000121613061406551FF2CF4695F1DF08C09D
:10402000161617061806991FF1CF869571056105BA
:1040300008940895E894BB2766277727CB0197F962
:104040000895052E97FB1EF400940E94382057FD1A
:1040500007D00E94822007FC03D04EF40C94382035
:1040600050954095309521953F4F4F4F5F4F0895A4
:1040700090958095709561957F4F8F4F9F4F0895D4
:104080000E94A420A59F900DB49F900DA49F800D29
:10409000911D112408952F923F924F925F926F923B
:1040A0007F928F929F92AF92BF92CF92DF92EF92C8
:1040B000FF920F931F93CF93DF93CDB7DEB7CA1B49
:1040C000DB0B0FB6F894DEBF0FBECDBF09942A8874
:1040D000398848885F846E847D848C849B84AA841C
:1040E000B984C884DF80EE80FD800C811B81AA81A9
:1040F000B981CE0FD11D0FB6F894DEBF0FBECDBF74
:10410000ED010895A1E21A2EAA1BBB1BFD010DC0F3
:10411000AA1FBB1FEE1FFF1FA217B307E407F50777
:1041200020F0A21BB30BE40BF50B661F771F881F53
:10413000991F1A9469F760957095809590959B01E9
:10414000AC01BD01CF010895A29FB001B39FC00192
:10415000A39F700D811D1124911DB29F700D811DB3
:104160001124911D08955058BB27AA270E94CB20E7
:104170000C94E71F0E94D91F38F00E94E01F20F026
:1041800039F49F3F19F426F40C94D61F0EF4E095F1
:10419000E7FB0C94D01FE92F0E94F81F58F3BA17C1
:1041A000620773078407950720F079F4A6F50C944D
:1041B0001A200EF4E0950B2EBA2FA02D0B01B90199
:1041C00090010C01CA01A0011124FF27591B99F08D
:1041D000593F50F4503E68F11A16F040A22F232F99
:1041E000342F4427585FF3CF469537952795A795E9
:1041F000F0405395C9F77EF41F16BA0B620B730B90
:10420000840BBAF09150A1F0FF0FBB1F661F771F00
:10421000881FC2F70EC0BA0F621F731F841F48F4B5
:10422000879577956795B795F7959E3F08F0B0CF3E
:104230009395880F08F09927EE0F97958795089525
:104240000E9434210C94E71F0E94E01F58F00E9446
:10425000D91F40F029F45F3F29F00C94D01F511171
:104260000C941B200C94D61F0E94F81F68F399230E
:10427000B1F3552391F3951B550BBB27AA27621762
:104280007307840738F09F5F5F4F220F331F441F6F
:10429000AA1FA9F335D00E2E3AF0E0E832D09150A3
:1042A0005040E695001CCAF72BD0FE2F29D0660F90
:1042B000771F881FBB1F261737074807AB07B0E8D3
:1042C00009F0BB0B802DBF01FF2793585F4F3AF0D9
:1042D0009E3F510578F00C94D01F0C941B205F3F3B
:1042E000E4F3983ED4F3869577956795B795F7955F
:1042F0009F5FC9F7880F911D9695879597F9089547
:10430000E1E0660F771F881FBB1F621773078407E2
:10431000BA0720F0621B730B840BBA0BEE1F88F7F1
:10432000E09508950E9499216894B1110C941B2086
:1043300008950E94002088F09F5798F0B92F992780
:10434000B751B0F0E1F0660F771F881F991F1AF080
:10435000BA95C9F714C0B13091F00E941A20B1E0AB
:1043600008950C941A20672F782F8827B85F39F0AA
:10437000B93FCCF3869577956795B395D9F73EF419
:1043800090958095709561957F4F8F4F9F4F0895C1
:104390000E943C1F08F48FEF0895FA01EE0FFF1FF3
:1043A000309621053105A1F16115710561F4803860
:1043B000BFE39B0749F168949038810561F080382C
:1043C000BFEF9B0741F099234AF5FF3FE105310517
:1043D000210519F1E8940894E795D901AA2329F455
:1043E000AB2FBE2FF85FD0F310C0FF5F70F4A6951F
:1043F000E0F7F73950F019F0FF3A38F49F779F93C0
:104400000DD00F9007FC9058089546F00C94D61FDD
:1044100060E070E080E89FE308954FE79F775F9347
:104420004F933F932F930E94CD222F913F914F9115
:104430005F910E94601F0C942A220E943C1F880BEF
:10444000990B089529F416F00C94D01F0C941A209F
:104450000C94D61F0E940020A8F39638A0F707F806
:104460000F92E8942BE33AEA48EB5FE70E94761F4D
:104470000F920F920F924DB75EB70F920E941523C5
:10448000E8E6F0E00E945C224F915F91EF91FF918E
:10449000E595EE1FFF1F49F0FE57E0684427EE0F39
:1044A000441FFA95E1F74195550B0E948F220F901A
:1044B00007FE0C9483220895DF93CF931F930F93ED
:1044C000FF92EF92DF927B018C01689406C0DA2E96
:1044D000EF010E94731FFE01E894A591259135918B
:1044E00045915591A6F3EF010E94CB20FE01970163
:1044F000A801DA9469F7DF90EF90FF900F911F9178
:10450000CF91DF9108959B01AC0160E070E080E8FD
:104510009FE30C9420210C94D01F0C9449230E94FB
:104520000020D8F39923C9F3940F511DA3F39150A0
:10453000504094F059F0882332F0660F771F881F9F
:1045400091505040C1F79E3F51052CF7880F911DA7
:104550009695879597F908955F3FACF0983E9CF04B
:10456000BB27869577956795B79508F4B1609395C5
:10457000C1F7BB0F58F711F460FFE8CF6F5F7F4FB3
:104580008F4F9F4FE3CF0C941B2016F00C944923C0
:104590000C94D61F68940C94D01F0E940020A8F39E
:1045A0009923C1F3AEF3DF93CF931F930F93FF9241
:1045B000C92FDD2788232AF02197660F771F881FD0
:1045C000DAF720E030E040E85FEB9FE3883920F045
:1045D000803E38F021968F770E94B420E0E9F0E029
:1045E00004C00E94B420EDEBF0E00E945C228B013D
:1045F000BE01EC01FB2E6F5771097595771F880B73
:10460000990B0E94011F28E132E741E35FE30E941A
:10461000731FAF2D9801AE01FF900F911F91CF91A5
:10462000DF910E94CB200C94E71FFA01DC01AA0F56
:10463000BB1F9B01AC01BF5728F422273327442717
:10464000507820C0B75190F4AB2F00244695379591
:104650002795011CA395D2F3002071F0220F331F80
:10466000441FB395DAF30ED00C94B320613071057A
:10467000A0E88A07B94630F49B01AC01662777278A
:1046800088279078309621F02083318342835383AA
:1046900008959F3F31F0915020F487957795679565
:1046A000B795880F911D9695879597F908950E9463
:1046B000A420B7FF0895821B930B0895EE0FFF1FF0
:1046C0000590F491E02D09940F931F93CF93DF93FE
:1046D0008230910510F482E090E0E091B404F09112
:1046E000B50430E020E0B0E0A0E0309799F4211567
:1046F000310509F44AC0281B390B24303105D8F59F
:104700008A819B816115710589F1FB019383828305
:10471000FE0111C040815181028113814817590760
:10472000E0F04817590799F4109761F012960C932E
:10473000129713961C933296CF01DF91CF911F9160
:104740000F9108950093B4041093B504F4CF21158C
:10475000310551F04217530738F0A901DB019A01E6
:10476000BD01DF01F801C1CFEF01F9CF9093B5048E
:104770008093B404CDCFFE01E20FF31F8193919398
:104780002250310939832883D7CF2091B204309148
:10479000B304232B41F420912C0130912D0130934F
:1047A000B3042093B20420912A0130912B012115EA
:1047B000310541F42DB73EB740912E0150912F01A4
:1047C000241B350BE091B204F091B304E217F30718
:1047D000A0F42E1B3F0B2817390778F0AC014E5F71
:1047E0005F4F2417350748F04E0F5F1F5093B304F7
:1047F0004093B204819391939FCFF0E0E0E09CCF8F
:10480000CF93DF930097E9F0FC0132971382128275
:10481000A091B404B091B504ED0130E020E0109710
:10482000A1F420813181820F931F2091B204309135
:10483000B3042817390709F061C0F093B304E0937B
:10484000B204DF91CF910895EA01CE17DF07E8F5B2
:104850004A815B819E0141155105B1F7E901FB8356
:10486000EA8349915991C40FD51FEC17FD0761F4F4
:10487000808191810296840F951FE9019983888335
:10488000828193819B838A83F0E0E0E012968D9190
:104890009C9113970097B9F52D913C911197CD01FB
:1048A0000296820F931F2091B2043091B30428170F
:1048B000390739F6309751F51092B5041092B404C7
:1048C000B093B304A093B204BCCFD383C28340811E
:1048D0005181840F951FC817D90761F44E5F5F4F50
:1048E00088819981480F591F518340838A819B8118
:1048F000938382832115310509F0B0CFF093B5047D
:10490000E093B4049ECFFD01DC01C0CF138212827C
:10491000D7CFB0E0A0E0EFE8F4E20C944D208C019A
:10492000009751F4CB010E9464238C01C801CDB7DC
:10493000DEB7E0E10C946920FC01E60FF71F9C0153
:1049400022503109E217F30708F49DC0D901CD9137
:10495000DC911197C617D70798F0C530D10530F311
:10496000CE0104978617970708F3C61BD70B22972B
:10497000C193D1936D937C93CF010E940024D6CF35
:104980005B01AC1ABD0A4C018C0E9D1EA091B404B3
:10499000B091B504512C412CF12CE12C109731F53C
:1049A0008091B2049091B3048815990509F05CC018
:1049B0004616570608F058C080912A0190912B01A5
:1049C000009741F48DB79EB740912E0150912F0171
:1049D000841B950BE817F90708F055C0F093B30452
:1049E000E093B204F90171836083A0CF8D919C9113
:1049F000119712966C90129713967C901397A815A6
:104A0000B90559F56C0142E0C40ED11CCA14DB048F
:104A100020F1AC014A195B09DA011296159780F072
:104A20006282738251834083D9016D937C93E11438
:104A3000F10471F0D7011396FC93EE93129776CFA1
:104A400022968C0F9D1FF90191838083F301EFCF94
:104A5000F093B504E093B40469CF4816590608F4FE
:104A60002C017D01D3019ACFCB010E9464237C01EC
:104A7000009749F0AE01B8010E944E25C8010E947E
:104A80000024870153CF10E000E050CF911108952A
:104A900081568A5108F4805285580895FB01DC0143
:104AA00002C001900D9241505040D8F70895FC018A
:104AB0008191861721F08823D9F799270895319796
:104AC000CF010895FB01DC018D9101908019011047
:104AD000D9F3990B0895FB01DC0101900D920020A0
:104AE000E1F70895FB01DC014150504030F08D9119
:104AF0000190801919F40020B9F7881B990B0895CB
:104B0000FB01DC014150504048F001900D92002023
:104B1000C9F701C01D9241505040E0F70895F89444
:024B2000FFCFC5
:104B2200532E502E522E4F2E552E540000000000B0
:104B32000046001E000000AA42000048420000F0A9
:104B4200410000904184032C01010000B604800062
:104B52000000400014005400000000001805460444
:104B620073046505D6048204C804000000004206EE
:104B720015065807EB050E06FB05EC0500000000C4
:104B820069094604580721040D0A006E616E006926
:104B92006E66006F7666004155544F20004D414EBF
:104BA200552000515400717400424D00626D005353
:104BB2005500737500444E00646E00484100686100
:104BC20000544100746100202121004E4F4E473AAB
:104BD20000433E0043004C414E483A00433C0051E2
:104BE200554120414D3A00253E00250051554120B6
:104BF2004B484F3A00253C00444154204B484F3A21
:104C020000444154204E4741503A00544F493A0023
:104C12006C75783C0053414E47205155413A006C27
:104C220075783E00424F4E2043414E21204355416C
:104C3200204D4F21003E3E3E20424F4E204E554FCA
:104C4200432043414E21003E3E3E204355412042F7
:104C5200554F4E47204D4F21005345545F4D4F4411
:104C620045004155544F005345545F54454D500043
:104C72005345545F534F494C005345545F48554D7B
:104C820049005345545F4C494748540041495F54D9
:104C92005556414E005345545F54454E43415900C9
:104CA2003100434D445F5155415400434D445F53DD
:104CB200554F4900434D445F44454E00434D445FC8
:104CC200485554414D00434D445F54414E47414D78
:104CD20000434D445F424F4D00434D445F00543A00
:104CE200004320483A002520443A004E756F633A4B
:0A4CF200002520533A006C7578008D
:00000001FF
