:020000040000FA
:100000000C94A5010C94CD010C94CD010C94CD0160
:100010000C94CD010C94CD010C94CD010C94CD0128
:100020000C94CD010C94CD010C94CD010C94CD0118
:100030000C94CD010C94CD010C94CD010C94CD0108
:100040000C94ED0F0C94CD010C945D100C943710B2
:100050000C94CD010C94CD010C94CD010C94CD01E8
:100060000C948F100C94CD0107634236B79BD8A730
:100070001A39685618AEBAAB558C1D3CB7CC5763CD
:10008000BD6DEDFD753EF6177231BF000000803F7B
:1000900008000000BE922449123EABAAAA2ABECD97
:1000A000CCCC4C3E00000080BEABAAAAAA3E000009
:1000B0000000BF000000803F000000000008417801
:1000C000D3BB4387D1133D190E3CC3BD4282AD2B38
:1000D0003E68EC8276BED98FE1A93E4C80EFFFBE30
:1000E00001C4FF7F3F00000000004E414E494E49D1
:1000F0005459494E46CDCCCC3D0AD7233C17B7D1F5
:100100003877CC2B329595E6241FB14F0A0000209A
:10011000410000C84200401C4620BCBE4CCA1B0E19
:100120005AAEC59D7444616E67206B686F69206428
:100130006F6E672E2E2E00496F542050726F6A65C5
:100140006374203230323500536D61727420506C0C
:10015000616E7420547261636B657200532E502E71
:10016000522E4F2E552E542076322E35005350529B
:100170004F55545F52454144592C532E502E522E08
:100180004F2E552E542076322E352053616E20731B
:10019000616E67004552522C4C454E485F4C410001
:1001A0004552522C44414E475F4155544F5F4B4896
:1001B0004F4E475F4E48414E5F434D440041434BD5
:1001C0002C004552522C4C454E485F4C4100455244
:1001D000522C424F4D5F42495F4B484F412C4E5588
:1001E0004F435F4845540041434B2C5345545F54A3
:1001F000454E4341590041434B2C41495F545556AC
:10020000414E004552522C5345545F4C4947485487
:100210002C4749415F5452495F504841495F54520D
:100220004F4E475F305F3130303030300041434B0C
:100230002C5345545F4C494748542C002C004143F3
:100240004B2C5345545F48554D492C002C004143DD
:100250004B2C5345545F534F494C2C002C004143C9
:100260004B2C5345545F54454D502C004D414E5539
:10027000414C004155544F0041434B2C5345545F72
:100280004D4F44452C004D414E55414C0041555475
:100290004F002C002C002C002C002C002C002C00DB
:1002A0002C002C002C002C002C002C002C002C00EE
:1002B0002C002C002C002C00444154412C00414CBB
:1002C0004552542C414E485F53414E475F59455566
:1002D00000414C4552542C4355415F4D4F00414C19
:1002E0004552542C4E554F435F43414E0000000091
:1002F00000240027002A0000000000250028002B11
:1003000000000000080002010000030407000000D4
:100310000000000000000000002300260029000467
:10032000040404040404040202020202020303039C
:100330000303030102040810204080010204081096
:100340002001020408102000AE1111241FBECFEFBF
:10035000D8E0DEBFCDBF12E0A0E0B1E0EEE2F9E40C
:1003600002C005900D92AA3CB107D9F724E0AAEC8F
:10037000B2E001C01D92A63AB207E1F711E0C5EA6A
:10038000D1E004C02197FE010E946422C43AD10743
:10039000C9F70E9415120C9495240C940000CF927A
:1003A000DF92EF92FF92CF93DF93B0918804A0E0A9
:1003B0008111AB2F8091890490E0880F991FAC01C7
:1003C0004B5E5C4FC0908E04D0908F04E090900400
:1003D000F090910430E020E0FA01C591D491E881D9
:1003E000B90190E080E0EB23EA130AC02F5F3F4F92
:1003F0006C157D058E059F0578F36FEF7FEFCB01C0
:10040000DF91CF91FF90EF90DF90CF9008958330F0
:1004100081F028F4813099F08230A9F00895873076
:10042000A9F08830C9F08430B1F4809180008F7DCC
:1004300003C0809180008F7780938000089584B5F9
:100440008F7784BD089584B58F7DFBCF8091B000F8
:100450008F778093B00008958091B0008F7DF9CFA1
:100460001F93CF93DF93282F30E0F901EF5FFC4F0C
:100470008491F901ED5CFC4FD491F901E15EFC4FF0
:10048000C491CC23A9F0162F81110E940702EC2FF2
:10049000F0E0EE0FFF1FE950FD4FA591B4918FB72B
:1004A000F894EC91111108C0D095DE23DC938FBF36
:1004B000DF91CF911F910895DE2BF8CFCF93DF937B
:1004C00090E0FC01ED5CFC4F2491815E9C4FFC01AF
:1004D00084918823D1F090E0880F991FFC01E351AB
:1004E000FD4FA591B491FC01E950FD4FC591D49108
:1004F000623071F49FB7F8943C91822F80958323EA
:100500008C93E8812E2B28839FBFDF91CF91089594
:100510008FB7F894EC912E2B2C938FBFF6CF8E5083
:10052000806480937C0080917A00806480937A005C
:1005300080917A0086FDFCCF8091780090917900BF
:1005400008953FB7F8948091D4039091D503A0917A
:10055000D603B091D70326B5A89B05C02F3F19F04D
:100560000196A11DB11D3FBFBA2FA92F982F882733
:10057000BC01CD01620F711D811D911D42E0660F0E
:10058000771F881F991F4A95D1F708958F929F92E0
:10059000AF92BF92CF92DF92EF92FF924B015C013C
:1005A0000E94A1026B017C010E94A1026C197D09CD
:1005B0008E099F09683E734081059105A8F321E0EB
:1005C000821A9108A108B10888EEC80E83E0D81EEF
:1005D000E11CF11C81149104A104B10429F7FF90DE
:1005E000EF90DF90CF90BF90AF909F908F90089545
:1005F0002FB7F8946091D0037091D1038091D2030A
:100600009091D3032FBF0895CF92DF92EF92FF9284
:100610000F931F93CF93DF93CDB7DEB7C054D14074
:100620000FB6F894DEBF0FBECDBF0E94F802009156
:100630008A0410918B0420918C0430918D046B01FD
:100640007C01C01AD10AE20AF30A97018601003D33
:1006500017402105310590F480919204C05CDE4F73
:100660000FB6F894DEBF0FBECDBFDF91CF911F91C3
:100670000F91FF90EF90DF90CF90089560938A04E0
:1006800070938B0480938C0490938D041092850456
:1006900010928404109283041092820410928104B8
:1006A00062E0809186040E945E0261E070E080E07A
:1006B00090E00E94C60261E0809186040E945E0282
:1006C00060E0809186040E94300280918704855109
:1006D000823020F58BE291E10197F1F762E08091A1
:1006E00086040E945E028091930490E0823091051E
:1006F00038F0880F991F880F991F05970197F1F718
:10070000F89480E00E94CF016F3F7F4F8F4F9F4F43
:1007100061F410929204789480E0A0CF64E170E0DC
:1007200080E090E00E94C602D9CF81E00E94CF0114
:100730006F3F7F4F8F4F9F4F61F38E010F5F1F4FB2
:100740006E012FEBC21A2EEFD20A780180E00E94D0
:10075000CF01F701608371838283938381E00E94DC
:10076000CF01F7016483758386839783F8E0EF0EEA
:10077000F11CEC14FD0451F7789430E020E0F8010E
:10078000C080D180E280F380448155816681778189
:10079000FFEFCF16DF06EF06FF0631F04F3F8FEF7A
:1007A00058076807780719F410929204B5CFF90139
:1007B00083E0F595E7958A95E1F7EF57FB4F808148
:1007C000880FC416D506E606F70610F180832F5F62
:1007D0003F4F085F1F4F2832310589F6409185044D
:1007E0002091810480918204280F3327331F809148
:1007F0008304280F311D80918404820F932F911D53
:1008000099274817190681F681E08093920426CF34
:100810008160DCCF089508950895EF92FF920F93C1
:100820001F93CF93DF938C017B01D0E0C0E0F701F1
:10083000EC0FFD1F6491662361F0D801ED91FC91EE
:100840000190F081E02DC8010995892B11F02196C6
:10085000EECFCE01DF91CF911F910F91FF90EF90DE
:100860000895AF92BF92CF92DF92EF92FF920F93D3
:100870001F93CF93DF936C017B018B01040F151F36
:10088000EB015E01AE18BF08C017D10759F069919E
:10089000D601ED91FC910190F081E02DC601099502
:1008A000892B79F7C501DF91CF911F910F91FF90AF
:1008B000EF90DF90CF90BF90AF900895FC01538DE3
:1008C000448D252F30E0842F90E0821B930B54172A
:1008D00010F0CF96089501970895FC01918D828DB7
:1008E000981761F0A28DAE0FBF2FB11D5D968C9150
:1008F000928D9F5F9F73928F90E008958FEF9FEF8F
:1009000008950F931F930E94F8026093E003709381
:10091000E1038093E2039093E30388ED93E00E9468
:100920006D0497FF1DC00E94F8020091E003109132
:10093000E1032091E2033091E303601B710B820B12
:10094000930B0091DC031091DD032091DE033091C5
:10095000DF036017710782079307F8F28FEF9FEFAD
:100960001F910F910895FC01918D828D981731F0A0
:10097000828DE80FF11D858D90E008958FEF9FEF38
:100980000895FC01918D228D892F90E0805C9F4F0E
:10099000821B91098F739927089588ED93E00E9437
:1009A000C10421E0892B09F420E0822F089580E022
:1009B00090E0892B29F00E94CD0481110C94000055
:1009C0000895FC01A48DA80FB92FB11DA35ABF4FE4
:1009D0002C91848D90E001968F739927848FA6893E
:1009E000B7892C93A089B1898C91837080648C9392
:1009F000938D848D981306C00288F389E02D808141
:100A00008F7D80830895EF92FF920F931F93CF9372
:100A1000DF93EC0181E0888F9B8D8C8D98131AC039
:100A2000E889F989808185FF15C09FB7F894EE8920
:100A3000FF896083E889F98980818370806480837D
:100A40009FBF81E090E0DF91CF911F910F91FF90C8
:100A5000EF900895F62E0B8D10E00F5F1F4F0F7370
:100A60001127E02E8C8D8E110CC00FB607FCFACF2B
:100A7000E889F989808185FFF5CFCE010E94E104E4
:100A8000F1CFEB8DEC0FFD2FF11DE35AFF4FF082FC
:100A90009FB7F8940B8FEA89FB8980818062CFCF62
:100AA000CF93DF93EC01888D8823B9F0AA89BB89A5
:100AB000E889F9898C9185FD03C0808186FD0DC090
:100AC0000FB607FCF7CF8C9185FFF2CF808185FFB1
:100AD000EDCFCE010E94E104E9CFDF91CF910895DF
:100AE00020910B03260F3327331F21323105ECF4FD
:100AF00020915403FC0190E080E0243069F082E012
:100B00000895A0910B032191AC0145515D4FA40FB5
:100B1000B52FB11D2C930196861798F380910B0386
:100B2000680F60930B0380E0089581E008951092B0
:100B3000540381E08093530310922E0361E082E11D
:100B40000E94300261E083E10E943002E9EBF0E0B4
:100B500080818E7F808380818D7F808388E48093F5
:100B6000B80085E48093BC000895CF93DF9391E0B3
:100B70009093EA028823B9F0C091B800D091BA00EE
:100B80008091BC008A7B8093BC0060E082E10E947F
:100B9000300260E083E10E9430020E949705D0930A
:100BA000BA00C093B800DF91CF9108950895E09105
:100BB000830380918203E81730F4F0E0E653FD4FA1
:100BC000808190E008958FEF9FEF089590918303C7
:100BD000809182032FEF3FEF981748F4E92FF0E060
:100BE000E653FD4F208130E09F5F90938303C9015E
:100BF00008958091820390918303891B990B089536
:100C0000CF92DF92EF92FF920F931F93CF93DF93D8
:100C10007C01CB018A0120915A03222389F0EB0148
:100C20006B01C40ED51ECC15DD0569F06991D701A5
:100C3000ED91FC910190F081E02DC7010995F3CF72
:100C4000642F0E947005C801DF91CF911F910F9111
:100C5000FF90EF90DF90CF900895CF93DF931F9296
:100C6000CDB7DEB7698320915A032223F9F0209192
:100C70008003203258F021E030E0FC0133832283EE
:100C800090E080E00F90DF91CF91089580918103F3
:100C9000E82FF0E0E55AFC4F998190838F5F8093B5
:100CA00081038093800381E090E0ECCF61E0CE018E
:100CB00001960E947005F7CFCF92DF92EF92FF92DC
:100CC0000F931F93CF93DF93FC01C48121E0209306
:100CD0005A03C0937B031092810310928003838593
:100CE000682B85E794E00E942D06D0918003D132D5
:100CF00008F092C00E94A1026B017C018091540314
:100D0000811165C082E08093540381E08093530396
:100D10008FEF8093520310925103D0935003ABE5B1
:100D2000B3E0E0E3F3E080E0D81385C010922F0336
:100D300080912F03CC0FC82BC0932F0380912E03DB
:100D4000813009F07CC010922E030E94A1026B0139
:100D50007C0180912F038093BB008091560390917A
:100D60005703A0915803B0915903892B8A2B8B2BE1
:100D700099F00E94A102009156031091570320910F
:100D80005803309159036C197D098E099F09061784
:100D9000170728073907E0F18091BC0083FDD9CF00
:100DA00085EC8093BC000E94A1026B017C018091C4
:100DB0005403823009F445C0809152038F3F61F1A2
:100DC00080915203803241F18091520325C080917D
:100DD000560390915703A0915803B0915903892B62
:100DE0008A2B8B2B09F48ACF0E94A1020091560313
:100DF0001091570320915803309159036C197D09C4
:100E00008E099F09061717072807390708F076CFBC
:100E1000809155030E94B5051092810310928003C2
:100E200010925A03DF91CF911F910F91FF90EF9095
:100E3000DF90CF9008959D9191938F5F75CF85EE50
:100E4000B0CF8091560390915703A0915803B09171
:100E50005903892B8A2B8B2B09F4A9CF0E94A1025D
:100E60000091560310915703209158033091590374
:100E70006C197D098E099F0906171707280739077E
:100E800008F095CFC5CF90E080E008956091B3035E
:100E900085E00E9430026091CD0386E00E9430021E
:100EA0006091B20387E00E9430026091B10388E054
:100EB0000E9430026091B0038AE00E94300260918B
:100EC000AF0389E00E9430026091C40383E00C9478
:100ED00030021092B2031092CD031092B30310921D
:100EE000AF031092B0031092B1030C944607FC01BB
:100EF00001900020E9F73197AF01481B590BBC0165
:100F000088ED93E00C943104CF93DF93BC0188ED1E
:100F100093E00E940D04EC0186E691E00E947707C1
:100F20008C0F9D1FDF91CF9108958F929F92AF926A
:100F3000BF920F931F93CF93DF93CDB7DEB7A197E7
:100F40000FB6F894DEBF0FBECDBF19A2423008F431
:100F50004AE08E010F5D1F4F842E912CB12CA12CE5
:100F6000A50194010E94881FE62FB901CA01EA3049
:100F7000F4F4E05DD801EE938D01232B242B252B77
:100F800079F790E080E0109719F0CD010E94770783
:100F9000A1960FB6F894DEBF0FBECDBFDF91CF9103
:100FA0001F910F91BF90AF909F908F900895E95C33
:100FB000E1CFCF92DF92EF92FF92CF93DF936C015C
:100FC000990FEE08FF08F7FE19C06DE288ED93E077
:100FD0000E940305EC0166277727CB016C197D0978
:100FE0008E099F094AE00E9495078C0F9D1FDF9193
:100FF000CF91FF90EF90DF90CF9008954AE0C70126
:10100000B601DF91CF91FF90EF90DF90CF900C94DD
:1010100095074F925F926F927F928F929F92AF92BD
:10102000BF92CF92DF92EF92FF920F931F93CF93D5
:101030006B017C01742EAC019B010E94232188234B
:1010400099F089E691E0CF911F910F91FF90EF9079
:10105000DF90CF90BF90AF909F908F907F906F90D8
:101060005F904F900C94770746015701E894B7F8CA
:101070002FEF3FEF4FE75FE7C501B4010E94232147
:1010800081110DC02FEF3FEF4FE75FE7C501B401BE
:101090000E94001E18161CF48DE691E0D4CF2FEFAD
:1010A0003FEF4FE75FE4C701B6010E94CE2018165C
:1010B0001CF481E791E0C7CF2FEF3FEF4FE75FECE4
:1010C000C701B6010E94001E87FDF3CF20E030E08B
:1010D000A901C701B6010E94001E10E000E087FFD1
:1010E0000AC06DE288ED93E00E9403058C01F7FAD7
:1010F000F094F7F8F094C0E060E070E080E09FE3E7
:101100007C1641F020E030E040E251E40E942620CD
:10111000CF5FF6CFA70196010E94BA1F2B013C01B9
:101120000E949F204B015C014AE00E9495077C01D0
:10113000E00EF11ECC23C1F1C501B4010E94051ED1
:101140009B01AC01C301B2010E94B91F4B015C01BC
:101150006EE288ED93E00E940305E80EF91EC1508F
:1011600018F120E030E040E251E4C501B4010E94F2
:10117000661E2B013C010E949F204B01B12CA12C2B
:101180004AE0C501B4010E949507E80EF91EC501A9
:10119000B4010E94051E9B01AC01C301B2010E9473
:1011A000B91F4B015C01DBCFC701CF911F910F919C
:1011B000FF90EF90DF90CF90BF90AF909F908F9077
:1011C0007F906F905F904F9008950F931F93CF93F0
:1011D0008C01C62F0E945C066C2F6460C8010E94BF
:1011E0005C066C2F6B7FC8010E945C0683EC90E06C
:1011F0000197F1F7CF911F910F9108950F931F93CE
:10120000CF93DF938C01D62FC42F607F642B0E9475
:10121000E50880E1D89FB00111246C2BC801DF9153
:10122000CF911F910F910C94E508CF93DF93CDB729
:10123000DEB728970FB6F894DEBF0FBECDBF98E09B
:10124000EEE2F1E0DE01119601900D929A95E1F740
:1012500090919C04961710F46FEF690F262F30E0E1
:10126000220F331F41E050E04C0F5D1F240F351F4C
:10127000F9016081680F606840E084E994E0289695
:101280000FB6F894DEBF0FBECDBFDF91CF910C94A7
:10129000FE0840E061E084E994E00E94FE088BE3F0
:1012A0009FE10197F1F7089541E00E94FE0881E077
:1012B00090E00895CF93DF93FC012481358162177C
:1012C000730788F49B01C081D1816CE270E0CE018C
:1012D000820F931F0E945D24009729F08C1B9D0BA9
:1012E000DF91CF9108958FEF9FEFFACFCF93DF93E8
:1012F000FC01C081D181209761F08991882349F058
:10130000082E000C990B0E944C24FE01319780831B
:10131000F4CFDF91CF910895FC0124813581232BF7
:1013200039F421E0FB018081882349F020E007C0E7
:10133000808191810E94682421E0892BB9F7822F56
:1013400008950F931F93CF93DF938C01EB01FC0162
:10135000808191810097E1F0688179816115710543
:10136000A9F0428153812C813D814217530770F0CF
:101370000E9471248C819D81F801958384831D8254
:101380001C82DF91CF911F910F9108950E94062337
:1013900088819981F801918380838A819B819383DD
:1013A00082838C819D8195838483198218821B821C
:1013B0001A82E5CFCF93DF93EC0188819981009762
:1013C00011F00E940623198218821D821C821B8242
:1013D0001A82DF91CF910895FC018081918100975D
:1013E00011F00C94062308950F931F93CF93DF936E
:1013F000EC0188819981009759F02A813B81261759
:10140000370730F081E0DF91CF911F910F91089560
:101410008B016F5F7F4F0E948F23009759F0998354
:1014200088831B830A832C813D81232B59F7FC0180
:101430001082E8CF80E0E7CFEF92FF920F931F93E7
:10144000CF93DF936115710541F480E0DF91CF9177
:101450001F910F91FF90EF90089541155105B1F044
:101460007B01EC010C811D81040F151FB8010E9446
:10147000F409882351F3288139818C819D81B7013A
:10148000820F931F0E9471241D830C8381E0DECFA5
:10149000CF93DF93EC01FB0101900020E9F7319736
:1014A000AF01461B570B0E941C0A811103C0CE01DD
:1014B0000E94DA09CE01DF91CF910895CF93DF9397
:1014C000EC01FB0144815581608171810E941C0AFD
:1014D000811103C0CE010E94DA09CE01DF91CF91C4
:1014E0000895FB0101900020E9F73197AF01461BF9
:1014F000570B0C941C0AEF92FF920F931F93CF93FC
:10150000DF93EC017B018A01BA010E94F409811189
:101510000BC0CE010E94DA09CE01DF91CF911F915D
:101520000F91FF90EF9008951D830C83B701888180
:1015300099810E947124F0CFFB0101900020E9F70E
:101540003197AF01461B570B0C947B0A0F931F93E7
:10155000CF93DF93CDB7DEB762970FB6F894DEBFB7
:101560000FBECDBF8C01CB01F80111821082138216
:101570001282158214824AE0BE016F5F7F4F0E9483
:101580005A1CBE016F5F7F4FC8010E949C0A629681
:101590000FB6F894DEBF0FBECDBFDF91CF911F9184
:1015A0000F910895CF93DF93EC01FB018617970706
:1015B00049F0608171816115710541F04481558167
:1015C0000E947B0ACE01DF91CF9108950E94DA0933
:1015D000F9CFFC01118210821382128215821482CB
:1015E0000C94D20AFC01118210821382128215829D
:1015F0001482FB0101900020E9F73197AF01461BEF
:10160000570B0C947B0AAF92BF92CF92DF92EF926E
:10161000FF920F931F93CF93DF936C015B017A01CD
:1016200089012417350720F48F2D7901042F182FF5
:1016300068E671E0C6010E94F20AD5011496CD91C8
:10164000DC91EC16FD06E0F40C171D0708F4E80128
:10165000D501ED91FC911197EC0FFD1F10811082C7
:101660006D917C916E0D7F1DC60161157105A1F014
:101670000E949C0AF50180819181C80FD91F1883AF
:10168000C601DF91CF911F910F91FF90EF90DF90F6
:10169000CF90BF90AF9008950E94DA09EBCFEF9200
:1016A000FF920F931F93CF93DF9300D000D000D011
:1016B000CDB7DEB7F82E8B01FB018481958145976C
:1016C00090F024E130E050E040E0CE0101960E942D
:1016D000030BBE016F5F7F4FC8010E94A109CE01BD
:1016E00001960E94EC0980E2E82EF8018481958140
:1016F000449758F4E9821A8241E050E0BE016F5FDE
:101700007F4FC8010E941C0AF0CF6F2D80E00E941D
:101710001509F801448155816081718184E994E063
:101720000E94310426960FB6F894DEBF0FBECDBFDF
:10173000DF91CF911F910F91FF90EF9008958F92BD
:101740009F92AF92BF92CF92DF92EF92FF920F9350
:101750001F93CF93DF93CDB7DEB76E970FB6F89494
:10176000DEBF0FBECDBF60E071E0CE0101960E94EA
:10177000F20ABE016F5F7F4FCE0107960E94E90A11
:1017800065EA71E0CE0107960E94480ABC01CE01CD
:101790000D960E94E90ABE01635F7F4F90E080E0F2
:1017A0000E944F0BCE010D960E94EC09CE010796C8
:1017B0000E94EC09CE0101960E94EC0968E671E0F6
:1017C000CE0143960E94F20A8090BC039090BD0324
:1017D000A090BE03B090BF03C0901D01D0901E0129
:1017E000E0901F01F0902001A7019601C501B4010E
:1017F0000E94CE2018160CF0C2C0C701B6010E948C
:101800009820CE010D960E94A60A6091BC037091AB
:10181000BD038091BE039091BF030E949820CE012A
:1018200007960E94A60A69EA71E0CE0101960E941D
:10183000F20ABE01695F7F4FCE0101960E945E0AE7
:101840006FEA71E00E94480ABE01635F7F4F0E9409
:101850005E0A62EB71E00E94480ABC01CE01439629
:101860000E94D20ACE0101960E94EC09CE01079691
:101870000E94EC09CE010D960E94EC09BE016D5E3E
:101880007F4FCE0101960E94E90ABE016F5F7F4F34
:1018900081E090E00E944F0BCE0101960E94EC097E
:1018A000C090BC03D090BD03E090BE03F090BF0396
:1018B00020911D0130911E0140911F015091200186
:1018C000C701B6010E94CE2011E0181684F02091C5
:1018D0002101309122014091230150912401C7013F
:1018E000B6010E94001E182F111F1127111F68E654
:1018F00071E0CE0149960E94F20A112309F4B5C1A4
:101900008090B8039090B903A090BA03B090BB0345
:10191000C0901501D0901601E0901701F0901801C9
:10192000A7019601C501B4010E94CE2018160CF043
:101930004BC1C701B6010E949820CE010D960E94AE
:10194000A60A6091B8037091B9038091BA0390918F
:10195000BB030E949820CE0107960E94A60A6DEB59
:1019600071E0CE0101960E94F20ABE01695F7F4FCD
:10197000CE0101960E945E0A65EC71E05AC1C090EA
:101980002101D0902201E0902301F0902401A701D1
:101990009601C501B4010E94001E87FF26C0C70141
:1019A000B6010E949820CE010D960E94A60A609171
:1019B000BC037091BD038091BE039091BF030E9450
:1019C0009820CE0107960E94A60A64EB71E0CE0132
:1019D00001960E94F20ABE01695F7F4FCE01019617
:1019E0000E945E0A6AEB71E02DCF8090B803909060
:1019F000B903A090BA03B090BB03C0901501D0907A
:101A00001601E0901701F0901801A7019601C50199
:101A1000B4010E94CE20181634F5C701B6010E9409
:101A20009820CE010D960E94A60A6091B80370918D
:101A3000B9038091BA039091BB030E949820CE0114
:101A400007960E94A60A6DEB71E0CE0101960E94F6
:101A5000F20ABE01695F7F4FCE0101960E945E0AC5
:101A600065EC71E035C0C0901901D0901A01E0908A
:101A70001B01F0901C01A7019601C501B4010E9451
:101A8000001E87FF2FC0C701B6010E949820CE011B
:101A90000D960E94A60A6091B8037091B9038091D7
:101AA000BA039091BB030E949820CE0107960E9432
:101AB000A60A6AEC71E0CE0101960E94F20ABE010C
:101AC000695F7F4FCE0101960E945E0A63ED71E06F
:101AD0000E94480ABE01635F7F4F0E945E0A68EC65
:101AE00071E0B9CE8091B6039091B7036091130174
:101AF00070911401861797077CF4CE010D960E9411
:101B0000A60A6091B6037091B703CE0107960E94B2
:101B1000A60A66ED71E0CFCF6091110170911201BC
:101B2000681779077CF4CE010D960E94A60A609191
:101B3000B6037091B703CE0107960E94A60A6FED17
:101B400071E083CF0091250110912601B801012E8B
:101B5000000C880B990B0E94071E2091C003309146
:101B6000C1034091C2035091C3030E94CE201816B6
:101B70000CF084CEB801CE010D960E94A60A6091A9
:101B8000C0037091C1038091C2039091C3030E946E
:101B90009820CE0107960E94A60A69EE71E0CE0158
:101BA00001960E94F20ABE01695F7F4FCE01019645
:101BB0000E945E0A6EEE71E00E94480ABE01635FF9
:101BC0007F4F0E945E0A49CEC0901901D0901A0141
:101BD000E0901B01F0901C01A7019601C501B40122
:101BE0000E94001E87FF9BC0C701B6010E9498207B
:101BF000CE010D960E94A60A6091B8037091B903B8
:101C00008091BA039091BB030E949820CE01079661
:101C10000E94A60A6AEC71E0CE0101960E94F20AC7
:101C2000BE01695F7F4FCE0101960E945E0A63ED9F
:101C300071E00E94480ABE01635F7F4F0E945E0A06
:101C400068EC71E00E94480ABC01CE0149960E94EE
:101C5000D20ACE0101960E94EC09CE0107960E949D
:101C6000EC09CE010D960E94EC09BE01675E7F4F24
:101C7000CE0101960E94E90ABE016F5F7F4F82E0AC
:101C800090E00E944F0BCE0101960E94EC0968E69D
:101C900071E0CE0107960E94F20A9091CE038091E6
:101CA000C403992309F4ADC063EF71E0811102C050
:101CB00064E072E0CE0107960E949C0ABE01695F53
:101CC0007F4FCE0101960E94E90ABE016F5F7F4FF0
:101CD00083E090E00E944F0BCE0101960E94EC0938
:101CE000CE0107960E94EC09CE0149960E94EC09AC
:101CF000CE0143960E94EC096E960FB6F894DEBFB3
:101D00000FBECDBFDF91CF911F910F91FF90EF904C
:101D1000DF90CF90BF90AF909F908F90089580916B
:101D2000B6039091B7036091130170911401861767
:101D300097077CF4CE010D960E94A60A6091B60327
:101D40007091B703CE0107960E94A60A66ED71E076
:101D500063CF6091110170911201681779077CF4CB
:101D6000CE010D960E94A60A6091B6037091B7034A
:101D7000CE0107960E94A60A6FED71E0F2CD0091A8
:101D8000250110912601B801012E000C880B990B3A
:101D90000E94071E2091C0033091C1034091C203ED
:101DA0005091C3030E94CE2018160CF05ECFB801EC
:101DB000CE010D960E94A60A6091C0037091C103E6
:101DC0008091C2039091C3030E949820CE01079690
:101DD0000E94A60A69EE71E0CE0101960E94F20A05
:101DE000BE01695F7F4FCE0101960E945E0A6EEED2
:101DF00071E00E94480ABE01635F7F4F0E945E0A45
:101E000023CF66E172E0811155CF809127016BE706
:101E100071E0882311F065E771E0CE0101960E9420
:101E2000F20ABE016F5F7F4FCE0107960E94A109A3
:101E3000CE0101960E94EC098091B30364E871E041
:101E4000882311F061E871E0CE0107960E94710AC3
:101E50008091CD036AE871E0882311F067E871E0B2
:101E6000CE0107960E94710A8091B20360E971E089
:101E7000882311F06DE871E0CE0107960E94710A87
:101E80008091B10366E971E0882311F063E971E0A4
:101E9000CE0107960E94710A8091B0036CE971E04F
:101EA000882311F069E971E0CE0107960E94710A5A
:101EB0008091AF0362EA71E0882311F06FE971E06D
:101EC000CE0107960E94710AF9CE85ED8093BC0081
:101ED0008091560390915703A0915803B0915903F4
:101EE0000796A11DB11D23E0B695A79597958795F7
:101EF0002A95D1F72091BC0024FD03C01092540311
:101F00000895409156035091570360915803709182
:101F10005903452B462B472B69F30097A105B105C3
:101F200041F02AE22A95F1F700C00197A109B10911
:101F3000E1CF809155030C94B505CF92DF92EF92DB
:101F4000FF920F931F93CF93DF9300D000D000D068
:101F5000CDB7DEB78C017B0170E060E00E945A09CA
:101F6000E114F10451F0C12CD12C76018F3F980778
:101F700019F17C01EFEFEE1AFE0AB701C8010E94C9
:101F80005A099C01019619F4F80124813581A701B1
:101F9000B801CE0101960E94030B89819A81C12C60
:101FA000D12C7601009721F00E94561C6B017C0118
:101FB000CE0101960E94EC09C701B60126960FB624
:101FC000F894DEBF0FBECDBFDF91CF911F910F916F
:101FD000FF90EF90DF90CF9008951F920F920FB671
:101FE0000F9211242F933F938F939F93AF93BF939F
:101FF0008091D0039091D103A091D203B091D303EB
:102000003091CF0323E0230F2D3758F50196A11D02
:10201000B11D2093CF038093D0039093D103A0935D
:10202000D203B093D3038091D4039091D503A091B0
:10203000D603B091D7030196A11DB11D8093D4039F
:102040009093D503A093D603B093D703BF91AF91DC
:102050009F918F913F912F910F900FBE0F901F90E6
:10206000189526E8230F0296A11DB11DD2CF1F920D
:102070000F920FB60F9211242F933F934F935F93BC
:102080006F937F938F939F93AF93BF93EF93FF9340
:1020900088ED93E00E94E104FF91EF91BF91AF9131
:1020A0009F918F917F916F915F914F913F912F9170
:1020B0000F900FBE0F901F9018951F920F920FB6A2
:1020C0000F9211242F938F939F93EF93FF93E0919F
:1020D000E803F091E9038081E091EE03F091EF03D2
:1020E00082FD1BC090818091F1038F5F8F732091DF
:1020F000F203821741F0E091F103F0E0E852FC4F67
:10210000958F8093F103FF91EF919F918F912F9184
:102110000F900FBE0F901F9018958081F4CF1F92E3
:102120000F920FB60F9211242F933F934F935F930B
:102130006F937F938F939F93AF93BF93EF93FF938F
:102140008091B900887F803609F44AC0F0F5883262
:1021500009F4A7C018F5803109F49BC0B8F48823AE
:1021600009F4F9C0883009F494C0FF91EF91BF9150
:10217000AF919F918F917F916F915F914F913F911F
:102180002F910F900FBE0F901F901895883109F472
:1021900088C0803251F78093520314C0803409F410
:1021A0009DC040F48033B9F38833F9F6809352032D
:1021B00085ECB0C0803509F485C0883509F496C037
:1021C000883499F60E94650FD0CF883909F48CC005
:1021D00038F5883729F050F4883611F0803729F621
:1021E00083E08093540310922D0357C0883809F47C
:1021F0007BC0803919F0803809F0B7CF80912D036A
:10220000803208F071C0E0912D0381E08E0F809341
:102210002D038091BB00F0E0E35FFC4F80833DC065
:10222000803B39F0E0F4803A09F479C0883A09F04B
:102230009CCF84E08093540310920C0310920B0304
:10224000E0917E03F0917F03099580910B0381114A
:102250000FC081E080930B031092EB0209C0803C19
:1022600009F4A6CF883C09F4A3CF883B09F07DCFC1
:10227000E0910C0381E08E0F80930C03F0E0E551B8
:10228000FD4F80818093BB0090910C0380910B03E4
:1022900029C080912F038093BB0085EC8093BC0004
:1022A00064CF9091510380915003981758F5E091B5
:1022B000510381E08E0F80935103F0E0E05DFC4F0D
:1022C0008081E9CFE091510381E08E0F809351032B
:1022D0008091BB00F0E0E05DFC4F80839091510362
:1022E000809150039817C8F285E8D8CFE091510348
:1022F00081E08E0F809351038091BB00F0E0E05DA0
:10230000FC4F80838091530381115CCF81E08093E7
:102310002E0384EA8093BC001092540326CF85ECF0
:102320008093BC001092540380912D03803230F4CE
:10233000E0912D03F0E0E35FFC4F108260912D03EC
:1023400070E0E0917C03F0917D038DE093E00995CE
:1023500010922D030ACF1092520334CFE8EDF3E030
:102360001382128288EE93E0A0E0B0E0848395832C
:10237000A683B7832AE331E03183208325EC30E064
:102380003587248724EC30E03787268720EC30E03F
:10239000318B208B21EC30E0338B228B22EC30E030
:1023A000358B248B26EC30E0378B268B118E128EEA
:1023B000138E148EE5E7F4E01382128284839583F2
:1023C000A683B7838CE491E091838083E4E9F4E011
:1023D000138212828EE591E0918380838FE3848360
:1023E00084E1818784E082871386A1E8B4E01596B2
:1023F0008C9315978BE016968C931697E7E3F3E092
:10240000E4911796EC931797E3E2F3E0E4911896C2
:10241000EC93189740E85EE360E070E01D964D9302
:102420005D936D937C9350970895CF93DF93CDB7D1
:10243000DEB76E970FB6F894DEBF0FBECDBF7894AF
:1024400084B5826084BD84B5816084BD85B58260B9
:1024500085BD85B5816085BD80916E00816080936A
:102460006E001092810080918100826080938100D3
:1024700080918100816080938100809180008160E3
:10248000809380008091B10084608093B10080913E
:10249000B00081608093B00080917A008460809366
:1024A0007A0080917A00826080937A0080917A002D
:1024B000816080937A0080917A00806880937A00AE
:1024C0001092C100E091E803F091E90382E080837B
:1024D000E091E403F091E5031082E091E603F091CE
:1024E000E7038FEC80831092F003E091EC03F0910E
:1024F000ED0386E08083E091EA03F091EB038081B5
:1025000080618083E091EA03F091EB038081886031
:102510008083E091EA03F091EB03808180688083FF
:10252000E091EA03F091EB0380818F7D808362E08C
:10253000809186040E945E020E94F802605D7740EE
:102540008109910960938A0470938B0480938C04B1
:1025500090938D0487E380939304109283031092E9
:10256000820310928103109280030E9497058AE0F3
:1025700094E090937F0380937E038BE094E09093AC
:102580007D0380937C031092990480919E04823095
:1025900018F098E09093990480939C0462E370E0B3
:1025A00080E090E00E94C60260919F0484E994E07C
:1025B0000E945C0668EE73E080E090E00E94C60234
:1025C00060E384E994E00E94E5080BE416E4C801A6
:1025D0000197F1F760E384E994E00E94E508C801FF
:1025E0000197F1F760E384E994E00E94E50883E550
:1025F00092E00197F1F760E284E994E00E94E50837
:1026000060919904606240E084E994E00E94FE08D1
:1026100084E080939A0440E06CE084E994E00E94B6
:10262000FE080E94490982E080939B0440E066E036
:1026300084E994E00E94FE0840E062E084E994E0CE
:102640000E94FE088BE39FE10197F1F788E08093F9
:102650009F0460E084E994E00E945C0662E082E00E
:102660000E945E0261E083E00E945E0261E085E01C
:102670000E945E0261E086E00E945E0261E087E007
:102680000E945E0261E088E00E945E0261E089E0F3
:102690000E945E0261E08AE00E945E020E94690779
:1026A0000E94490960E083E00E9415096CE571E031
:1026B00084E994E00E940D0461E080E00E94150925
:1026C00068E471E084E994E00E940D0462E082E035
:1026D0000E94150967E371E084E994E00E940D040B
:1026E00063E084E00E94150965E271E084E994E00A
:1026F0000E940D0460ED77E080E090E00E94C60249
:102700000E9449098DE691E00E94840744244A947E
:10271000F3E05F2E612C712C0E940403882341F0AA
:10272000809187048C3009F464C048F48B3001F147
:10273000C12CD12C60ECE62E6FE7F62E43C08551FC
:102740008230B0F710918304612F70E0762F6627F6
:1027500066277F7780918404682B90E080E00E9458
:10276000051E2DEC3CEC4CEC5DE30E94661E5DC04A
:102770006091830470E090E080E00E94051E6B0190
:102780007C011091840417FF0AC0AC019B0160E03A
:1027900070E080E89FEB0E94B91F6B017C011F7005
:1027A000612F70E090E080E00E94071E2DEC3CEC71
:1027B0004CEC5DE30E94661EA70196010E94BA1FC1
:1027C0006B017C010E940403882311F40C943D1CCE
:1027D000809187048B3030F08D3080F185518230CC
:1027E00008F446C1812C912C50ECA52E5FE7B52E44
:1027F00043C010918304612F70E090E080E00E945C
:10280000051E6B017C01609184046F7070E090E0A4
:1028100080E00E94071E2DEC3CEC4CEC5DE30E9436
:10282000661EA70196010E94BA1F6B017C0117FF6B
:10283000C9CFF7FAF094F7F8F094C4CF609182040E
:1028400070E090E080E00E94071E2DEC3CEC4CEC28
:102850005DE30E94661E4B015C016091810470E0A3
:1028600090E080E00E94071E9B01AC01C501B4010D
:102870000E94BA1F4B015C01A7019601C701B60176
:102880000E942321882311F40C944C1CA50194016F
:10289000C501B4010E942321811108C08092B803B0
:1028A0009092B903A092BA03B092BB038FE00E944A
:1028B0008F0224E630E0DC010E945D22A301920138
:1028C0000E94271F3093B7032093B60380E10E9434
:1028D0008F0224E630E0DC010E945D22A301920118
:1028E0000E94271F59013093B5032093B4038EE053
:1028F0000E948F02BC01990F880B990B0E94071E42
:102900002AE038E240EA5BE30E94661E6B017C012C
:102910002AE037ED43EA5CE30E94001E87FF08C00F
:102920003AE0C32E37EDD32E33EAE32E3CE3F32E09
:10293000A701960160E070E080EA90E40E94B91F70
:1029400020E030E040E251E40E94661EA7019601BB
:102950000E9426206B017C012DEC3CEC4CE45DE3F5
:102960000E94001E87FF08C02DECC22E2CECD22E38
:102970002CE4E22E2DE3F22E20E030E04AE754E48E
:10298000C701B6010E94661E28E834EF43EB5FEBF7
:102990000E94D32023E136E04FE35BE40E94661EF1
:1029A0006B017C0120E030E0A9010E94001E87FD40
:1029B00071C020E030E543EC57E4C701B6010E9446
:1029C000CE2018160CF46AC0C092C003D092C10386
:1029D000E092C203F092C303E3E0F3E08491E5E305
:1029E000F3E01491E1E2F3E00491002309F45EC006
:1029F00081110E940702E02FF0E0EE0FFF1FEB5E57
:102A0000FC4FA591B4918C91182331E020E009F49A
:102A100030E0832F922FF1E08F2781708093C403E1
:102A200081E02AE0A216B1040CF080E08093CE038E
:102A300088ED93E00E94C104892B09F4A1C068E6E7
:102A400071E0CE0143960E94F20A0E94810497FD34
:102A500030C08A30910569F189831A8241E050E0E3
:102A6000BE016F5F7F4FCE0143960E941C0AEDCFDF
:102A7000609181047091820476276727762790E021
:102A800080E00E94051E2DEC3CEC4CEC5DE30E94C6
:102A9000661EF0CEC12CD12C760196CFC12C90E5CC
:102AA000D92E93ECE92E97E4F92E8ECF90E080E0BA
:102AB000B2CFCB88DC88C114D10439F00F89188DCE
:102AC00076010115110509F080C08F89988D892B39
:102AD00009F452C070E060E0CE0143960E945A09AA
:102AE0008C018F3F980709F0A6C0BE016D5E7F4F35
:102AF000CE010D960E94E90A68E671E0CE010796C4
:102B00000E94F20ACE010D960E94760968E272E0F8
:102B1000CE010D960E948C09882309F4A6C0CE012F
:102B200007960E94760961E372E0CE0107960E9443
:102B30008C0991E0811101C090E0909327018111EF
:102B400002C00E94690768E772E088ED93E00E9486
:102B50000D0480912701882309F484C083E792E063
:102B60000E9484070E944909CE0107960E94EC0941
:102B7000CE010D960E94EC09CE0143960E94EC090D
:102B8000809127010091CE03882309F40EC3C090E1
:102B9000BC03D090BD03E090BE03F090BF03209132
:102BA0001D0130911E0140911F0150912001C7016C
:102BB000B6010E94CE2018160CF08EC281E08093E0
:102BC000B3031092B2039BC2740147018FEF881ABE
:102BD000980AF7018081082E000C990B0E94CF1DE6
:102BE000892B91F7015011090C0D1D1DF8018081F1
:102BF000082E000C990B0E94CF1D892B31F00E1569
:102C00001F0518F001501109F1CFA8014F5F5F4F68
:102C10004E195F09588F4F8BCE14DF0420F4B70193
:102C2000C6010E945424EB89FC898F89988DE80F96
:102C3000F91F10824ACF9C0150E040E0BE016D5E5A
:102C40007F4FCE010D960E94030B2F89388DA8016E
:102C50004F5F5F4FBE016D5E7F4FCE0107960E94B2
:102C6000030B50CF8CE692E07BCF66E372E0CE019F
:102C70000D960E948C09882309F465C0BE01695F26
:102C80007F4FCE0101960E94E90A70E060E0CE011C
:102C900001960E949D0F4B015C01CE0101960E949E
:102CA000EC09BE01695F7F4FCE0101960E94E90ADF
:102CB00061E070E0CE0101960E949D0F6B017C01E6
:102CC000CE0101960E94EC09A7019601C501B4014D
:102CD0000E94001E87FF10C0809221019092220165
:102CE000A0922301B0922401C0921D01D0921E0136
:102CF000E0921F01F09220016EE572E088ED93E012
:102D00000E940D04609121017091220180912301A4
:102D10009091240142E00E9409086CE572E088ED80
:102D200093E00E940D0460911D0170911E0180913D
:102D30001F019091200142E00E94090886E691E07F
:102D40000E94770711CF6FE372E0CE010D960E94CB
:102D50008C09882309F44CC0BE01695F7F4FCE0106
:102D600001960E94E90A70E060E0CE0101960E949F
:102D70009D0F0E9498204B01CE0101960E94EC0904
:102D8000BE01695F7F4FCE0101960E94E90A61E0B2
:102D900070E0CE0101960E949D0F0E9498206B0169
:102DA000CE0101960E94EC098C149D0444F490928B
:102DB000140180921301D0921201C09211016EE4AD
:102DC00072E088ED93E00E940D04809113019091D0
:102DD00014010E94D9076CE472E088ED93E00E9430
:102DE0000D0480911101909112010E94D907A6CF84
:102DF00068E472E0CE010D960E948C09882309F4E4
:102E00005EC0BE01695F7F4FCE0101960E94E90A54
:102E100070E060E0CE0101960E949D0F4B015C01C5
:102E2000CE0101960E94EC09BE01695F7F4FCE0181
:102E300001960E94E90A61E070E0CE0101960E94CD
:102E40009D0F6B017C01CE0101960E94EC09A70148
:102E50009601C501B4010E94001E87FF10C0809238
:102E6000190190921A01A0921B01B0921C01C0920C
:102E70001501D0921601E0921701F09218016EE34D
:102E800072E088ED93E00E940D0460911901709149
:102E90001A0180911B0190911C0142E00E940908D7
:102EA0006CE372E088ED93E00E940D0460911501DF
:102EB0007091160180911701909118013CCF61E546
:102EC00072E0CE010D960E948C09882351F1BE015B
:102ED000695F7F4FCE0101960E94E90A70E060E0D1
:102EE000CE0101960E949D0F0E9498206B01CE0199
:102EF00001960E94EC09D7FC0FC0D0922601C09227
:102F000025016DE272E088ED93E00E940D0480914E
:102F100025019091260169CF83E092E00E94840709
:102F200023CE6BE572E0CE010D960E948C098823BA
:102F3000D9F00B851C850115110529F41092840325
:102F400086EF91E0EBCF0932110510F009E210E0B5
:102F50006F817885A80184E893E00E948624F801B7
:102F6000EC57FC4F1082ECCF64E672E0CE010D9678
:102F70000E948C09182F8823E9F00B851C85011508
:102F8000110539F4109200011092100187EE91E0C2
:102F9000E7CD0031110510F000E110E06F81788578
:102FA000A80180E091E00E948624F801E050FF4FE4
:102FB0001082EACF80912701811167C06FE672E02D
:102FC000CE0107960E948C09082F11E0811101C0E3
:102FD00010E061E772E0CE010D960E948C09882313
:102FE00089F01093B3036DEB71E088ED93E00E94DC
:102FF0000D0449895A896D857E8588ED93E00E948C
:1030000031049CCE6AE772E0CE010D960E948C09D5
:10301000882319F01093B203E6CF63E872E0CE0183
:103020000D960E948C09882319F01093B103DBCF11
:103030006BE872E0CE010D960E948C09882319F08E
:103040001093B003D0CF65E972E0CE010D960E94D7
:103050008C09882319F01093AF03C5CF60EA72E0A2
:10306000CE010D960E948C09882361F0002339F06F
:103070008EEC91E02AE0A216B1040CF44FCF10932D
:10308000CD03B1CF82EC91E049CF68EA72E0CE0186
:1030900001960E94F20A4D815E8189899A8984177E
:1030A000950778F08D859E85009759F069817A8122
:1030B0006115710531F00E94782411E0892B09F027
:1030C00010E0CE0101960E94EC0980EA91E0111116
:1030D00025CF84E991E022CF209121013091220176
:1030E0004091230150912401C701B6010E94001EA6
:1030F00087FF69C281E08093B2031092B303C0904E
:10310000B803D090B903E090BA03F090BB0311E08C
:10311000209115013091160140911701509118012D
:10312000C701B6010E94CE2018160CF010E01093D3
:10313000B0032091190130911A0140911B01509167
:103140001C01C701B6010E94001E881F8827881F26
:103150008093AF038091B6039091B7032091130140
:1031600030911401821793070CF030C201112EC266
:1031700081E08093CD036091250170912601072E97
:10318000000C880B990B0E94071E11E02091C003D0
:103190003091C1034091C2035091C3030E94CE20DD
:1031A00018160CF010E01093B103102F01111092BB
:1031B000CD030E9446070E94F802C090C903D09038
:1031C000CA03E090CB03F090CC036C197D098E0903
:1031D0009F09613D77408105910508F490C0C0903A
:1031E000BC03D090BD03E090BE03F090BF032091DC
:1031F0001D0130911E0140911F0150912001C70116
:10320000B6010E94CE2018160CF4EDC120912101C8
:10321000309122014091230150912401C701B60150
:103220000E94001E87FDDFC1C090B803D090B90393
:10323000E090BA03F090BB03209115013091160184
:103240004091170150911801C701B6010E94CE208C
:1032500018160CF4C8C12091190130911A0140913F
:103260001B0150911C01C701B6010E94001E87FD81
:10327000BAC18091B6039091B703209113013091A8
:103280001401821793070CF4AEC120911101309103
:103290001201281739070CF4A6C16091250170911D
:1032A0002601072E000C880B990B0E94071E209107
:1032B000C0033091C1034091C2035091C3030E94E7
:1032C000CE2018160CF48FC1011102C01091C40356
:1032D0008091AE03811721F00E9449091093AE033B
:1032E000112309F482C10E949F0B0E94F80260938F
:1032F000C9037093CA038093CB039093CC030E94BD
:10330000F8020091C5031091C6032091C7033091C4
:10331000C803601B710B820B930B613D77408105E5
:10332000910508F443C18091CE03882321F08EEDEE
:1033300092E00E9484078091C403882321F081EDEC
:1033400092E00E9484076091250170912601072E6A
:10335000000C880B990B0E94071E2091C00330912E
:10336000C1034091C2035091C3030E94CE2018169E
:1033700024F48EEB92E00E94840768EB72E088ED03
:1033800093E00E940D046091BC037091BD03809195
:10339000BE039091BF0341E00E94090866EB72E012
:1033A00088ED93E00E940D046091B8037091B90319
:1033B0008091BA039091BB0341E00E94090864EB3D
:1033C00072E088ED93E00E940D048091B603909125
:1033D000B7030E94D90762EB72E088ED93E00E9488
:1033E0000D048091B4039091B5030E94D90760EB5E
:1033F00072E088ED93E00E940D046091C00370912B
:10340000C1038091C2039091C30341E00E94090867
:103410006EEA72E088ED93E00E940D048091C4038F
:1034200090E00E94D9076CEA72E088ED93E00E9478
:103430000D048091B30390E00E94D9076AEA72E01C
:1034400088ED93E00E940D048091CD0390E00E94EE
:10345000D90768EA72E088ED93E00E940D0480913C
:10346000B20390E00E94D90766EA72E088ED93E02B
:103470000E940D048091B10390E00E94D90764EA94
:1034800072E088ED93E00E940D048091B00390E01B
:103490000E94D90762EA72E088ED93E00E940D0471
:1034A0008091AF0390E00E94D90760EA72E088ED56
:1034B00093E00E940D04609121017091220180919E
:1034C00023019091240141E00E9409086EE972E015
:1034D00088ED93E00E940D0460911D0170911E0122
:1034E00080911F019091200141E00E9409086CE940
:1034F00072E088ED93E00E940D04609119017091D3
:103500001A0180911B0190911C0141E00E94090861
:103510006AE972E088ED93E00E940D046091150164
:1035200070911601809117019091180141E00E945D
:10353000090868E972E088ED93E00E940D0480912B
:103540001301909114010E94D90766E972E088ED99
:1035500093E00E940D0480911101909112010E944C
:10356000D90764E972E088ED93E00E940D04809130
:103570002501909126010E94D90762E972E088ED49
:1035800093E00E940D0480912701882309F472C101
:103590008DE892E00E9484070E94F8026093C503C0
:1035A0007093C6038093C7039093C80380E090E0B4
:1035B000892B09F4B1C80E94CD04882309F4ACC852
:1035C0000E940000A9C81092B303FBCA2091110108
:1035D00030911201821793071CF4002309F4CBCD1C
:1035E0001092CD03C8CD11E073CE60E071E0CE0142
:1035F00001960E94F20ABE016F5F7F4F90E080E06B
:103600000E944F0BCE0101960E94EC096091B60317
:103610007091B703CE0101960E94A60A6091B8038B
:103620007091B9038091BA039091BB030E949820D6
:10363000CE0107960E94A60A6091BC037091BD035B
:103640008091BE039091BF030E949820CE010D96F9
:103650000E94A60A6DEA72E0CE0143960E94F20A29
:10366000BE01635F7F4FCE0143960E945E0A60EB0E
:1036700072E00E94480ABE01695F7F4F0E945E0AA5
:1036800065EB72E00E94480ABE016F5F7F4F0E94A7
:103690005E0A68EC71E00E94480ABC01CE014996BE
:1036A0000E94E90ACE0143960E94EC09CE010D96D4
:1036B0000E94EC09CE0107960E94EC09CE0101960A
:1036C0000E94EC09BE01675E7F4FCE0101960E9409
:1036D000E90ABE016F5F7F4F81E090E00E944F0BCF
:1036E000CE0101960E94EC096091C0037091C10364
:1036F0008091C2039091C3030E949820CE0101964D
:103700000E94A60A6091B4037091B503CE0107969A
:103710000E94A60A6AEB72E0CE010D960E94F20AA0
:10372000BE01695F7F4FCE010D960E945E0A60EC7C
:1037300072E00E94480ABE016F5F7F4F0E945E0ADE
:1037400065EC72E00E94480ABC01CE0143960E94DB
:10375000E90ACE010D960E94EC09CE0107960E945F
:10376000EC09CE0101960E94EC09BE016D5E7F4F0F
:10377000CE0101960E94E90ABE016F5F7F4F82E091
:1037800090E00E944F0BCE0101960E94EC098091BF
:10379000270165E771E0811102C06BE771E0CE019E
:1037A00007960E94F20A8091B30361E871E08111EB
:1037B00002C064E871E0CE0107960E94710A809110
:1037C000CD0367E871E0811102C06AE871E0CE01C3
:1037D00007960E94710A8091B2036DE871E0811131
:1037E00002C060E971E0CE0107960E94710A8091E3
:1037F000B10363E971E0811102C066E971E0CE01B5
:1038000007960E94710A8091B00369E971E0811105
:1038100002C06CE971E0CE0107960E94710A8091A6
:10382000AF036FE971E0811102C062EA71E0CE017D
:1038300007960E94710ABE01695F7F4FCE01019613
:103840000E94E90ABE016F5F7F4F83E090E00E9413
:103850004F0BCE0101960E94EC09CE0107960E9403
:10386000EC09CE0143960E94EC09CE0149960E94D4
:10387000EC093BCD86E892E08DCEA7019601C70109
:10388000B6010E942321812C912C40ECA42E4FE7FD
:10389000B42E81110C945614C092BC03D092BD0377
:1038A000E092BE03F092BF030C944614662777277C
:1038B0000C947F1CBB274A3031F4992322F4BDE2DB
:1038C000909581959F4F0C94661CBB27FB01552753
:1038D000AA27880F991FAA1FA41710F0A41B83956D
:1038E0005051B9F7A05DAA3308F0A95DA1930097E4
:1038F00079F7B111B1931192CB010C94F01DB0E0A6
:10390000A0E0E5E8FCE10C94571F5C017B01611528
:10391000710519F0DB018D939C9385010F5F1F4F9B
:10392000F501D0818D2F90E00E94CF1D6C01892B75
:10393000B9F5DD32B9F50F5F1F4FD5011196DC9156
:10394000C1E05801F1E0AF1AB10843E050E062EF86
:1039500070E0C5010E94D81D892B69F5680182E0DD
:10396000C80ED11C45E050E06DEE70E0C6010E942B
:10397000D81D892B21F4680197E0C90ED11CE114F0
:10398000F10419F0D701CD92DC9260E070E080E89C
:103990009FEFC111FFC060E070E080E89FE7FAC0D0
:1039A0005801BBCFDB3229F485010E5F1F4FF501B3
:1039B000D181C0E0C6CF43E050E06AEE70E0C501BF
:1039C0000E94D81D892BE9F0F80110E000E020E00A
:1039D00030E0A9015F01B0ED8B2E8D0E89E08815D6
:1039E000C8F19C2E689491F88C2F8870C2FF16C085
:1039F000811102C00F5F1F4F3196D501DC91C92D97
:103A0000E9CFE114F10429F00E5F1F4FF701118394
:103A1000008360E070E080EC9FE7BCC0882311F079
:103A200001501109A5E0B0E00E94461F9B01AC01C6
:103A3000220F331F441F551F280D311D411D511DDD
:103A4000283999E93907490799E15907A8F2C66069
:103A50009C2ED2CFAEEF8A1206C0C3FD3CC09C2E76
:103A6000689493F8C9CFDF7DD534A9F580818D3274
:103A700039F4C061DF011296818162E070E006C016
:103A8000DF018B32C1F3119661E070E080535D017C
:103A9000A61AB70A8A30F8F4E0E8CE16ECE0DE06A3
:103AA0005CF4B601660F771F660F771FC60ED71E30
:103AB000CC0CDD1CC80ED11C5D01FFEFAF1ABF0A94
:103AC0008C9180538A30A8F1C4FF03C0D194C19473
:103AD000D1080C0D1D1DC1FF09C0E114F10431F026
:103AE00081E0A81AB108D701AD92BC92CA01B90110
:103AF0000E94051EC370C33009F490584B015C014D
:103B000020E030E0A9010E94001E882309F440C093
:103B1000C1E2D1E017FF05C0119501951109C9E077
:103B2000D1E06E01B8E1CB1AD10880E2E82EF12C89
:103B30000FC0D501B1CFFE0125913591459154912A
:103B40000E191F09C501B4010E94661E4B015C01DC
:103B5000D501C4010E151F0574F72497F594E79459
:103B6000CC16DD06A9F78A2F880F8B2F881F8F3F71
:103B700049F020E030E0A901C501B4010E94001E17
:103B8000811106C082E290E09093A1048093A0048A
:103B9000C501B401CDB7DEB7ECE00C94731F9111F1
:103BA0000C94D31E803219F089508550C8F70895BF
:103BB000FB01DC014150504088F08D9181341CF0B4
:103BC0008B350CF4805E659161341CF06B350CF420
:103BD000605E861B611171F3990B0895881BFCCF01
:103BE000DC01FC01672F71917723E1F7329704C064
:103BF0007C916D9370836291AE17BF07C8F30895EF
:103C00000E94421E08F481E00895E89409C097FBE1
:103C10003EF490958095709561957F4F8F4F9F4FA3
:103C20009923A9F0F92F96E9BB279395F6958795E7
:103C300077956795B795F111F8CFFAF4BB0F11F4AA
:103C400060FF1BC06F5F7F4F8F4F9F4F16C0882351
:103C500011F096E911C0772321F09EE8872F762F87
:103C600005C0662371F096E8862F70E060E02AF0C8
:103C70009A95660F771F881FDAF7880F96958795B4
:103C800097F90895990F0008550FAA0BE0E8FEEF89
:103C900016161706E807F907C0F012161306E40710
:103CA000F50798F0621B730B840B950B39F40A2609
:103CB00061F0232B242B252B21F408950A2609F4E7
:103CC000A140A6958FEF811D811D08950E94791E48
:103CD0000C94ED1E0E94DF1E38F00E94E61E20F0BC
:103CE000952311F00C94D61E0C94DC1E11240C9418
:103CF000211F0E94FE1E70F3959FC1F3950F50E0A7
:103D0000551F629FF001729FBB27F00DB11D639F8D
:103D1000AA27F00DB11DAA1F649F6627B00DA11D33
:103D2000661F829F2227B00DA11D621F739FB00DD9
:103D3000A11D621F839FA00D611D221F749F332749
:103D4000A00D611D231F849F600D211D822F762FE2
:103D50006A2F11249F5750409AF0F1F088234AF0BF
:103D6000EE0FFF1FBB1F661F771F881F915050402B
:103D7000A9F79E3F510580F00C94D61E0C94211F8C
:103D80005F3FE4F3983ED4F3869577956795B795B2
:103D9000F795E7959F5FC1F7FE2B880F911D9695CC
:103DA000879597F9089599278827089597F99F6728
:103DB00080E870E060E008959FEF80EC08950024B3
:103DC0000A941616170618060906089500240A9480
:103DD00012161306140605060895092E0394000C06
:103DE00011F4882352F0BB0F40F4BF2B11F460FF95
:103DF00004C06F5F7F4F8F4F9F4F089557FD9058BE
:103E0000440F551F59F05F3F71F04795880F97FB9E
:103E1000991F61F09F3F79F0879508951216130658
:103E20001406551FF2CF4695F1DF08C01616170687
:103E30001806991FF1CF86957105610508940895BC
:103E4000E894BB2766277727CB0197F90895052EBD
:103E500097FB1EF400940E943E1F57FD07D00E945E
:103E6000881F07FC03D04EF40C943E1F50954095DC
:103E7000309521953F4F4F4F5F4F08959095809516
:103E8000709561957F4F8F4F9F4F08950E94AA1F95
:103E9000A59F900DB49F900DA49F800D911D11249E
:103EA00008952F923F924F925F926F927F928F92DE
:103EB0009F92AF92BF92CF92DF92EF92FF920F93B9
:103EC0001F93CF93DF93CDB7DEB7CA1BDB0B0FB6C3
:103ED000F894DEBF0FBECDBF09942A883988488880
:103EE0005F846E847D848C849B84AA84B984C88416
:103EF000DF80EE80FD800C811B81AA81B981CE0F0D
:103F0000D11D0FB6F894DEBF0FBECDBFED010895F1
:103F1000A1E21A2EAA1BBB1BFD010DC0AA1FBB1FCD
:103F2000EE1FFF1FA217B307E407F50720F0A21B3F
:103F3000B30BE40BF50B661F771F881F991F1A94AC
:103F400069F760957095809590959B01AC01BD01D6
:103F5000CF010895A29FB001B39FC001A39F700D30
:103F6000811D1124911DB29F700D811D1124911D81
:103F700008955058BB27AA270E94D11F0C94ED1E0C
:103F80000E94DF1E38F00E94E61E20F039F49F3FA9
:103F900019F426F40C94DC1E0EF4E095E7FB0C9467
:103FA000D61EE92F0E94FE1E58F3BA176207730748
:103FB0008407950720F079F4A6F50C94201F0EF4E1
:103FC000E0950B2EBA2FA02D0B01B90190010C0129
:103FD000CA01A0011124FF27591B99F0593F50F441
:103FE000503E68F11A16F040A22F232F342F442799
:103FF000585FF3CF469537952795A795F040539591
:10400000C9F77EF41F16BA0B620B730B840BBAF060
:104010009150A1F0FF0FBB1F661F771F881FC2F7CB
:104020000EC0BA0F621F731F841F48F487957795DF
:104030006795B795F7959E3F08F0B0CF9395880F99
:1040400008F09927EE0F9795879508950E943A20DA
:104050000C94ED1E0E94E61E58F00E94DF1E40F0F8
:1040600029F45F3F29F00C94D61E51110C94211FA6
:104070000C94DC1E0E94FE1E68F39923B1F35523B5
:1040800091F3951B550BBB27AA276217730784076B
:1040900038F09F5F5F4F220F331F441FAA1FA9F301
:1040A00035D00E2E3AF0E0E832D091505040E695EF
:1040B000001CCAF72BD0FE2F29D0660F771F881F50
:1040C000BB1F261737074807AB07B0E809F0BB0B43
:1040D000802DBF01FF2793585F4F3AF09E3F510557
:1040E00078F00C94D61E0C94211F5F3FE4F3983EA9
:1040F000D4F3869577956795B795F7959F5FC9F740
:10410000880F911D9695879597F90895E1E0660FC0
:10411000771F881FBB1F621773078407BA0720F039
:10412000621B730B840BBA0BEE1F88F7E0950895A2
:104130000E949F206894B1110C94211F08950E9441
:10414000061F88F09F5798F0B92F9927B751B0F004
:10415000E1F0660F771F881F991F1AF0BA95C9F70B
:1041600014C0B13091F00E94201FB1E008950C946A
:10417000201F672F782F8827B85F39F0B93FCCF31D
:10418000869577956795B395D9F73EF49095809588
:10419000709561957F4F8F4F9F4F08950E94421EEB
:1041A00008F48FEF0895FA01EE0FFF1F30962105F6
:1041B0003105A1F16115710561F48038BFE39B07FA
:1041C00049F168949038810561F08038BFEF9B0712
:1041D00041F099234AF5FF3FE1053105210519F129
:1041E000E8940894E795D901AA2329F4AB2FBE2FB0
:1041F000F85FD0F310C0FF5F70F4A695E0F7F739D1
:1042000050F019F0FF3A38F49F779F930DD00F903C
:1042100007FC9058089546F00C94DC1E60E070E0B6
:1042200080E89FE308954FE79F775F934F933F9315
:104230002F930E94D3212F913F914F915F910E9424
:10424000661E0C9430210E94421E880B990B089523
:1042500029F416F00C94D61E0C94201F0C94DC1E2E
:104260000E94061FA8F39638A0F707F80F92E8946B
:104270002BE33AEA48EB5FE70E947C1E0F920F9215
:104280000F924DB75EB70F920E941B22E8E6F0E056
:104290000E9462214F915F91EF91FF91E595EE1F92
:1042A000FF1F49F0FE57E0684427EE0F441FFA95C0
:1042B000E1F74195550B0E9495210F9007FE0C9454
:1042C00089210895DF93CF931F930F93FF92EF926D
:1042D000DF927B018C01689406C0DA2EEF010E9408
:1042E000791EFE01E894A59125913591459155914E
:1042F000A6F3EF010E94D11FFE019701A801DA94F5
:1043000069F7DF90EF90FF900F911F91CF91DF91B0
:1043100008959B01AC0160E070E080E89FE30C949D
:1043200026200C94D61E0C944F220E94061FD8F310
:104330009923C9F3940F511DA3F39150504094F069
:1043400059F0882332F0660F771F881F9150504034
:10435000C1F79E3F51052CF7880F911D96958795C3
:1043600097F908955F3FACF0983E9CF0BB27869587
:1043700077956795B79508F4B1609395C1F7BB0F32
:1043800058F711F460FFE8CF6F5F7F4F8F4F9F4F5B
:10439000E3CF0C94211F16F00C944F220C94DC1EDA
:1043A00068940C94D61E0E94061FA8F39923C1F3AB
:1043B000AEF3DF93CF931F930F93FF92C92FDD27A7
:1043C00088232AF02197660F771F881FDAF720E0ED
:1043D00030E040E85FEB9FE3883920F0803E38F022
:1043E00021968F770E94BA1FE0E9F0E004C00E9496
:1043F000BA1FEDEBF0E00E9462218B01BE01EC01DF
:10440000FB2E6F5771097595771F880B990B0E94CA
:10441000071E28E132E741E35FE30E94791EAF2DDA
:104420009801AE01FF900F911F91CF91DF910E94F3
:10443000D11F0C94ED1EFA01DC01AA0FBB1F9B01DA
:10444000AC01BF5728F4222733274427507820C0D7
:10445000B75190F4AB2F0024469537952795011C52
:10446000A395D2F3002071F0220F331F441FB395A0
:10447000DAF30ED00C94B91F61307105A0E88A07F9
:10448000B94630F49B01AC016627772788279078DE
:10449000309621F0208331834283538308959F3FD8
:1044A00031F0915020F4879577956795B795880FEF
:1044B000911D9695879597F908950E94AA1FB7FFB9
:1044C0000895821B930B0895EE0FFF1F0590F49142
:1044D000E02D09940F931F93CF93DF9382309105C2
:1044E00010F482E090E0E091A404F091A50430E0A3
:1044F00020E0B0E0A0E0309799F42115310509F4EF
:104500004AC0281B390B24303105D8F58A819B819C
:104510006115710589F1FB0193838283FE0111C04E
:10452000408151810281138148175907E0F04817F3
:10453000590799F4109761F012960C9312971396FD
:104540001C933296CF01DF91CF911F910F91089567
:104550000093A4041093A504F4CF2115310551F064
:104560004217530738F0A901DB019A01BD01DF01B1
:10457000F801C1CFEF01F9CF9093A5048093A40473
:10458000CDCFFE01E20FF31F8193919322503109A9
:1045900039832883D7CF2091A2043091A304232B01
:1045A00041F420912A0130912B013093A3042093F0
:1045B000A20420912801309129012115310541F4EF
:1045C0002DB73EB740912C0150912D01241B350B86
:1045D000E091A204F091A304E217F307A0F42E1BCC
:1045E0003F0B2817390778F0AC014E5F5F4F241757
:1045F000350748F04E0F5F1F5093A3044093A20469
:10460000819391939FCFF0E0E0E09CCFCF93DF9335
:104610000097E9F0FC01329713821282A091A40462
:10462000B091A504ED0130E020E01097A1F42081C5
:104630003181820F931F2091A2043091A304281787
:10464000390709F061C0F093A304E093A204DF915D
:10465000CF910895EA01CE17DF07E8F54A815B8123
:104660009E0141155105B1F7E901FB83EA834991A8
:104670005991C40FD51FEC17FD0761F4808191811A
:104680000296840F951FE901998388838281938123
:104690009B838A83F0E0E0E012968D919C911397C2
:1046A0000097B9F52D913C911197CD010296820F9B
:1046B000931F2091A2043091A3042817390739F6DB
:1046C000309751F51092A5041092A404B093A3045E
:1046D000A093A204BCCFD383C28340815181840FB5
:1046E000951FC817D90761F44E5F5F4F8881998184
:1046F000480F591F518340838A819B819383828312
:104700002115310509F0B0CFF093A504E093A4047E
:104710009ECFFD01DC01C0CF13821282D7CFB0E063
:10472000A0E0E5E9F3E20C94531F8C01009751F4EB
:10473000CB010E946A228C01C801CDB7DEB7E0E14F
:104740000C946F1FFC01E60FF71F9C0122503109EA
:10475000E217F30708F49DC0D901CD91DC911197C0
:10476000C617D70798F0C530D10530F3CE010497AE
:104770008617970708F3C61BD70B2297C193D193CF
:104780006D937C93CF010E940623D6CF5B01AC1AB8
:10479000BD0A4C018C0E9D1EA091A404B091A504ED
:1047A000512C412CF12CE12C109731F58091A20471
:1047B0009091A3048815990509F05CC04616570628
:1047C00008F058C08091280190912901009741F488
:1047D0008DB79EB740912C0150912D01841B950BF4
:1047E000E817F90708F055C0F093A304E093A2047A
:1047F000F90171836083A0CF8D919C9111971296DE
:104800006C90129713967C901397A815B90559F5DB
:104810006C0142E0C40ED11CCA14DB0420F1AC01CF
:104820004A195B09DA011296159780F06282738249
:1048300051834083D9016D937C93E114F10471F0AD
:10484000D7011396FC93EE93129776CF22968C0F96
:104850009D1FF90191838083F301EFCFF093A504AD
:10486000E093A40469CF4816590608F42C017D0191
:10487000D3019ACFCB010E946A227C01009749F0B4
:10488000AE01B8010E945424C8010E94062387018A
:1048900053CF10E000E050CF9111089581568A5116
:1048A00008F4805285580895FB01DC0102C0019094
:1048B0000D9241505040D8F70895FC018191861720
:1048C00021F08823D9F7992708953197CF010895CA
:1048D000FB01DC018D91019080190110D9F3990B36
:1048E0000895FB01DC0101900D920020E1F708958D
:1048F000FB01DC014150504030F08D910190801956
:1049000019F40020B9F7881B990B0895FB01DC010D
:104910004150504048F001900D920020C9F701C06D
:104920001D9241505040E0F70895F894FFCF532E68
:10493000502E522E4F2E552E5400000000000046DF
:10494000001E000000AA42000048420000F04100A2
:104950000090412C01010000A604800000004000EE
:104960001400540000000000030531045E045005EB
:10497000C1046D04B304000000002D0600064307C7
:10498000D605F905E605D7050000000054093104F5
:1049900043070C040D0A006E616E00696E66006FBD
:1049A0007666004155544F20004D414E5520005130
:1049B0005400717400424D00626D005355007375D0
:1049C00000444E00646E004841006861005441009C
:1049D000746100202121004E4F4E473A00433E00B3
:1049E00043004C414E483A00433C00515541204160
:1049F0004D3A00253E002500515541204B484F3A85
:104A000000253C00444154204B484F3A0044415457
:104A1000204E4741503A00544F493A006C75783C5B
:104A200000424F4E2043414E2120435541204D4FDF
:104A300021003E3E3E20424F4E204E554F432043E4
:104A4000414E21003E3E3E204355412042554F4EAF
:104A500047204D4F21005345545F4D4F4445004181
:104A600055544F005345545F54454D5000534554E1
:104A70005F534F494C005345545F48554D490053CF
:104A800045545F4C494748540041495F545556418D
:104A90004E005345545F54454E4341590031004345
:104AA0004D445F5155415400434D445F53554F4968
:104AB00000434D445F44454E00434D445F485554C8
:104AC000414D00434D445F54414E47414D00434DDD
:104AD000445F424F4D00434D445F00543A00432031
:104AE000483A002520443A004E756F633A0025206D
:084AF000533A006C75780000D8
:107E0000112484B714BE81FFF0D085E080938100F7
:107E100082E08093C00088E18093C10086E0809377
:107E2000C20080E18093C4008EE0C9D0259A86E02C
:107E300020E33CEF91E0309385002093840096BBD3
:107E4000B09BFECF1D9AA8958150A9F7CC24DD24C4
:107E500088248394B5E0AB2EA1E19A2EF3E0BF2EE7
:107E6000A2D0813461F49FD0082FAFD0023811F036
:107E7000013811F484E001C083E08DD089C08234E0
:107E800011F484E103C0853419F485E0A6D080C0E4
:107E9000853579F488D0E82EFF2485D0082F10E0AE
:107EA000102F00270E291F29000F111F8ED06801E7
:107EB0006FC0863521F484E090D080E0DECF843638
:107EC00009F040C070D06FD0082F6DD080E0C81688
:107ED00080E7D80618F4F601B7BEE895C0E0D1E017
:107EE00062D089930C17E1F7F0E0CF16F0E7DF06D8
:107EF00018F0F601B7BEE89568D007B600FCFDCFD4
:107F0000A601A0E0B1E02C9130E011968C91119780
:107F100090E0982F8827822B932B1296FA010C0160
:107F200087BEE89511244E5F5F4FF1E0A038BF0790
:107F300051F7F601A7BEE89507B600FCFDCF97BE46
:107F4000E89526C08437B1F42ED02DD0F82E2BD052
:107F50003CD0F601EF2C8F010F5F1F4F84911BD097
:107F6000EA94F801C1F70894C11CD11CFA94CF0C13
:107F7000D11C0EC0853739F428D08EE10CD085E9AC
:107F80000AD08FE07ACF813511F488E018D01DD067
:107F900080E101D065CF982F8091C00085FFFCCF94
:107FA0009093C60008958091C00087FFFCCF809118
:107FB000C00084FD01C0A8958091C6000895E0E648
:107FC000F0E098E1908380830895EDDF803219F02E
:107FD00088E0F5DFFFCF84E1DECF1F93182FE3DFCA
:107FE0001150E9F7F2DF1F91089580E0E8DFEE27F6
:047FF000FF270994CA
:027FFE00040479
:00000001FF
